S1234000388E4009C61B7EB087327FC603E7E4C604BD8FF2C64BBDD0135D2712C649BDD0C7
S1234020135D270A6AE426E7BD868963F63B7E8F4B39FB101EC1EF221CC11F230C7F101EBC
S12340407F0CACC601F7101F39F7101E7F0CACC601F7101F39C61FF7101E7F0CACC601F77E
S1234060101F39327FE7E4272F7F101FC60FBD8FF27D101F2622C60FBD8FF27D101F261850
S1234080C60FBD8FF27D101F260EC60FBD8FF27D101F26046AE426D4326139BD4063C60105
S12340A07E4032C63CBD8FF220F9C606BD8FF27F101EF6101E4F58491F01AD9948B1F61083
S12340C01EC10126F0BD868961083BF6101E20E58E0000BDCA7A5F7E409BF61824C10127EB
S12340E0045F7E409B8E18F8BD59EDC6027E409BF61861C10127045F7E409BBD6E34C60203
S12341007E409BF61861C10127045F7E409BBD6E64C6027E409BF61861C10127045F7E4005
S12341209BBD6E94C6027E409B444F5453204259004D4152494F0034608E5A10BDBA0EBDC5
S1234140BA3FCE00148E56DCAFC4108E00168E4007AFA48E4129BD9A768E5D7BAFC48E4005
S123416014AFA48E4131BD9A76BDBBC1C60335607E409B47414D452052554C455320425997
S123418000434152444F4E410034608E5ABCBDBA0EBDBA3FCE00148E56DCAFC4108E0016E7
S12341A08E4007AFA48E4173BD9A768E5D7BAFC48E4014AFA48E4181BD9A76BDBBC1C60298
S12341C035607E409B44454D4F4C4954494F4E0054494D45003460BDBA3FCE5A408E001476
S12341E0EF84108E00168E4007AFA48E41C5BD9A768E0014EF848E4016AFA48E41D0BD9AC9
S123420076BDBBC1C60435607E409B7D181E26045F7E409BBD703FC6037E409BBD86894400
S12342209339BDBBC1C6027E409B5354415254203500434C4157204D4F44455320464F52AB
S12342400044454D4F4C4954494F4E2054494D4500327C7F101F8E003AAFE4BDB9CDAEE48B
S1234260BD90C9BDBB9D7D101F274A8E5ABCBDBA0EBDB9CD8E0048BD90C9BDBB9DC608BDFA
S12342808FF28E0048AF62BDB9CDAE62BD90C9BDBB9DC608BD8FF2EC62C30002ED62108333
S12342A0005626E3C612BD8FF27D101F271DC60132647E4032C608BD8FF2ECE4C30002EDBA
S12342C0E4108300481026FF9220A08E5A2EBDBA0EBDBA3F8E468B9F148E40049F168E42DA
S12342E02ABD9A768E468B9F148E400A9F168E4232BD9A768E4F3F9F148E40169F168E421D
S123430041BD9A76BDBBC1C60332647E409B484954205354414E4455505300544F204C49CB
S123432047485400515549434B20465245455A4500327E7F101F8E06BCAFE4BDB9CDAEE422
S1234340BD90C9BDBB9D7D101F2707C60132627E4032C606BD8FF2ECE4C30002EDE4108306
S123436006DA26D77D101F26E28E5A2EBDBA0EBDBA3F8E468B9F148E40049F168E430EBD22
S12343809A768E468B9F148E400A9F168E431BBD9A768E4F3F9F148E40169F168E4324BD97
S12343A09A76BDBBC1C60332627E409B4C4947485420414C4C204D2054204C00524F4C4C03
S12343C04F5645525320544F004C4947485420434C415700327E7F101F8E0254AFE4BDB97D
S12343E0CDAEE4BD90C9BDBB9D7D101F2707C60132627E4032C606BD8FF2ECE4C30002ED7E
S1234400E41083027226D77D101F26E28E5A2EBDBA0EBDBA3F8E468B9F148E40049F168E84
S123442043ACBD9A768E468B9F148E400A9F168E43BCBD9A768E4F3F9F148E40169F168ECD
S123444043C9BD9A76BDBBC1C60332627E409B53544152542034204E4F4E2D434C4157004F
S12344604D4F44455320464F52004855584C455900327E7F101F8E05E4AFE4BDB9CDAEE49D
S1234480BD90C9BDBB9D7D101F2707C60132627E4032C606BD8FF2ECE4C30002EDE41083C5
S12344A0060026D77D101F26E28E5A2EBDBA0EBDBA3F8E468B9F148E40049F168E444FBD79
S12344C09A768E468B9F148E400A9F168E4460BD9A768E5A409F148E40189F168E446ABDBB
S12344E09A76BDBBC1C60332627E409B327E7F101F8E0000AFE4BDB9CDAEE4BD90C9BDBBD7
S12345009D7D101F2707C60132627E4032C606BD8FF2ECE4C30002EDE41083000E26D77D4A
S1234520101F26E28E5AB2BDBA0EC60132627E409B4C454E494E4100327E7F101F8E05B80D
S1234540AFE4BDB9CDAEE4BD90C9BDBB9D7D101F2707C60132627E4032C606BD8FF2ECE4C5
S1234560C30002EDE4108305D226D77D101F26E2BDBA21C60CBDB9BFBDBA3F8E5A409F1456
S12345808E36089F168E4531BD9A768E5A409F148E36189F168E446ABD9A76BD86895DE344
S12345A039BDB9CD8E05D0BD90C9BD86895D7639BDBB9DC60232627E409B53494D4F4E00DA
S12345C050484F454E495800327B7F101F8E04B0AF61BDB9CDAE61BD90C9BDBB9D7D101FE6
S12345E027386FE48E06F2AF63BDB9CDAE63BD90C9BDBB9DC604BD8FF2EC63C30002ED6382
S1234600108306FC26E36CE4E6E4C10426D67D101F2738C60132657E4032C606BD8FF2ECCE
S123462061C30002ED61108304C626A67D101F26B18E5ABCBDBA0EBDB9CD8E06F2BD90C94E
S1234640BDBB9DC606BD8FF27E45E2BDBA21C60CBDB9BFBDBA3F8E5A409F148E36089F16E1
S12346608E45BABD9A768E5A409F148E36189F168E45C0BD9A76BD86895DE339BDB9CD8EFA
S123468006FABD90C9BD86895D7639BDBB9DC60232657E409B327E7F101F8E0276AFE4BDA7
S12346A0B9CDAEE4BD90C9BDBB9D7D101F2707C60132627E4032C606BD8FF2ECE4C30002EF
S12346C0EDE41083029026D77D101F26E2BDBA21C60CBDB9BFBDBA3F8E5A409F148E360833
S12346E09F168E45BABD9A768E5A409F148E36189F168E45C0BD9A76BD86895DE339BDB920
S1234700CD8E028EBD90C9BD86895D7639BDBB9DC60232627E409B4A4F484E00535041528D
S123472054414E00327C7F101F8E00A8AFE4BDB9CDAEE4BD90C9BDBB9DC606BD8FF2ECE493
S1234740C30002EDE4108300C626E38E00C2AF62BDB9CDAE62BD90C9BDBB9DC606BD8FF274
S1234760EC62C3FFFEED62108300A626E37D101F2707C60132647E4032BDBA21C60CBDB98F
S1234780BFBDBA3F8E5A409F148E36089F168E4717BD9A768E5A409F148E36189F168E474A
S12347A01CBD9A76BD86895DE339BDB9CD8E00A8BD90C9BD86895D7639BDBB9DC6023264ED
S12347C07E409B327C7F101F8E0456AFE4BDB9CDAEE4BD90C9BDBB9DC606BD8FF2ECE4C308
S12347E00002EDE41083046E26E38E5ABCBDBA0EBDB9CD8E047EBD90C9BDBB9DC606BD8F15
S1234800F28E047EAF62BDB9CDAE62BD90C9BDBB9DC606BD8FF2EC62C30002ED6210830400
S12348208A26E37D101F2707C60132647E4032BDBA21C60CBDB9BFBDBA3F8E5A409F148EFC
S123484036089F168E4717BD9A768E5A409F148E36189F168E471CBD9A76BD86895DE33939
S1234860BDB9CD8E0488BD90C9BD86895D7639BDBB9DC60232647E409BBDBA30BD86894E5C
S1234880CD39BDBBC1F61826C1012705C6037E409BC6147E409BC60ABD8FD77E8F4B090208
S12348A0610263026B026C0269016C0270015E030B487941D544EC421C47C34189413744A7
S12348C0714116410340F0469540DA4538420B43D4487941D544EC421C472441894137436D
S11448E0314116410340F045C840DA4251420B40D0B0
S12348F18E49C3BD93975D2605C6047EC483C6047EC4FC8E49C37E937E8E49C3BD937E5D15
S1234911260FC61ABD8F09D709C601D7080D09270ABD5B7AC614BD96A00F08D608398E49E7
S1234931C3BD94EEC6078E49C37E93FFF6106BC1012301398E49C3BD937E5D27F68ED1A870
S1234951AFE38E01A4C61ABDD1923262398E49C37E9377327FE7E40D2027033261398E4918
S1234971C3BD937E5D261E8E49C3BD94EEE6E4C10F22088E49C332617E93FFC60F8E49C3A7
S123499132617E93FF8E49C3BD9377EBE4C10F23E2C60F8E49C332617E93FF8E49C37E949C
S12349B1DE8E49C37E94DE5FBDC1AEC606BD8FF220F5929992999299D1C400000000001D9D
S10749D103031021A7
S12349D57F18F07F18F27F18F1398E4BB47EBCD43420108E3FFDC6B4E7A47F18F07F18F20F
S12349F58E4BB4BDB8BD6FA435A03420108E3FFDC6B4E7A47F18F17F18F07F18F28E4BB49F
S1234A15BDB8BD6FA435A08E4BB4BDB9087D18F1260139C6B4F73FFD7A18F18E4BB4BDB840
S1234A35BD7F3FFD398E4BB4BDB908C6017D18572605F618F1260139C601397D002127019E
S1234A5539C6057E9726F618F1F11856250139C6B4F73FFD7C18F18E4BB4BDB8BD7F3FFD95
S1234A758E0078BDCBE4C608BDC4FC7E4A50327CE7E48E4BB4BDB908F618F1F11856102432
S1234A950091C6B4F73FFDF618F0EBE4F718F0F6184DD70A2742F618F2EBE4D708D60AD1EF
S1234AB50810220082F6184EE761F618F1D709D60A50E762D608D00AD708D609EB61D70983
S1234AD5D608E763EB62D708DB0AD10A24ECD609F718F1E663F718F27F3FFDF618F0F118AE
S1234AF54C2533C6B4F73FFDF618F0F0184CF718F07F3FFDBD4A5B8E1873BDB869F618F0E9
S1234B15F1184C24DEBD868967583B8E4BB432647EB8BD326439BD868967653BBD4A508EC2
S1234B354BB432647EB8BDD608F718F27E4AED3440327DE762C61EBD8F095D270432633549
S1234B55C0E6624FEDE41F01E6891848BD4A83ECE45849CE186B30CB326335407EB869C66F
S1234B75037E4B44C6027E4B44C6017E4B445F7E4B447D00212606BD4A3A5D260AC63FBD9D
S1234B95C23AC63F7EC24E0D1D260AC63FBDC29BC63F7EC24EC63FBDC23AC63F7EC2D90580
S10B4BB518F00300000149D5CA
S10618F0000000F1
S1234BBDF63D61C4022709F63D608E929ABF0BF339F63D61C40227097F3D608E929ABF0BDD
S1234BDDF3397F1022CC0000FD1023C6217E8F09BD9514C1012701397C10228E4C3FC621A7
S1234BFD7EB087BD9514C101270139F610224F4FC40FDD08FC102358495849584958499E87
S1234C1D083410AAE0EAE0FD10237F10221083000027D78E4C3FC621BDB087BD868960F849
S11B4C3D3B39C605BD8FD77F1022CC0000FD1023C621BD8F097E8F4BB8
S1234C557F1025397D102526152023F610275CC41FF71027C612BD8FF2C601F70C90C64905
S1234C75BDD0135D26E5C64DBDD0135D26DD397D102526152023F610275AC41FF71027C639
S1234C9512BD8FF2C601F70C90C64BBDD0135D26E5C64FBDD0135D26DD398E4CBCC622BDAF
S1234CB5B099C6187E96F6C61EF710258E2020BF1028BF102A7F1026F71027C640BD8FF2B5
S1234CD5F610255AD708F71025C601F70C900D0826E97E8F4BC63CBD8FF2C622BD8F097F59
S1234CF510253934207D10252733F61026D708C102222A4F1F02F61027CB024F4FC41F1FA9
S1234D1501E6894E5FE7A91028C601F70C90D6085CF71026C1032707C61EF7102535A035C8
S1234D35207E4CEA494E495449414C53002531327300252A73003440327B7D00212618C6A9
S1234D5522BD8DFE8C0000102700F77D002126077D0C9010270084BDBA308E5A409F14CC29
S1234D750001DD168E4D39BD9A9ACE10288E0000AF618E40419F14EC611F985FCA0EDD168D
S1234D95E6C42602C65FBD99C7EC61C30008ED6133411083001826DAF61027D708C114225E
S1234DB5424FC34E5F34068E4D42AFE3BDAA4D8E40419F14CC0017DD168E0C57BD9A9A3290
S1234DD5648E3961E684CB80E784E601C87FE7013088108C39F126ECBDBBC1C604BD8FF227
S1234DF57E4D4FC620D008E7E4D6084FC34E5F3406E66234048E4D47AFE3BDAA4D8E404129
S1234E159F14CC0017DD168E0C57BD9A9AC60CE065E7698E4E5FAFE334048E4D47AFE3BD31
S1234E35AA4D8E40419F14C60CE06E585858E76E1F985FCA17DD16326A8E0C57BD9A9A7E3D
S1234E554DD6C61EBD8FF27E989E4142434445464748494A4B4C4D4E4F50515253545556C3
S10D4E755758595A202A2F2D2B00FC
S1234E7F327FF63FE7E7E4C63CE4E45454E7E4F118F3260653F118F42719E6E4BD86896488
S1234E9F973CC6B4F73FFDE6E4F718F353F718F47F3FFD3261394F58491F01AE894FFDAF84
S1234EBFE3BDAA4D3262394155472E004255494C4420257320256420256C64004255494C4E
S1234EDF4420256420257320256C6400F61823C10127198E07DEAFE3C608E7E28E4EC6AFD5
S1234EFFE38E4ECBAFE3BDAA4D3267398E07DEAFE38E4EC6AFE3C608E7E28E4EDBAFE3BD17
S1234F1FAA4D32673925732025642C20256C6400256420257320256C6400D708F61823C1FC
S1234F3F0127203410E66434040A08D6084F58491F01AE895053AFE38E4F24AFE3BDAA4D8D
S1234F5F32673934100A08D6084F58491F01AE895053AFE3E66634048E4F2FAFE3BDAA4DD6
S1234F7F3267395553412F43414E4144412031004652414E4345004745524D414E59004633
S1234F9F52414E43452032304600494E56414C4944004745524D414E592032004652414E2A
S1234FBF43452033004558504F5254004652414E4345203400554E49544544204B494E47FC
S1234FDF444F4D004555524F504500535041494E005553412F43414E4144412032004F82B0
S1234FFF4F8F4F964F9E4FA94FA94FA94FB14FA94FBB4FC44FCB4FD44FE34FEA4FF04A416F
S123501F4E2E004645422E004D41522E004150522E004D4159004A554E2E004A554C2E00BC
S123503F5345502E004F43542E004E4F562E004445432E00501D50225027502C5031503530
S10F505F503A4EC6503F50445049504E49
S10518F30000EF
S123506B327D8E0000AF61AE61E6898000D709273C1F10585858D7080F0AD609C401271C7D
S123508BD608C407F73FF7F63FF7E7E4D6085454544F1F01E6E4E58900AE2625D60954D7B0
S12350AB09270A0C0A0C08D60AC10826CDEC61C30001ED611083000A26ADC60232637E8FA8
S12350CBF23263390D1D27040D20270139C6008E0CF2BDC1545D27F4BD5C1539F6182EC11E
S12350EB012701397E50CF7E50CFF6182FC1012701398E5105C6297EB099C614BD8FD7BD51
S123510B50CF7E8F4BC629BD8F09C628BD8F09C6008E0CF27EC1D0C616BDD0135D26088E8C
S123512B5142C6287EB099C628BD8F09C6008E0CF27EC2547E51225FBD8E30C678BD8FF2A8
S123514BC6008E0CF2BDC1D07E8F4B465245455750432028432920434F50595249474854AF
S123516B2032303134005448495320534F465457415245204953204E4F5400535550504F12
S123518B525445442042592042414C4C592F57494C4C49414D53005757572E4F444443485C
S12351AB414E47452E434F4D2F465245455750430044454D4F4C4954494F4E2054494D453A
S12351CB0030310031005225732E25730054455354494E472E2E2E00BDBA308E468B9F141D
S12351EB8E40039F168E5156BD9A768E468B9F148E400B9F168E5171BD9A768E468B9F1449
S123520B8E40119F168E5186BD9A768E468B9F148E40199F168E51A2BD9A76BDBBC1C6B40A
S123522BBD8FF2BDBA308E43469F148E01019F168E51BCBD9A9A8E51CCAFE38E51CFAFE362
S123524B8E51D1AFE3BDAA4D8E43469F148E7F019F168E0C57BD9A66BD4EEB8E43469F144E
S123526B8E01099F168E0C57BD9A9A8E43469F148E011A9F168E51D8BD9A9ABDBBC1C6B46D
S123528BBD8FF232667D0CD8270AC604BD8FF27D0CD826F6BD68727E989EBDBD678E001E3A
S12352ABAFE35F8E1600BD8793BD868966053B32623946524545575043005741524E494E59
S12352CB472E2E2E2042414C4C5920574D5300444F4553204E4F5420535550504F525400AA
S12352EB5448495320534F46545741524500505245535320454E544552004E4F205741520A
S123530B52414E54592045584953545300524F4D204D41592043415553452044414D4147F0
S123532B4500544F205245414C204D414348494E4500494620594F5520415245205355525F
S123534B4520594F550057414E5420544F20434F4E54494E554500505245535320454E54C6
S123536B455220545749434500BE18F58C19752609F618F7C1B9102701B0BDBA308E4346B2
S123538B9F148E40039F168E52BDBD9A768E43469F148E40099F168E52C5BD9A768E43467C
S12353AB9F148E400F9F168E52DABD9A768E43469F148E40159F168E52EBBD9A768E434601
S12353CB9F148E401B9F168E52F9BD9A76BDBBC12005C604BD8FF2C607BDD0015D27F3C6C9
S12353EB07BDD0015D270DC604BD8FF2C607BDD0015D26F3BDBA308E43469F148E40039FBE
S123540B168E52BDBD9A768E43469F148E40099F168E5305BD9A768E43469F148E400F9FAE
S123542B168E5318BD9A768E43469F148E40159F168E532DBD9A768E43469F148E401B9FF2
S123544B168E52F9BD9A76BDBBC12005C604BD8FF2C607BDD0015D27F3C607BDD0015D276A
S123546B0DC604BD8FF2C607BDD0015D26F3BDBA308E43469F148E40039F168E52BDBD9A4C
S123548B768E43469F148E40099F168E533DBD9A768E43469F148E400F9F168E5351BD9A61
S12354AB768E43469F148E40159F168E5362BD9A76BDBBC12005C604BD8FF2C607BDD00134
S12354CB5D27F3C607BDD0015D271AC604BD8FF2C607BDD0015D26F3C607BDD0015D261A7C
S12354EBC604BD8FF2C607BDD0015D27F3C607BDD0015D270DC604BD8FF2C607BDD0015D17
S123550B26F3BDBA30BDBBC1C63CBD8FF2C6B4F73FFDC619F718F5C675F718F6C6B9F718E5
S123552BF77F3FFDBD52A57EBF8539464143544F52592053455454494E4753005245535414
S123554B4F52454400BD86896AF23B5D270139C610BD9745BDBA308E43469F148E400A9F9A
S123556B168E5536BD9A768E43469F148E40149F168E5547BD9A76BDBBC1BD52A5C6F0BD68
S123558B8FF27EBF85BD5374C610BD96A0BD506BBD55507C0CD7C604BD8FF2BD86896123DB
S10D55AB3B8E1897BDB8697E9E542C
S10618F5000000EC
S12355B5E601D708272CE602D7092726E684C1322220D609C11F221AD608C10C2214E60340
S12355D5C117220E0F08E604C13B2208C601D70820020F08D60839327FE684E7E45454D728
S12355F508E601D70AE6E4EB02DB08D7090A0AD60A4F1F010C0AD609EB895AF2D709C60387
S1235615E4E42608D60AC10222020A090A09CC0007EDE3D6094F1F01BDF95A1F1032633990
S1235635C60EF718F8C601F718F9F718FAF718FBF718FC7F102C39BE18F8BF102DFC18FABD
S1235655FD102FF618FCF710317F103239F610325CC10423047F103239F7103239327E8E8F
S123567519348C18FD2331CC18FDEDE4200DECE4C30005EDE410831934271DAEE4BD55B50A
S12356955D26EBC6B4F73FFDAEE4CC0000ED81ED816F847F3FFD20D63262393460108E3FBA
S12356B5FDC6B4E7A4FE18F8EF81FC18FAED81F618FCE7846FA435E08E5A597EBCD4C6B46F
S12356D5F73FFDE603C1172314CBE8E703F63FFACBE8F73FFA6C02E603C11722ECE602D7DB
S12356F50AE6015AD7088E5A873AE684D7090C08EC848403108300022727D60AD109230B9E
S1235715C601E702E6015CD708E701D608C10C2306C601E7016C848E5A59BDB8BD7F3FFD15
S1235735390C0920D5D708F61032C10422404F58491F016E99574C579B575657AE57B9570A
S1235755890D0810260089F6102FC101102200D9F6102E5A8E5A873AE684D708FC102D8494
S1235775031083000226020C08D608F7102F8E102D7E56D30D08263EF61031102600B8C652
S12357953BF7103120E80D082638F6102EC101102300AB5AF7102E20D50D08102600687A7D
S12357B5102D20CA0D082652F6103010260081C617F7103020B8F61031C13A23657F1031C9
S12357D520ACF6102EC10B2352C601F7102E209EF6102FD709F6102E5A8E5A873AE684D728
S12357F508FC102D840310830002275AD609D1082522C601F7102F7E5783F61030C117232D
S12358150C7F10307E57837C102D7E57835CF710307E57835CF7102F7E57835CF7102E7E57
S123583557835CF710317E57835AF7102F7E57835AF710307E57835AF710317E5783C60CFC
S1235855F7102E7E57830C0820A2BE18008C07D92328C6B4F73FFDF61801CB30F718F8F68B
S12358751802F718F9F61803F718FACC0000FD18007F3FFD8E18F8BD56D3C6FFF71032397C
S1235895D708C6FFF710320D08270139C6B4F73FFDBE102DBF18F8BE102F1F10D708BF1843
S12358B5FAF61031F718FCD608F73FFAF618FCF73FFB8E5A59BDB8BD7F3FFD39414D005005
S12358D54D0025643A2530326420257300253032643A25303264003440F61822C101272A35
S12358F5E603D708CE58D4C10B2203CE58D13440E604E7E2D6088E5ADA3AE68434048E585C
S1235915D7AFE3BDAA4D326635C0E604E7E2E603E7E28E58E2AFE3BDAA4D326435C0344052
S1235935327E9F08E6844F1F0330C907D0DE08E642E7E2E641BD4F39326335C025730034B3
S123595540327EAFE4BD55EC4F58491F01AE895ACCAFE38E5951AFE3BDAA4DCE4346DF14E6
S12359758E40079F168E0C57BD9A76E6F8044F1F0330C907D0EE64E642E7E2E641BD4F39F4
S12359958E43469F14CE4010DF168E0C57BD9A76AE65BD58EC8E43469F143349DF168E0C6A
S12359B557BD9A76F610323265C1FF27274F58491F01AE895A7DAFE38E5951AFE3BDAA4D9F
S12359D5CE468BDF148E01019F168E0C57326635407E9A9A326235C0327EAFE4BDBA30AE06
S12359F5E4BD595432627EBBC154494D4520414E4420444154450A4E4F54205345540A0041
S1235A157D18F8270139C6388E59FEBD68C139C6B4F73FFDF63FFAF718FBF63FFBF718FC5C
S1235A358E5A59BDB8BD7F3FFD8E18F8BD56D3F6102CF118FC2709BD86896F963BF618FC1E
S1235A55F7102C390C18F80500000156354D4F4E544800444159005945415200484F555241
S1235A75004D494E555445005A625A685A6C5A715A761F1C1F1E1F1E1F1F1E1F1E1F535547
S1235A954E444159004D4F4E4441590054554553444159005745444E45534441590054489A
S1235AB555525344415900465249444159005341545552444159005A935A9A5AA15AA95A90
S1235AD5B35ABC5AC30C0102030405060708090A0B0C0102030405060708090A0B00030325
S10C5AF506010406020500030584
S10818F80000000000E7
S12318FD0000000000000000000000000000000000000000000000000000000000000000C7
S11A191D0000000000000000000000000000000000000000000000AF
S1235AFE7F10333939C63EBDC29BC63E7EC24EC63EBDC23AC63E7EC24EC6008E0CF2BDC181
S1235B1E545D27050F08D60839C62CBD8DFE9F081F10405082001F01DC083410AAE0EAE09A
S1235B3E1F894F5959C401D708C601D008D708D60839F1106B220139F710348E5B84C62DFE
S1235B5E7EB087FB106BBD5B5039C602BDC9F0C63CBD8FF2C63CBD8FF27E8F4BBD9BA88EB3
S1235B7E1051BD653639327CF61034F0106BE763271EC601F710336A635FBDC9F0C63CBDCD
S1235B9E8FF2C602BDC9F0C61EBD8FF26D6326E77F1033C63CBD8FF28E1051BD6274E76159
S1235BBEC605E061E761F7106BF110342441C602E762C600E7E4F61055F110582434BD8672
S1235BDE8960C83BC696BD8FF22005C608BD8FF2E6E48E0CF2BDC1545D26F0F6106BE1619E
S1235BFE2302E761E661F1103424046A6226C77E8F4BBD5B7A20CD8E5B68C62C7EB099C612
S1235C1E16BDD0135D270E7D0C46260A7D002126040D1D271F397D10382706BD49045D272A
S1235C3EEBC6018E0CF2BDC1545D26E07D103326DBBD74A6C61EBD8FF28E5B68C62C7EB0A4
S11A5C5E997F0C46BD868964193BBD86894BA3398E1051BD653639CA
S1235C757F103539F610354FC3FFFF1F894F5959C40139C6018E0CF2BDC1D00D1D2609C65C
S1235C9516BDD0135D2625390D2026FB7D183127F6F61035F1106B2708BD5B50C614BD96B8
S1235CB5A0BD722A7F10350D1D27D439BD5C1539C6018E0CF2BDC2540D1D27040D20270674
S1235CD57D00212711397D183127F5F6106BF71035BD721D20EAC6137E96A08ED1A8AFE391
S1235CF58E012CC62EBDD192C611BDD01332625D26037E5CC57E5C88327F7D0021263EBDBA
S1235D15868968CB3B6FE4C606BDD0015D2715C603BD8FF26CE4E6E4C1082716C606BDD027
S1235D35015D26EB326139BD868968CB3BC606BD8FF2C606BDD0015D26ED326139BD868969
S1235D555BD93A326139327F7D0021263EBD868964263B6FE4C605BDD0015D2715C603BDE1
S1235D758FF26CE4E6E4C1082716C605BDD0015D26EB326139BD868964263BC606BD8FF23B
S1235D95C605BDD0015D26ED326139BD86895B8E3A3261397D0021270139BD4A5B8E18751E
S1065DB57EB86948
S1235DB8BD9514C11027157D113D26117D102526087D0021261B7E9DE3BD4CF8390D1D270A
S1235DD8EB0D2026E77D0C4627E2BD868977203C39BD86895B513A397F10367F1037390D16
S1235DF820260139C61EBD8FF2C607BD9745C603BDC4830F207F1037397D18262708C611C3
S1235E18BDD0135D2708C62EBD8F095D270139BD9B378ED1A8AFE38E012CC61EBDD192BD8F
S1235E38868960C53BC609BD96A0C603BDC5648E1899BDB86932627D185E2615C63CBD8F39
S1235E58F2C61EBD8FF2C610BDD0015D26F37EBF85BD4A1C20E6C605BD8FD720F90D201009
S1235E782600867D10371026007F7C1036F61036F1181210250082C601D7207F1037BDCB05
S1235E9823C61FBDD2F6BD9856BDC2F3C607BD96A0C603BDC4FCF6183FC101102700818EE1
S1235EB801FBBDCBE4C600D708C678E7E2D608BDBEC9BD9BA8BDBD87BD868970DB3BC60176
S1235ED8BD8E41C601BD8ECE8E188FBDB8698E189BBDB86932610D1F263EC616BDD0135D0C
S1235EF82703BD5C15BD722A39C600D708C678E7E2D608BDBEC9326139C601F71037C60631
S1235F18BD96A08E5FB5C634BDB099F6183FC10127228E01FB7ECBE4BD86896FB93B20BAB8
S1235F38C604BD92D0C101272224298E044CBDCBE47E5EBDC604BD92D0C101270824288E6D
S1235F58044C7ECBE48E04767ECBE48E0476BDCBE47E5EBDC102271FC1031026FF478E048B
S1235F785DBDCBE47E5EBDC1022715C1031026FF778E045D7ECBE48E0453BDCBE47E5EBD2E
S1235F988E04537ECBE4C62DBD8FD70D2026037E8F4BBD86896FB93BBD722A20F2C678BD7A
S1135FB88FF27F10377E8F4BC61EBD8FF27EC431A1
S104000000FB
S1235FC8F61038FA1826F71038397F1038390D1D26057D00212701398E5FEBC6357EB087EB
S1235FE87E5FD6327FC632E7E4C64BBDD0135D2713C606BD8FF26AE426EFC601F71038C6ED
S10A60080FBD96A07E8F4B33
S123600F7F10587F105939C6377E8F098E6038C6377EB0998E1051BD6274D708C605D00864
S123602FF1106B2403F7106B39327F6FE40D1D273CC63CBD8FF26CE4E6E4C10626EF8E10AA
S123604F51BD6274D708C605D008F1106B2403F7106BBD868960D4345D2615F6106BFB107A
S123606F58C10127125D26C3BD9C9C20BE7E8F4BC605BD5B5020B4BD868962083B20ACBD48
S123608F620739F6106BC101230A8E1895BDB869BD646539C636BD8F095D27EEBD64653991
S12360AFCC0000FD1935FD1937F61817F7193439F61815C101270139BE19378C003123F79C
S12360CFCC0000FD193739CC0000FD1935FD1937F61817F71934393460327AF61815C10130
S12360EF2704326635E0F614154FF31935FD1935CE1939C60AE7E43161200B3341E6E4C144
S123610F2927215CE7E430A4BD7124BE0C91AFE330A4BDAE5C32625D2EE16CC43341E6E4B8
S113612FC12926DF7C193826037C1937326635E0FE
S123193400000000000000000000000000000000000000000000000000000000000000008F
S108195400000000008A
S123613F6F026F046F056F066F076F086F09CC0000ED0A6F03393440327ED7089F09860C5F
S123615F3D1F0133891039AE4A2704326235C0D608E7C4F73FF7F63FF7E7419E09AF4AE67E
S123617F05E742E606E746326235C08E10406D842609300C8C107026F55F39C601396F07BD
S123619F39F6106CD7088E1039E684C102274E300C8C106926F3D608F7106C8E103D0F0A3A
S12361BF0F09E684D708D609DB08D709E61CC102270DE602D1082407D00850DB0AD70A30B6
S12361DF0C8C106D26DCD609F71069D60AF7106DF6106FD009C1F0220BF7106A39E604D74B
S12361FF087E61AE7F106A39F6106A27045AF7106A7C106B397F106B7F106E397F106B7F76
S123621F1070398E65E7C60EBDB087C61E7E8FF250494E42414C4C204D495353494E470AD7
S123623F00BD61A07D106A260139C6388E622FBD68C139C60BBD8DFE9F081F1040508200E9
S123625F1F01DC083410AAE0EAE01F894F5959C401FB106D393440327CAFE4E604E7056D68
S123627F02272F6F626F63E6624F1F01EEE41E01E34A1E01E607BDD0135D27026C636C625C
S123629FE662AEE4E10225E1E663E704E663326435C06F63AEE420F03440C605F7106F7F68
S12362BF10697F106A7F106B7F106E7F106D7F10708E1043CE83A80F086F1A6F1B6F1D6F58
S12362DF1E6F1F6F19D608E716F73FF7F63FF7E717EF84E645E718E646E71C0C08300C33E6
S12362FF4ED608C10426D28E1051BD6274F7106C35C0327F7F106EC60EBD8DFE8C0000272B
S123631F045F326139F6106AE7E4C616BDD0135D27026AE46DE427217C1070F61070C103D1
S123633F23057D106926128E65E7C60EBDB087BD7222C60EBD96A020C8C60120C5344032F0
S123635F7EAFE4E60327125AE7036A046A05BD61A00D1D260D326235C0C62C326235407EA9
S123637FBBFDEEE4AE4AAE02C63BAE06326235407E86AC0D20265F7D0F9D102600707D0D4F
S123639FE7102600887D0F12271F7D0F11271AC614F7108BC61CF7108C8E02B3C602BD8644
S12363BF89537639BD5B7A5F397D0F0527057D0F0626DC7D0DA727057D0DA6261C7D0F98C1
S12363DF27057D0F99262C7D0DC027057D0DBF26227D0DB52651C60139C628F7108BC61CD8
S12363FFF7108C8E0292C602BD8689537639BD5B7A5F39C614F7108BC61BF7108C8E009BFC
S123641FC604BD8689537639BD5B7A5F39C60AF7108BC61EF7108C8E00AAC608BD86895399
S123643F7639BD5B7A5F397D0DB427AAC614F7108BC61CF7108C8E0166C602BD868953761E
S123645F39BD5B7A5F39F6106BD708F6106AD1082308C605F01055F7106A0D082708C60552
S123647FF01055F7106B0D1D27040D1F270139BD63925D27F9BD868968E13B5D27F0F61057
S123649F6BFB105826037E9C9CC10126E1BD868962083B39327F7D0CD726033261395CE770
S12364BFE4BD8DFE8C000026F2C60BBD8F098E6663E6E4BDB0875F32617E8E2C6C03E684AB
S12364DFBD64B3393440327DAFE4E6845CE762BD8F09F6113DC1012733AEE4E607D708E6CE
S12364FF04D0083384DB08E7476F48AE4AE606E746BE000CE662E102270E8E6663BDB08798
S123651F5F326335407E8E2C326335C0AEE4E607D7085F338420CE327DAFE4E6845CE7627A
S123653FBD8F09F6113DD708C1012732AEE4E607E10427265CE7076F08E684C10227037C60
S123655F106BBE000CE662E102270C8E6663BDB0875F32637E8E2C3263390D0827E4AEE47E
S123657FE684C10226DCF6106A5C27065AF7106A20CD7F106A20C8E6062605C6177EBBFD0D
S123659F5AE706BD653639327EAFE4E606E10224325CE706F6113DC1012709E604E1072720
S12365BF037A106B7D1055260CBD868960C13B5D2709326239BD5C5F326239AEE4BD65969B
S12365DF326239C6187EBC033440327C6F618E1039AF626FE4AE62BD6274AE62E604E705FA
S12365FF6F076F086CE4E6E4BD8F09EE62AE4AE606E746E1442538EC62C3000CED62E6E403
S123661FC10426D1C6F0BD8FF27D106A2606BD61A07E8F4BC678BD8FF27D106A27F0C678A6
S123663FBD8FF27D106A27E6C678BD8FF220DF6C61AE62BD6536C678BD8FF2E661C10A2790
S123665FC37E65ED3440327EBE000CE6025A860C3D8E1039338BC62ABD8FF2C603BD8FF2BB
S123667F30C4BD6274BD61A0E64910260058E644D708E645D709D608D109271F102400CCE3
S123669F0D1D2717AE4AAE02C63BAE0CBD86ACF6106A27045AF7106A7C106BBD61A06D474E
S12366BF260CE644E146230EC601E7476F486D441026005F6F4730C4BD6274E644E1451074
S12366DF26FF987E8F4BC10226D1E647D70A27CBE644D709E645D708D609D108102400B117
S12366FFD608D009E761D10A231FC61BBDBBFDE647E76126186F497E66BAAE4AAE02C63B53
S123671FAE06BD86AC6A476A616D6127E80D1D27F420E77D106E2708E6C4C1021026FF3B07
S123673FAE4AAE02C63BAE02BD86AC5D1027FF2B6D492604C602E749BD868960E43B0D1DE3
S123675F2642AE4AE604BDC9B67E6675D608D1091023FF47D009E7E4E6C4C1022703BD9B73
S123677FA86DE426097E66BA6AE41027FF2DBD868960C73B0D1D27F0AE4AC63BAE9802BD12
S123679F86AC20E4AE4AAE02C63BAE04BD86AC20B16C480D1D263AE648D708C614D709E69A
S12367BFC4C1022704C607D709D608D1092716D608C1032208C678BD8FF27E66BAC605BDF4
S12167DF8FD77E66BAC61ABDBBFD6F476F497E66BAAE4AAE02C63BAE08BD86AC20B90C
S12367FDF61071398E68A1C61FBDB0872005C606BD8FF2C61FBD8DFE8C000026F139C60159
S123681DF710727E68017F10727E6801327FBDBA396FE4C60CBD8FF2BDBBABC606BD8FF21E
S123683DBDBBC18E03D8BDCBE46CE4E6E4C10526E2C63CBD8FF23261395052455353204543
S123685D4E54455200464F522054455354205245504F5254007D1071260139BDB9CDBDBA83
S123687D3F8E43469F148E400A9F168E6856BD9A768E43469F148E40159F168E6862BD9A37
S123689D767E6829C606BD8FF27F1071BD868965743B7E8F4B54455354205245504F5254D4
S12368BD2E2E2E00327DAF61E7E47C1071F610717D10722719C1012718E6E4AE61BDC6F3A0
S12368DD8E5A42BDBA0EBDBBC1C605BD8FD7326339BDB9CDBDBA3F8E43469F148E40069FBD
S10F68FD168E68B2BD9A76BD682920CDC5
S1236909398E6EB47EBCD43420108E3FFDC6B4E7A4F61869F7161CC6FAF7161D8E6EB4BD49
S1236929B8BD6FA435A03460327CE762C10323385CE7634F584958495849DD08E6624FED02
S1236949E45849584958498E1959318BDE0830C91959ECA1ED81EEA1EF81ECA1ED8110AEA3
S1236969A410AF84326435E05CE763BD692FE66320C13460327CC6B4F73FFDBE6EBDBF19A3
S123698959FE6EBFFF195BF66EC1F7195DBE6EC2BF195EF66EC4F719608E6EC59F09CE6E00
S12369A9D9EF620F080C08D6084F584958495849EDE4109E091F0330C91959ECA1ED81EE67
S12369C9A1EF81E6A4E784EEE430C9195EEE62EEC4EF84EE62E642E702DC09C30005DD09F9
S12369E93343EF62D608C10426BB8E6EB4BDB8BD7F3FFD326435607E6910327FE684E7E49A
S1236A09270D8E1883BDB869BD4A5B6AE426F33261393460327EE7E44F5849584958498ECA
S1236A291959318BE625C1042304326235E05CF71074C6B4F73FFD31258E2020AFA4C6209A
S1236A49E7228E6EB4BDB8BD7F3FFDE6E4F71073C60CBD96F6BD4CAFC6B4F73FFDBE1028C9
S1236A69AFA4F6102AE7228E6EB4BDB8BD7F3FFDC60DBD96A07D18462622C603E761E6E41C
S1236A89C101230CC1022706C1032623C601E761BD6EE9C65ABD8FF26A6126F46DE4260F0F
S1236AA98E1864BD6A03C606326235607E8FF26AE4E6E44F1F0330C91865BD6A03C606327A
S1236AC96235607E8FF23460327AE7644FEDE458495849E3E4C31607ED62CE19596F653488
S1236AE940AE64BDAE5C32625D2E0E6C653348E665C10526EA326635E0C6B4F73FFDE66531
S1236B09BD692F10AE6230C4ECA1ED81ECA1ED81E6A4E784E664E7458E6EB4BDB8BD7F3FFE
S1236B29FD326635E0327F7D18612603326139BD868960CD3B5D27F47D160627106FE4E64D
S1236B49E4BD6ACF6CE4E6E4F1160625F4C604BD6A1BC603BD6A1BC602BD6A1BC601BD6AFF
S1236B691B5F32617E6A1B7D161C27167D161D2711F6161D5A2614C6FAF7161D7A161C27AA
S1236B890E39BD6910F6161D5A27ECF7161D39C6B4F73FFDF61869F7161C8E6EB4BDB8F10F
S1236BA97F3FFD394752414E44204348414D50494F4E00484947482053434F524520256494
S1236BC900256325632563003440F610734F5849584958498E1959338BBDBA30F6107326ED
S1236BE9498E6BADAFE3BDAA4D32628E4F3F9F148E40099F168E0C57BD9A76E647E7E2E6CA
S1236C0946E7E2E645E7E28E6BCAAFE3BDAA4D8E4F3F9F148E40169F168E0C57BD9A76BD78
S1236C29BBC1C678BD8FF27E989E34048E6BBCAFE3BDAA4D326320B3504C415945522025EE
S1236C496400454E54455220494E495449414C5300BDBA30F61074D708C102102700D610E8
S1236C6922008AC1012615C628F7108BC61DF7108C8E0405C602BD8689537639F61074E7DA
S1236C89E28E6C41AFE3BDAA4D8E4F3F9F148E40099F168E0C57BD9A768E4F3F9F148E40CE
S1236CA9169F168E6C4BBD9A768E5A10BDBA0EBDBBC1C678BD8FF2BDBA30F6107332635DA6
S1236CC9264D8E6BADAFE3BDAA4D32628E4F3F9F148E40099F168E0C57BD9A768E5A7EBD78
S1236CE9BA0EBDBBC1C63CBD8FF27E989EC103272CC1041026FF85C628F7108BC61DF71092
S1236D098C8E0408C602BD86895376397E6C8534048E6BBCAFE3BDAA4D326320AFC628F7BF
S1236D29108BC61DF7108C8E0407C602BD86895376397E6C85C628F7108BC61DF7108C8E13
S1236D490406D608BD86895376397E6C85484947484553542053434F524520415400346010
S1236D69BDBA30CE00148E4F3FAFC4108E00168E4008AFA48E6D56BD9A768E1959BDAE4345
S1236D898E56DCAFC48E4016AFA48E0C57BD9A7635607EBBC125642E2025632563256300C0
S1236DA9327BD708E667E7E4D6084F584958495849C31959ED630D0826441F01E607E7E238
S1236DC9E606E7E2E605E7E28E6BCAAFE3BDAA4D32658E4F3F9F14E6E44FED618A01DD16E9
S1236DE98E0C57BD9A9AAE63BDAE438E4F3F9F14EC618A80DD168E0C5732657E9A661F01A6
S1236E09E607E7E2E606E7E2E605E7E2D60834048E6D9EAFE3BDAA4D326620B648494748C3
S1236E294553542053434F52455300BDBA308E43469F148E40039F168E6E25BD9A76C608B7
S1236E49E7E2C603BD6DA9C614E7E2C604BD6DA98E5A7EBDBA0E32627EBBC1BDBA308E438F
S1236E69469F148E40039F168E6E25BD9A76C608E7E2C601BD6DA9C614E7E2C602BD6DA929
S1236E898E5A7EBDBA0E32627EBBC1BDBA308E4F3F9F148E40089F168E6BADBD9A76C6141E
S1236EA9E7E25FBD6DA932617EBBC108195928000001697B0000000050444144000000009D
S11F6EC94000000000300000000020000000001053414D4A4F454953414D4F4D84
S123195900000000000000000000000000000000000000000000000000000000000000006A
S10B1979000000000000000062
S105161C0000C8
S1236EE57F107539F61075C10422057D185B2701395CF710758E6F02C6237EB099C61EBD6C
S1176F058FF2C606BDC9B6C61EBD8FF27A107526F17E8F4B5B
S1236F197D181E26025F39F614152603C80139C601C80120F93939397F1076397F14153924
S1236F39F61076FB1415F710763939398E71A07EBCD47D181E27387D141526338E198BAFCD
S1236F59E3BE0C91BDAE5C32625D2D23BD868960F43BF6181EC102271BC1042746C1012727
S1236F792F8E187DBDB8697C14157D1846270139BD6EE939BD868940DE39BD86896CEA3B16
S1236F998E187DBDB8697C14157D184626E120E0BD4A5B8E187DBDB8697C14157D18462643
S1236FB9CE20CDCC8087EDE3BE0C91BDAF04C601F70C9032628E187DBDB8697C14157D1862
S1236FD94626AC20ABBD868960F43BF6181EC1012723C102260CBD868940DE39BD86896CCE
S1236FF9EA3B8E187DBDB8697C14157D1846270139BD6EE939BD4A5B20E845585452412012
S123701942414C4C204154005245504C4159204154005449434B455420415400504F494E52
S12370395453204154003440327EF6181EC102275D234CC1032750C10426488E7035AFE49D
S1237059BDBA30CE4F3FDF148E40089F16AEE4BD9A768E198B0D1D270CF6141586053D1F9E
S12370790330C9198BBDAE438E4CA39F14CE4016DF168E0C57BD9A76326235407EBBC1C1DA
S1237099012712326235C0CC702BEDE420B28E7013AFE420ABCE7021EFE420A43440327C7F
S12370B9AF61E7E4BDAEF56DE42604326435C0E6E45AE763AE683410C602AE63BD883D321D
S12370D962E663C1092319AE6833083440C602AE63BD883DE665CBF6E7653262C10922EBFF
S12370F96D6327C7AE6833023440C602AE63BD883D6A6532626D6326EF326435C03440CE86
S123711971B3EFE3BD70B5326235C03440CE71A9EFE3BD70B5326235C03440327DCE181936
S12371398E198BAF61E6C4E7E426133341EC61C30005ED611183181D26EB326335C0C6B48D
S1237159F73FFDAE61BDAEF5E6E4AE61BD7124C601AE61BDAFF37F3FFD20D0BE0CA68C1851
S123717917270E8C181525058C181D2301397E7132C6B4F73FFDF61817F7199F7F3FFDBE8A
S12371990CA620DF7E71320919811F0000016F300010000205000100002000010001001054
S10771B900050010B9
S104141500D2
S12219810000000000000000000000000000000000000000000000000000000000000043
S12371BD0F08F61078F110792504C601D708D60839F7107939C60AF7107939CC0000FD149A
S12371DD1639CC0000FD107A7F107739327EBE107AAFE41F10F314163406ACE12309CCFF18
S12371FDFFFD1416326239FD1416326239F61810F10C48270139BE1416BD868973593C39CE
S123721DC62B7E8F098E7490C62A7EB099C60AF710798E725BC62BBDB0995FBD8E2C7F10F6
S123723D777F107839C60AF71079F61078CB0AF710788E725BC62BBDB0995F7E8E2C0D1D41
S123725D10270079C63CBD8FF27D002126F00D1F26EC7D106B26057D0C4626E2C616BDD0C8
S123727D135D26DAC64BBDD0135D26D2C649BDD0135D26CAC64FBDD0135D26C2C64DBDD0E1
S123729D135D26BA7C107B26037C107A7C1078F61078F1107925A77C1077C606BD8FF2C6AC
S12372BD17BD96A0BD868961883BC605BD8FD7F61077C10E1023FF86C62F7EBC037E8F4B37
S12372DD450043005600460048005025640042414C4C20253169002564005345415243480F
S12372FD00BDBA30C6648E3800BD8689422539C6098E0CE2BDC1545D102600BEC6088E0C94
S123731DE2BDC1545D102600D8C6078E0CE2BDC1545D102600F2C6068E0CE2BDC1545D1006
S123733D26010CC60A8E0CE2BDC1545D10260126F60C47E7E28E72E7AFE3BDAA4D8E4F3FC6
S123735D9F148E7E0B9F168E0C57BD9A66F60C48E7E28E72EBAFE3BDAA4D8E468B9F14CCBD
S123737D8015DD168E0C57BD9A66BD868943AE398E468B9F14CC801BDD168E0C57BD9A66A6
S123739DF61077E7E28E72F4AFE3BDAA4D8E4F3F9F148E01019F1632698E0C57BD9A9A8E2D
S12373BD5A409F148E32149F168E72F7BD9A76BDBBC1C6F0BD8FF27E989E8E72DDAFE3BD05
S12373DDAA4D8E468B9F148E6A009F168E0C57BD9A663262C6088E0CE2BDC1545D1027FFE5
S12373FD288E72DFAFE3BDAA4D8E468B9F148E6F009F168E0C57BD9A663262C6078E0CE2D0
S123741DBDC1545D1027FF0E8E72E1AFE3BDAA4D8E468B9F148E75009F168E0C57BD9A6639
S123743D3262C6068E0CE2BDC1545D1027FEF48E72E3AFE3BDAA4D8E468B9F148E7A009F15
S123745D168E0C57BD9A663262C60A8E0CE2BDC1545D1027FEDA8E72E5AFE3BDAA4D8E462A
S123747D8B9F14CC8000DD168E0C57BD9A6632627E734D7C1077BD868963FF3BC6F0BD8F80
S121749DF2C63CBD8FF27E8F4BF61078F110792506BD86896F7A3B7F10787F107739EA
S10514160000D0
S12374BB0D1D27040D20270139C633BD8DFE8C00002706C601F7107C398E74DCC6337E8D6B
S12374DBAD327FC627E7E4C64BBDD0135D2608C649BDD0135D2738C606BD8FF26AE426E76B
S12374FBC60ABD96A02005C606BD8FF2C64BBDD0135D2608C649BDD0135D270EBD9514C1D7
S123751B0A27E4C605BD8FD720D6C60ABD97457E8F4B327FBDBBC17F107CC62DE7E42004BB
S123753B6AE4270AC604BD8FF27D107C27F2326139BDBA308E3800BD868941A13939535483
S123755B41545553205245504F52540042414C4C202564003460BD754C108E00148E4F3F2F
S123757BAFA4CE00168E4010AFC48E7559BD9A76BD752DBD754CF60C48E7E28E7567AFE34F
S123759BBDAA4D8E4346AFA48E400BAFC48E0C57BD9A76BD868943AE398E4346AFA48E4076
S12375BB15AFC48E0C57BD9A76BD752DBD754CBD703FBD752D8E18F8BD59ED8E3800BD8614
S11375DB8941A139BD752DBD868960DF3B7E989E9F
S12375EBBD868960E93BF6181FC1012718C1022606BD868940DE397D18462603BD6EE98E46
S10D760B187F7EB869BD4A5B20EDCC
S9030000FC
