S12340003B7F10FD7F141A7F141BF61834F7141C39C110222E4F58491F016E99401E4043BF
S1234020404440484043404C40434043404340504043404340434043404340434043404033
S12340407C111B397C1117397C1118397C1119397C111A392564200054415247455453003E
S1234060484954202564204D4F524500544F204C4947485400465245455A4500414354493E
S1234080564500434C415720465245455A4500535441525453004652454E5A5900C603BD34
S12340A092D0F710FDC60CBDB9BFBDBA3FF610FDC101102700A5C1021027006CF6141BE7C6
S12340C0E28E4054AFE3BDAA4D8E5A409F148E0F039F168E0C57BD9A9A8E5A409F148E0710
S12340E0149F168E4058BD9A9A3263BD86895DE339BDB9CDC604BD92D0C102102700B5C166
S123410003102700A6C10127178E000EBD90C9BD86895D7639BDBB9DC678BD8FF27E989EEC
S12341208E0010BD90C920E78E56DC9F148E5F019F168E4083BD9A668E468B9F148E660C8A
S12341409F168E408FBD9A668E5A409F148E5F159F168E4096BD9A667E40EBC6008E0CE2EE
S1234160BDC1545D2657F6141CF0141B34048E4060AFE3BDAA4D8E56DC9F148E5F019F1688
S12341808E0C57BD9A668E468B9F148E660C9F168E406CBD9A668E5A409F148E50159F162C
S12341A08E4075BD9A6632637E40EB8E0014BD90C97E410F8E0012BD90C97E410F8E5D7B4D
S12341C09F148E5F019F168E4075BD9A668E5A409F148E63119F168E407CBD9A667E40EB43
S12341E0C601F711167D11162721C678BD8FF27D184426F1F61845C1012711C602E7E2C6DA
S123420001BDB40A32617D111626DF39C602E7E2C603BDB40A326120CC327BE762E667E72B
S123422064E668E763E662C10623033265394FEDE458491F016E99423942554263427142E5
S12342407F428D429B4247E663E767E6648E4F6332657E99D0E663E767E6648E4E8B326528
S12342607E99D0E663E767E6648E4EA232657E99D0E663E767E6648E4EC532657E99D0E690
S123428063E767E6648E4EEE32657E99D0E663E767E6648E4F1A32657E99D0E663E767E604
S12342A0648E4F4332657E99D0327BE762E667E764E668E763E662C10723033265394FED90
S12342C0E458491F016E9942C942E742F543034311431F432D433B42D9E663E767E6648E4F
S12342E0515F32657E99D0E663E767E6648E4F6E32657E99D0E663E767E6648E4FB53265D8
S12343007E99D0E663E767E6648E4FFC32657E99D0E663E767E6648E504332657E99D0E614
S123432063E767E6648E508A32657E99D0E663E767E6648E50D132657E99D0E663E767E60D
S1234340648E511832657E99D0327BE762E667E764E668E763E662C10723033265394FED18
S1234360E458491F016E9943694387439543A343B143BF43CD43DB4379E663E767E6648E0A
S12343804F6E32657E99D0E663E767E6648E515F32657E99D0E663E767E6648E51183265D2
S12343A07E99D0E663E767E6648E50D132657E99D0E663E767E6648E508A32657E99D0E657
S12343C063E767E6648E504332657E99D0E663E767E6648E4FFC32657E99D0E663E767E68A
S12343E0648E4FB532657E99D0327BE762E667E764E668E763E662C10723033265394FEDDD
S1234400E458491F016E9944094427443544434451445F446D447B4419E663E767E6648EC0
S1234420538E32657E99D0E663E767E6648E51A632657E99D0E663E767E6648E51ED3265F1
S12344407E99D0E663E767E6648E523132657E99D0E663E767E6648E527832657E99D0E664
S123446063E767E6648E52BC32657E99D0E663E767E6648E530332657E99D0E663E767E663
S1234480648E534732657E99D0327BE762E667E764E668E763E662C10723033265394FEDA6
S12344A0E458491F016E9944A944C744D544E344F144FF450D451B44B9E663E767E6648E7E
S12344C051A632657E99D0E663E767E6648E538E32657E99D0E663E767E6648E53473265F5
S12344E07E99D0E663E767E6648E530332657E99D0E663E767E6648E52BC32657E99D0E6AD
S123450063E767E6648E527832657E99D0E663E767E6648E523132657E99D0E663E767E6D9
S1234520648E51ED32657E99D025642042414C4C205341564500256420534543204C45463B
S1234540540053484F4F54205354414E44555020544152474554530032776F67C602E76867
S12345607E45EDE667C101102601D36F678E4542AFE3BDAA4D32628E468B9F148E40049F26
S1234580168E0C57BD9A76F61117E7615AC108102301176D6110270129F61118E7625AC1BD
S12345A008102300ED6D6210270147F61119E7635AC108102300C36D631027011DF6111AB8
S12345C0E7645AC108102300996D6410270155F6111BE7655AC1081023006F6D6510270102
S12345E02BBDBBC1C606BD8FF26C68E6685AE766BDBA308E3800BD868941CF39BD868949E9
S123460004385D2630CC0028EDE3E6684F1F01BDF95A32621F105D1027FF48E667C1011059
S123462026FF4AF610FFE7E28E4536AFE3BDAA4D32637E4577BD8689495E3834048E45293C
S1234640AFE3BDAA4D32637E4577E6655CF7111BC608E7E2C666E7E2E667BD421932627E74
S123466045E1E6645CF7111AC608E7E2C64DE7E2E666BD421932627E45CFE6635CF7111985
S1234680C608E7E2C634E7E2E665BD421932627E45BDE6625CF71118C608E7E2C61BE7E240
S12346A0E664BD421932627E45ABE6615CF71117C608E7E2C602E7E2E663BD421932627E35
S12346C04599E666C407E766C608E7E2C602E7E2E668BD42A932627E4599C607E468E7E4A2
S12346E0C608E7E2C634E7E2E662BD43E932627E45BDE668CB02C407E7E4C608E7E2C61BEE
S1234700E7E2E662BD448932627E45ABC607E468E7E4C608E7E2C666E7E2E662BD43E93225
S1234720627E45E1E668CB04C407E7E4C608E7E2C64DE7E2E662BD434932627E45CFC601CB
S1234740E7677E46233440327B8E00CBBDCBE46F637E4801C1091023010DC10E1022010292
S1234760C605BD92D0E761C605BD92D0E762E663C403102700B5C101102700FCC1021027E5
S123478001028E5D7B9F14E661CB401F985F1F01C610E0624F3410AAE0EAE0DD168E40961B
S12347A0BD9A76BDBBC1E663C10A102700ABC112102700A5C1181027009FC11C26068E0004
S12347C0CCBDCBE47D18442628CC000CEDE3E6654F1F01BDF95A32621F105D2614F6184557
S12347E0C101102700B3C602E7E2C601BDB40A3261C604BD8FF2E663C11E102700B35CE746
S123480063BDBA218E3800BD868941CF39E663C1041022FF3FC601BD92D0E761C602BD92FB
S1234820D0E762E663C4031026FF4B8E5D7B9F14E661CB401F985F1F03E662CB104F1F0196
S12348401F303410AAE0EAE0DD168E4096BD9A76BDBBC16D631026FF4D8E00CBBDCBE47E7B
S123486047C4C60A7E4762C602BD92D0E761C603BD92D0E7627E476E8E5D7B9F14C640E0A0
S1234880617E478B8E5D7B9F14CB3EE0611F985F1F01E662CB107E4794C602E7E2C603BD37
S12348A0B40A3261C604BD8FF2E663C11E1026FF4D8E00CDBDCBE4BDBA218E3800BD868900
S12348C041CF398E5A409F148E40109F168E4096BD9A76C603E764BDBB9DC604BD8FF2BDFE
S12348E0B9D6BDBB9DC604BD8FF2BDBBABC604BD8FF2BDBB9DC604BD8FF2BDB9D67D18449B
S12349002612F61845C1012712C602E7E2C601BDB40A32616A6426BF7E989EC602E7E2C6E9
S123492003BDB40A326120ECC603BD92D0F74E772709C1012731C102271739C614F7108BC2
S1234940C61CF7108C8E020DC608BD868953763939C614F7108BC61CF7108C8E020FC6081E
S1234960BD868953763939C614F7108BC61CF7108C8E020EC608BD868953763939C603BD52
S123498092D0F74E782709C1012731C102271739C614F7108BC61CF7108C8E0093C608BDE3
S12349A0868953763939C614F7108BC61CF7108C8E0095C608BD868953763939C614F710EF
S12349C08BC61CF7108C8E0094C608BD8689537639390D1D27040D20270139BD86895831A4
S12349E0348E4E797E94EE8E4E797E937E327DE7628E4E79BD937E5D270EE662F511002724
S1234A000EC110236C326339E662F511012631C11022F24FEDE458491F016E994A1E4A052C
S1234A204A9E4ACE4A054AC24A054A054A054AB64A054A054A054A054A054A054A054AAA0D
S1234A40C11022C14FEDE458491F016E994A4F4A054B0A4AFE4A054AF24A054A054A054A6F
S1234A60E64A054A054A054A054A054A054A054ADA4FEDE458491F016E994A7C4A054B4671
S1234A804B3A4A054B2E4A054A054A054B224A054A054A054A054A054A054A054B16C61605
S1234AA0BDC23AC61632637EC24EC611BDC23AC61132637EC24EC635BDC23AC63532637EEE
S1234AC0C24EC636BDC23AC63632637EC24EC622BDC23AC62232637EC24EC611BDC23AC6EC
S1234AE01132637EC2D9C635BDC23AC63532637EC2D9C636BDC23AC63632637EC2D9C6224F
S1234B00BDC23AC62232637EC2D9C616BDC23AC61632637EC2D9C611BDC29BC61132637E48
S1234B20C24EC635BDC29BC63532637EC24EC636BDC29BC63632637EC24EC622BDC29BC631
S1234B402232637EC24EC616BDC29BC61632637EC24EC601BD49EDC602BD49EDC604BD49D2
S1234B60EDC608BD49EDC6107E49EDC606BD8FF2C61FF71101BD4B527F111639327CE762D1
S1234B807C141B53F41101F71101E662BD49EDBD86895119365D2732BD868950C336C608C4
S1234BA0BDB057F6141BF1141C242FC623BD96A0F6141B4FEDE4CC0005EDE3AE62BDF95AB2
S1234BC032621F105D2721326439BD497DC608BDB057F6141BF1141C25D1BDE791F6141CEE
S1234BE0FB1834F7141C20C3C61FF7110132647E4B52327DE7627C141A8E00CDBDCBE4E672
S1234C0062C102102700FA102200D2C101102700E8C619BDC4FCE662BD4011E66253F41103
S1234C2000F71100E662BD49EDBD49288E1102BDAEF58E805AAFE38E1102BDAF04F6141ACF
S1234C408E1102BDAFF3C610BDB0578E1102BDAFD3CC8064EDE38E1107BDAF048E1102AFF0
S1234C60E38E1107BDAF048E110CBDAEF5CC8064EDE38E110CBDAF0432688E1102AFE38E36
S1234C80110CBDAF048E1111BDAEF5CC8064EDE38E1111BDAF048E1102AFE38E1111BDAF84
S1234CA004CC805AEDE38E1111BDAF04F6141A4FED68CC0005EDE3AE6ABDF95A1F10326AFA
S1234CC05D2617C61FF71100BD4B527F11177F11187F11197F111A7F111B326339E662C1CB
S1234CE004270EC1081026FF28C618BDC4FC7E4C16C617BDC4FC7E4C16C615BDC4FC7E4CBA
S1234D0016C616BDC4FC7E4C16327FE7E40D1D27220D20261EF51100263DE6E4F511012680
S1234D201EBD86895FB1345D2625BD86895119365D2603326139BD868950C3363261398E6C
S1234D404E79BD937E5D26D9E6E4BD4B7C20D2BD86895F1F3420D38E4E79BD937E5D27BA4C
S1234D60E6E4BD4BF220BAC6107E4D09C6087E4D09C6047E4D09C6027E4D09C6017E4D0970
S1234D800D1D260139C6128E0CE2BDC1545D26F48E4E797E93B98E4E79BD937E5D260139E9
S1234DA08E4E797E94DE0D1D2601398E4E797E93DA7F1100C61FF71101BD4B52C602BD86FD
S1234DC08967AE345D260EC62BBDC23AC62BBDC24E7F111639C62BBDC23AC62BBDC2D97FB3
S1234DE0111639BDB3C7C6028E0CF2BDC1D0BDBD82F6183CBD8689496438C62BBDC29BC6AE
S1234E002BBDC24EC61EBD8FF2C62BBDC23AC62BBDC2D9C61FF71100BD4B52C602BD8689A6
S1234E2067AE345D273D8E8064AFE38E1111BDAF04CC8087EDE38E1107BDAF04C617BDB03D
S1234E4057C602BD86896796347F11177F11187F11197F111A7F111B32647D11162701394A
S1234E607E41E08E1107BDAEF58E110CBDAEF58E1111BDAEF520AF00004DE34B6B929992FC
S1234E8097212200081665300310FF1807000800003600007E00007E00007C00005C00003E
S1234EA02000180B00A00100FE0100FE0300FF0380FF0700FE0700FF0300FF0300FE030078
S1234EC0FA0500F401180D00680080FF0080FF00E0FF00C0FF01E0FF01C0FF01E0FF03E04E
S1234EE0FE01C0BF00C0EF0180FE00006400180E00100000700180F703C0FB0580FE03A09C
S1234F00FF07C0FE0360BF06A0FF05D07E07E0F600A0FD03C0AD00000A00180D0090000006
S1234F20240100590280B405007D01A06A0BC0DB02007601105403A0540500A902401200B0
S1234F40400400180A0054000008004050004092008024020091000022000080000024002C
S1234F6000000118030005000008000002001817001F00C0FF03F0230738000E1C1E1C8EAE
S1234F807F08C67F38E2F339F7C03BE3AE7B731C33F2087373887BF3C13FE0E31987FF3CC7
S1234FA084FF1C0E3F0C1C000F38C00FE0F307807F01001E001817003F0080FF01E0E00716
S1234FC07880071C001F8C7F1CCEFF1CEEFF3DE6803BE38C3B738E73739E73F38073F3C07D
S1234FE073E3D17BE6FF39C6FF188C7F1C1C000C30000FB08007C0FF01003F001817001A03
S123500000C0BF00D0FF01F8F30F1CA01F0E3F1C867F3C82F319E2E139E6C233F3847373FC
S12350209E63738663F7C273E7E033E6EB31C67F108C7F181C3D0C38000E708107E0BF022B
S123504000B7001817007C0080FF00F0FF03F0C30FFC001E1C7F189EFF38CEFF31E6E0232E
S1235060E78063E3C863E38E63E38E63E38C63E3C063E6F333CCFF218CFF18183C1CF800D1
S123508006F08107C0FF01007E001817003C0040FF00F0E703F8010E78001C187E389CFFC8
S12350A0109EFF70CCE303FEC167EF0867678827661C67EFBA63EE8177CEE7230EFF31088A
S12350C0FF381C3C1C38000E70E207E0FF01007C001817007E00C0FF01F0800678000618AD
S12350E0001C1CFF188CFF31CEFF33EFC563E78167E78067E73C67E73867EE9863EE803353
S1235100DEFF3B9CFF391CFF187C001CF0000FF08303C0FF00007E001817807600A0FE035C
S1235120F0400738000E185E1C0CFF1804FF31C6EB33E68373E7A177E33067E33C67E790CF
S123514067E6A133CEC323CCE7201EFF301C7E38FC021CF8E70FC0FF0580FE01002C0018F5
S123516017003F00C0FF01F0C00730800F1C1E0C8CFF18C2FF19E6E733E38163E39863E354
S1235180B863E3B863E38963E38073E28333C6FF398EFF3C0C7F1C3C801FF8E107E0FF07A6
S12351A080FF00001F00181700110080FF00E0F70078C2071C96038E7F0FCE711ECEC008B2
S12351C067E03CC7E011CFE038CFFC308FFF780F7F3C5E101C3E000C7E001EFC8B0FFCFFDD
S12351E007F8FF03E0FF0180FF008004001816005F00E0FF00E0FF033C80071C0F1EEC3F42
S12352001CE6781C66781C33F01833F03833F838E77838C73F3C870F3C1E001E3E801FFC41
S1235220A21FFCFF0FF8FF07E0FF03C0FF00005F001817001000003D00407F01E0F5036825
S1235240E10778000F38021E9E1F3EEE3F3C663F3C77783C22383E36387C3E303E67303E10
S1235260E61E7ECC4F1F0C811F18C00FF8FC0FF0FF07E0FF01003F001816003E00F0FF0167
S1235280F0FF03F8F0071CC00F0C800F0E871FC70F3EE61F1FE71F3EF73C3E37303E3730F6
S12352A03F37303E66381FE6181FEE8F0F18C70738C007F8F803C0FF00003F00181700900B
S12352C00080FF00C0FF03E0FF0FF0FF1FF8E81F3C003F18003E1C043D1E7F788FFF7886BF
S12352E09F798E8379C483719E03738881393CC73978FF38E0341CF0210F80F70380FF00C6
S12353000044001816803E00C0FF00F0FF01F8FF07FCFF0F7ED10F7E001F1E001E0F7C38A8
S12353200FFF3887C739C70733C70333C603338E87198EC7190EFF0D1E3C0E78000FF0FF0E
S123534001C0FF01803E001817007E00C0FF03F0FF07F89F0FF8010CFC40187CF9193FBCDD
S1235360333E06733E063E1F0E363E0E221E0F771E7E331EFE3B3EFC3C3C200E78000FF0CB
S1235380430BE0D703407F01005E000004001816003F00C0FF00F0C707F80007F838067C44
S12353A0FC1D3EC6193E87191F033B3F033B1F033B1FCF3B1FFE393EFE191FFC387E381CA5
S11553C07C000CFC000EF8C307F0FF03E0FF03001F0090
S106141A000000CB
S12353D27F111D7F141D7F111E7F111FF61835F7111C397F111D7F141D7F111E7F111FF6AD
S12353F21835F7111C39C601F7111F397F111F394A45545300434F4D504C455445440034D7
S1235412408E1120BDAEF5F6111EC102102700CD1022008FC101102700B38E8078AFE38E18
S12354321120BDAF043262CE071CBDB9CD30C4BD90C9BDBB9DC606BD8FF23342118307288C
S123545226E8BDBA21C60CBDB9BFBDBA3F8E4F3F9F148E40059F168E5402BD9A768E56DC0B
S12354729F148E400E9F168E5407BD9A768E1120BDAE438E4F3F9F148E40199F168E0C5753
S1235492BD9A76BD86895DE339BDB9CD8E0726BD90C9BD86895D7639BDBB9DC678BD8FF267
S12354B27E989EC1032716C1041026FF6D8E8073AFE38E1120BDAF0432627E54398E806E5D
S12354D2AFE38E1120BDAF0432627E54398E8064AFE38E1120BDAF0432627E54398E80690D
S12354F2AFE38E1120BDAF0432627E543931204A4554002564204A45545300256420464FE5
S12355125220424F4E555300494E43524541534500524554494E41205343414E00327E8EEC
S12355321120BDAEF5BDB9CDC60CBDB9BFBDBA3FF6111EE7E4C601E4E4102601ABE6E4C1D8
S1235552011027026B102402098E8064AFE38E1120BDAF043262F6111DC101102702153422
S1235572048E5505AFE3BDAA4D32638E56DC9F148E40059F168E0C57BD9A76F6111CF01171
S12355921D34048E550DAFE3BDAA4D8E4F3F9F148E400E9F168E0C57BD9A768E1120BDAE22
S12355B2438E4F3F9F148E40199F168E0C57BD9A763263BD86895DE339BDB9CD8E0728BDD2
S12355D290C9BD86895D7639BDBB9DC612BD8FF2BDB9CDC60CBDB9BFBDBA3FF6111EE761EC
S12355F2C601E46110260096E661C101102702001024018F8E8064AFE38E1120BDAF043252
S123561262F6111DC1011027019734048E5505AFE3BDAA4D32638E56DC9F148E40059F1667
S12356328E0C57BD9A76F6111CF0111D34048E550DAFE3BDAA4D8E4F3F9F148E400E9F1687
S12356528E0C57BD9A768E1120BDAE438E4F3F9F148E40199F168E0C57BD9A763263BD8608
S1235672895DE339BDB9CD8E072ABD90C9BD86895D7639BDBB9DC61EBD8FF27E989ECC80EB
S12356923CEDE38E1120BDAF04F6141D8E1120BDAFF38E805AAFE38E1120BDAF048E4F3F2F
S12356B29F148E31059F168E5402BD9A768E468B9F148E5D059F168E551ABD9A768E4F3F5A
S12356D29F148E400F9F168E5523BD9A768E1120BDAE438E56DC9F148E40199F168E0C572F
S12356F2BD9A7632647E5670CC803CEDE38E1120BDAF04F6141D8E1120BDAFF38E805AAF0A
S1235712E38E1120BDAF048E4F3F9F148E31059F168E5402BD9A768E468B9F148E5D059FC7
S1235732168E551ABD9A768E4F3F9F148E400F9F168E5523BD9A768E1120BDAE438E56DC12
S12357529F148E40199F168E0C57BD9A7632647E55C5C10210270078C103102700A28E80DB
S123577278AFE38E1120BDAF043262F6111DC1011026FDEB34048E54FFAFE3BDAA4D32634E
S12357927E557DC1022739C10327558E8078AFE38E1120BDAF043262F6111DC1011026FE4B
S12357B26934048E54FFAFE3BDAA4D32637E5628CC8069EDE38E1120BDAF0432627E5568F7
S12357D28E806EAFE38E1120BDAF0432627E56138E806EAFE38E1120BDAF0432627E5568EF
S12357F2CC8073EDE38E1120BDAF0432627E5613CC8069EDE38E1120BDAF0432627E56132B
S1235812CC8073EDE38E1120BDAF0432627E55687F111D7C111EF6111EC104232EC614BDBB
S1235832B057C614F7108BC61CF7108C8E009BC604BD8689537639C620BD96A0F6111CC1EC
S1235852952205CB0FF7111C7EE7D04F58491F016E99586658345877587E58855870C613BF
S1235872BDB05720BDC610BDB05720B6C611BDB05720AFC612BDB05720A80D1D27090D20AC
S123589226057D111F270139BD86895119365D272BBD868950C336C60AF7108BC61CF7103E
S12358B28C8E0202C608BD8689537639C606E7E2C6FFE7E2C614BDC82D326239BD86896967
S12358D2CF365D26D27C141D7C111DC60BBDB057F6111DF1111C2505BD582220BAC61FBD4D
S10758F296A020B3A5
S104141D00CA
S12358F63939346010AE663420ACE1221B3384BDB9CD30C4BD90C9BDBB9DC606BD8FF233F0
S123591642344010ACE124E735E0C603BD92D0F711292709C1012731C102271739C614F78C
S1235936108BC61CF7108C8E00BDC608BD868953763939C614F7108BC61CF7108C8E00BFEF
S1235956C608BD868953763939C614F7108BC61CF7108C8E00BEC608BD8689537639394C0A
S123597649474854204D2054204C00544F00414456414E434520424F4E55532058004C494B
S1235996474854204352594F434C415700352054494D455320544F004C49474854204558B7
S12359B65452412042414C4C00C603BD92D0F7112ABDBA21BD5920CC0054EDE38E0048BD40
S12359D658F8BDBA21C60CBDB9BFBDBA3F8E5AB2BDBA0E3262F6112AC1012759C1021027E8
S12359F600858E56DC9F148E40059F168E5975BD9A768E468B9F148E40109F168E5981BD1A
S1235A169A768E4F3F9F148E40199F168E5984BD9A76BD86895DE339BDB9CD8E0054BD9002
S1235A36C9BD86895D7639BDBB9DBD5920C63CBD8FF27E989E8E56DC9F148E40059F168EE3
S1235A565975BD9A768E468B9F148E40109F168E5981BD9A768E4F3F9F148E40199F168EBE
S1235A765994BD9A7620AB8E56DC9F148E40059F168E5975BD9A768E468B9F148E400E9FD6
S1235A96168E59A3BD9A768E4F3F9F148E40199F168E59AEBD9A767E5A28C603BD92D0F7D3
S1235AB611292709C1012731C102271739C614F7108BC61CF7108C8E00C8C608BD868953EA
S1235AD6763939C614F7108BC61CF7108C8E00C7C608BD868953763939C614F7108BC61C6B
S1235AF6F7108C8E00C6C608BD868953763939325800335800345800355800434C4157205B
S1235B164C4954202020202020202020202020434C4157204C495400BDBA21BD5AB0CC00A7
S1235B3646EDE38E003ABD58F8BD5AB0BDBA21C60CBDB9BFBDBA3F8E5AB2BDBA0E3262F69B
S1235B561128C1041027007DC1051027006AC103275A8E5B05AFE3BDAA4D32628E5A409F3E
S1235B76148E160A9F168E0C57BD9A768E5A409F148E6A0A9F168E0C57BD9A768E468B9F88
S1235B96148E401C9F168E5B11BD9A76BD86895DE339BDB9CD8E0046BD90C9BD86895D7660
S1235BB639BDBB9DC678BD8FF27E989E8E5B08AFE3BDAA4D326220A48E5B0EAFE3BDAA4D81
S1235BD632627E5B728E5B0BAFE3BDAA4D32627E5B72C602BD92D0F711292707C101102774
S1235BF6006539C614F7108BC61CF7108C8E01F8C608BD8689537639C606BD8FF2C614F70E
S1235C16108BC61CF7108C8E01F8C608BD8689537639C606BD8FF2C614F7108BC61CF710D8
S1235C368C8E01F8C608BD8689537639C606BD8FF2C614F7108BC61CF7108C8E01F8C6085B
S1235C56BD868953763939C614F7108BC61CF7108C8E01F9C608BD8689537639C606BD8F06
S1235C76F2C614F7108BC61CF7108C8E01F9C608BD8689537639C606BD8FF2C614F7108B9D
S1235C96C61CF7108C8E01F9C608BD8689537639C606BD8FF2C614F7108BC61CF7108C8ED8
S1235CB601F9C608BD8689537639390D1D27090D2026057D0C46260139C6128E0CE2BDC148
S1235CD6545D26F4F61126263D7D1125102700657D1127102600BC5D102600E1C62DBDC273
S1235CF63AC62DBDC24EC62EBDC23AC62EBDC2D9C62FBDC23AC62FBDC24E7F1125C601F7B4
S1235D1611267F1127397D112727BEC62DBDC23AC62DBDC2D9C62EBDC23AC62EBDC24EC67D
S1235D362FBDC23AC62FBDC2D9C601F711257F1126F71127395D26317D11271027FF79C624
S1235D562DBDC23AC62DBDC2D9C62EBDC23AC62EBDC24EC62FBDC23AC62FBDC24EC601F75C
S1235D7611257F11267F112739C62DBDC23AC62DBDC24EC62EBDC23AC62EBDC24EC62FBDA1
S1235D96C23AC62FBDC2D97F11257F1126C601F7112739C62DBDC23AC62DBDC2D9C62EBD5E
S1235DB6C23AC62EBDC2D9C62FBDC23AC62FBDC24EC601F71125F711267F112739C62DBD4F
S1235DD6C23AC62DBDC24EC62EBDC23AC62EBDC2D9C62FBDC23AC62FBDC2D97F1125C6017D
S1235DF6F71126F71127390D1D27090D2026057D0C46260139C6128E0CE2BDC1545D26F475
S1235E16F61126263D7D1125102700657D1127102600BC5D102600E1C62DBDC23AC62DBD12
S1235E36C24EC62EBDC23AC62EBDC24EC62FBDC23AC62FBDC2D97F1125C601F711277F1194
S1235E5626397D112727BEC62DBDC23AC62DBDC2D9C62EBDC23AC62EBDC2D9C62FBDC23A91
S1235E76C62FBDC24EC601F71125F711267F1127395D26317D11271027FF79C62DBDC23A70
S1235E96C62DBDC24EC62EBDC23AC62EBDC2D9C62FBDC23AC62FBDC24E7F1125C601F7113B
S1235EB6267F112739C62DBDC23AC62DBDC2D9C62EBDC23AC62EBDC24EC62FBDC23AC62FAA
S1235ED6BDC24EC601F711257F11267F112739C62DBDC23AC62DBDC24EC62EBDC23AC62E34
S1235EF6BDC2D9C62FBDC23AC62FBDC2D97F1125C601F71126F7112739C62DBDC23AC62D84
S1235F16BDC2D9C62EBDC23AC62EBDC24EC62FBDC23AC62FBDC2D9C601F711257F1126F705
S1235F361127397F11297F112AC601F711257F11267F1127F71128C62DBDC23AC62DBDC2B4
S1235F56D9C62EBDC23AC62EBDC24EC62FBDC23AC62F7EC24E7E5F39C62DBDC29BC62DBDDC
S1235F76C24EC62EBDC29BC62EBDC24EC62FBDC29BC62FBDC24EF61128C1042338C105271B
S1235F963FC678BD8FF2C62DBDC23AC62DBDC24EC62EBDC23AC62EBDC24EC62FBDC23AC6DE
S1235FB62FBDC24E7F11257F11267F1127C60EBDB0577EE7D05CF71128C61EBD96A020C198
S1235FD6BD868966E93620B90D1D273B0D2026377D11272633C62FBDC29BC62FBDC24EC6C2
S1235FF61EBD8FF2C62FBDC23AC62FBDC2D9C601F71127C60BBDB0577D112527057D112612
S1236016260EC61D7E96A039BD5BE8C6087EB0577E5F6E0D1D273B0D2026377D11262633A1
S1236036C62EBDC29BC62EBDC24EC61EBD8FF2C62EBDC23AC62EBDC2D9C601F71126C60B96
S1236056BDB0577D112527057D1127260EC61D7E96A039BD5BE8C6087EB0577E5F6E0D1D02
S1236076273B0D2026377D11252633C62DBDC29BC62DBDC24EC61EBD8FF2C62DBDC23AC6AD
S12360962DBDC2D9C601F71125C60BBDB0577D112627057D1127260EC61D7E96A039BD5B27
S10C60B6E8C6087EB0577E5F6E57
S12360BF3939C60139393939393939393939C60139C601393939393939393939C601393949
S12360DF3939C60139393939393939C601393939C60139393939C601393939393939393929
S12360FF393939393939393939393939393939C6013939393939398E1A40BF1602BD86897E
S123611F4F5039398E2E00BF1602BD86895672387C1603BD86896222387C1603BD86894F1F
S123613F50397C1603BDBBFC7C16037ECD828E0800BF1602BD8689493D38398E2DC0BF16C8
S123615F02BD8689493D387C1603BD86897D4C3C7C16037EEC528E2CC0BF1602BD607439BE
S123617F8E2C80BF16027EDB228E2BC0BF1602BD53F87C1603BD86894FBB377C1603BD869E
S123619F896022357C1603BD868969F3347C16037EBE758E2B00BF1602BD5DFD7C1603BD6C
S12361BF86896F32377C1603BD8689778B377C1603BD8689481F357C1603BD8689515F35F8
S12361DF7C1603BD86895CC2357C1603BD86894C8438398E2A40BF1602BD86895DA9387CF1
S12361FF1603BD86895B5F3A398E2A00BF1602BD86895B84367C1603BD86896417367C1656
S123621F03BD86894811347C1603BD8689506A347C1603BD86895887347C1603BD86894992
S123623FB238398E2980BF1602BD8689513F387C1603BD86895C1D38398E28C0BF1602BD21
S123625F8689602338398E2880BF16027EDBFC8E2800BF1602BD86894BAD397C1603BD8654
S123627F895435397C1603BD8D307C1603BDB7D17C1603BDCA1E7C16037ECAC58E2740BF37
S123629F16027EE8588E2700BF1602BD86896EDD35398E2640BF16027EECA38E25C0BF16D4
S12362BF02BD92E07C1603BDC02E7C16037ECD898E2540BF1602BD86894D7237398E24C0AA
S12362DFBF1602BD868977DD377C1603BD86894840357C1603BD8689517A357C1603BD8616
S12362FF895CD8357C1603BD86897F03357C1603BD86894CF8387C1603BD868950F2387C3D
S123631F16037EE9648E2480BF1602BD86895B02387C1603BD8689608E38398E2400BF16C5
S123633F02BD868967BE3A398E23C0BF1602BD86897A48377C1603BD8689421C3A7C160339
S123635F7EB28D8E2340BF16027ED69C8E2300BF16027EDF518E2240BF1602BD4D6C398E6B
S123637F2200BF1602BD86894F50397C1603BD8689770B3C7C1603BDB0D17C1603BDB0F673
S123639F7C1603BDB11B7C1603BDB1407C1603BDB1657C1603BDB1877C1603BDB2FD7C16F4
S12363BF03BDB3D07C16037EB4078E2100BF1602BD86894CF8387C1603BD86895B513A7C18
S12363DF16037E9DE38E20C0BF1602BD86897A943C5D2702C601398E2040BF16027E982E99
S12363FF8E1FC0BF1602BD8689699A34398E1F80BF1602BD8689571337398E1F40BF16028C
S123641FBD868950F538398E1F00BF16027ECBC38E1EC0BF1602BD4DA67C1603BD868944AF
S123643FF0377C1603BD86894991377C1603BD86897840377C1603BD868945E0367C1603FF
S123645FBD86894C97367C1603BD8689515B367C1603BD86895BC3367C1603BD8689645621
S123647F367C1603BD86896AB4367C1603BD86896F78367C1603BD86894863357C1603BDFD
S123649F86895195357C1603BD86895D27357C1603BD86897F6F357C1603BD8689485234E2
S12364BF7C1603BD868950E5347C1603BD868958D8347C1603BD86895FE7347C1603BD8677
S12364DF89669E347C1603BD8689536E397C16037ECB468E1E40BF16027EB2E28E1DC0BF5A
S12364FF1602BD8689666335398E1D80BF1602BD86895FC8387C1603BD86896F31387C1666
S123651F03BD86894038397C1603BD86894F50397C1603BD8689536F397C16037EC01A8EC8
S123653F1D40BF1602BD86896E5D377C1603BD86897F54357C1603BD868960BF387C160380
S123655FBD86896F43387C1603BD86895431397C16037EEB4E8E1D00BF1602BD86895A153A
S123657F387C1603BD86896240387C16037ECE418E1CC0BF16027EDD6E8E1C80BF1602BD9B
S123659F588C7C1603BD868969E536398E1C00BF1602BD86894B8338398E1BC0BF16027E8C
S12365BFD5908E1B40BF1602BD86896A8936398E1B00BF16027EECDA8E0340BF16027EEC8F
S12365DFDA8E1AC0BF1602BD86895B17385D2702C601398E1A80BF16027EE0918E1980BFAF
S12365FF1602BD4D7B398E1900BF1602BD868960D6387C1603BD86897BAE3C7C1603BD9A38
S123661FD17C16037EAEF28E1880BF1602BD4D967C1603BD53FE7C1603BD86894507377C33
S123663F1603BD868949AE377C1603BD86894CEC377C1603BD868977CD377C1603BD868917
S123665F468F367C1603BD868949A6367C1603BD8689514B367C1603BD86895B63367C166C
S123667F03BD868963F6367C1603BD86896491367C1603BD868966A7367C1603BD8689699F
S123669FD5367C1603BD86896F68367C1603BD86896028357C1603BD868947F0347C1603DF
S12366BFBD8689509D347C1603BD86895854347C1603BD86895FCD347C1603BD868966E31E
S12366DF347C1603BD8689698C347C1603BD868971E9387C1603BD86894BAD397C1603BD02
S12366FF8689770B3C7C1603BD8D747C1603BD91537C1603BD96337C1603BDB0D17C16039E
S123671FBDB0F67C1603BDB11B7C1603BDB1407C1603BDB1657C1603BDD1627C1603BDD97A
S123673F067C1603BDE1677C1603BDE7477C1603BDEB4E7C16037EF3F18E1840BF1602BD1A
S123675F86896F4438398E0DC0BF1602BD86896F4438398E1800BF1602BD868942273539A1
S123677F8E1780BF1602BD8689690938398E1740BF1602BD8689703037398E1680BF1602B8
S123679FBD8689601638398E1640BF1602BD6029398E15C0BF1602BD4D807C1603BD8689C4
S12367BF44DA377C1603BD8689497B377C1603BD8689783A377C1603BD868945CA367C1683
S12367DF03BD86895135367C1603BD86895BB1367C1603BD86896444367C1603BD86896A5E
S12367FF9E367C1603BD86896F52367C1603BD86895D0D357C1603BD8689483C347C16039C
S123681FBD868950D3347C1603BD868958C6347C1603BD86895FE1347C1603BD8689668C57
S123683F347C16037E9AF68E1540BF1602BD868962F134398E1500BF1602BD86895A24381C
S123685F398E14C0BF1602BD868942103A7C16037EB2838E13C0BF1602BD4D67398E134040
S123687FBF1602BD86894B7938398E1300BF1602BD868949DF387C1603BD868956CD387C41
S123689F1603BD8689690A387C1603BD86896F45387C1603BD86895EF2397C1603BDB7CB3A
S12368BF7C1603BDB81D7C16037ECB478E12C0BF16027ECBAC8E1280BF1602BD8689423404
S12368DF35398E1240BF1602BD8689490A385D2601397C1603BD86895C79385D27F3C601B0
S12368FF398E1200BF1602BD86894B7E38398E11C0BF1602BD868960E6387C1603BD8689DE
S123691F6F39387C1603BD8689720A387C1603BD8689765C3C398E1180BF1602BD86897184
S123693F74387C1603BD86897B143C398E1100BF1602BD86896F0736398E1040BF1602BD8A
S123695F8689699634398E0FC0BF16027EEC428E0F80BF16027EDB3B8E0F40BF1602BD4080
S123697F017C1603BD53E57C1603BD58F77C1603BD86894471377C1603BD868945F7377C2B
S123699F1603BD86894FB8377C1603BD8689503F377C1603BD86897B4A377C1603BD8689CC
S12369BF4582367C1603BD868949D1367C1603BD86895173367C1603BD86895BD9367C164E
S12369DF03BD8689646C367C1603BD86896491367C1603BD868966A7367C1603BD868968C6
S12369FF63367C1603BD86896B80367C1603BD86896F89367C1603BD8689401C357C160343
S1236A1FBD8689448F357C1603BD8689449D357C1603BD86894CA4357C1603BD86895D04C0
S1236A3F357C1603BD86896018357C1603BD86896EBC357C1603BD86897FC0357C1603BD09
S1236A5F86894868347C1603BD868950FB347C1603BD86895924347C1603BD86895FF83442
S1236A7F7C1603BD86896766347C1603BD868967CD347C1603BD8689698C347C1603BD8666
S1236A9F895AFE387C1603BD86896F35387C1603BD868971D8387C1603BD86894031397C14
S1236ABF1603BDD7B87C1603BDE0AA7C1603BDE5467C1603BDE82B7C16037EF1278E0F00C8
S1236ADFBF16027EDCAB8E0EC0BF1602BD868950EA36398E0E80BF1602BD86895EB9395DA3
S1236AFF2702C601398E0E40BF1602BD4DB17C1603BD53FE7C1603BD5F6B7C1603BD8689BC
S1236B1F4005377C1603BD86894604377C1603BD86894F7E377C1603BD86895706377C1608
S1236B3F03BD86896F28377C1603BD86897B55377C1603BD868946DE367C1603BD86894AC7
S1236B5FBE367C1603BD86895195367C1603BD86895265367C1603BD86895BF4367C1603D8
S1236B7FBD86896AC8367C1603BD86896FB5367C1603BD8689402E357C1603BD8689601826
S1236B9F357C1603BD86894001347C1603BD86894889347C1603BD868958FF347C1603BD23
S1236BBF868960E4347C1603BD8689698C347C1603BD8689513F387C1603BD86895B033881
S1236BDF7C1603BD86895DF0387C1603BD86896214387C1603BD868971DF387C1603BD86DC
S1236BFF894075397C1603BD86894BAD397C1603BD86894F50397C1603BD86895327397CA0
S1236C1F1603BD868977103C7C1603BD91537C1603BDAEBD7C1603BDB0CA7C1603BDB0EFF9
S1236C3F7C1603BDB1147C1603BDB1397C1603BDB15E7C1603BDD1627C1603BDD8BD7C167F
S1236C5F03BDE3177C1603BDE5467C1603BDE7E27C1603BDEBC47C16037EF45B8E0E00BF01
S1236C7F1602BD8689681B387C1603BD86896F44387C1603BDB27C7C1603BDB2FD7C1603F0
S1236C9F7EC01A8E0D80BF1602BD86894BC737398E0D40BF1602BD49D2398E0C80BF160285
S1236CBFBD8689458536398E0C40BF1602BD8689600F38398E0C00BF1602BD86895CF0388E
S1236CDF398E0BC0BF1602BD5FDE398E0B00BF1602BD8689683835398E0AC0BF1602BD8639
S1236CFF894B7438398E0A80BF1602BD86897B4037398E0A40BF1602BD86894A7037398E9F
S1236D1F09C0BF1602BD4D76398E0980BF16027EB2EB8E0940BF1602BD868977BD37398E42
S1236D3F08C0BF1602BD8689609238398E0840BF1602BD86897B68377C1603BD868943EE3D
S1236D5F357C1603BD86897F27357C1603BD86894BDF387C1603BD8689513F387C1603BD61
S1236D7F86895C75387C1603BD86895FD2387C1603BD8689621B387C1603BD8689682338D4
S1236D9F7C1603BD86894F50397C1603BD8D747C1603BDA9EA7C1603BDB4077C16037EC07F
S1236DBF108E0780BF16027EE6B18E0300BF1602BD5CC17C1603BD86896F32377C1603BDD2
S1236DDF86897759377C1603BD86894840357C1603BD8689517A357C1603BD86895CEE351B
S1236DFF7C1603BD86894C5938398E06C0BF1602BD5CC17C1603BD86896F48377C1603BD53
S1236E1F86897759377C1603BD86894840357C1603BD8689517A357C1603BD86895CEE35DA
S1236E3F7C1603BD86894001387C1603BD86894C00387C1603BD86894C59387C1603BD865A
S1236E5F8950E7387C1603BD868974BB387C1603BD86897D2E3C7C1603BD86895B723A3966
S1236E7F8E0640BF1602BD86895E7538398E05C0BF1602BD86895E1138398E04C0BF160235
S1236E9FBD5DFD7C1603BD86896F48377C1603BD8689778B377C1603BD8689481F357C1640
S1236EBF03BD8689515F357C1603BD86895CC2357C1603BD86894001387C1603BD86894BC1
S1236EDFED387C1603BD86894C84387C1603BD868950E7387C1603BD86895FE8387C1603BC
S1236EFFBD868974BB387C1603BD86897D3D3C7C1603BD86895B803A398E0480BF1602BD90
S1236F1F86895D5B38398E0440BF1602BD868977DD377C1603BD8689481F357C1603BD8641
S1236F3F89515F357C1603BD86895CAC357C1603BD86894CF838398E0400BF1602BD8689D7
S1236F5F43C5357C1603BD8689493D387C1603BD86897D5B3C7C16037EEC528E0380BF1606
S1236F7F02BD53FE7C1603BD86894FC1377C1603BD8689602835398E02C0BF1602BD8689EC
S1236F9F7D283C7C1603BD8689770A3C398E0280BF1602BD868948F138398E0240BF160292
S1236FBFBD86895DF7387C16037E9D7E8E0200BF1602BD86895D0D38398E01C0BF1602BD37
S1236FDF86895DB838398E0140BF1602BD8689492F387C1603BD86895110387C1603BD8605
S1236FFF895B0D387C1603BD8689531D397C16037EF3EE8E0100BF1602BD86894C55387CC0
S123701F1603BD86894E7F387C1603BD8689585F387C1603BD86895FD2387C1603BD8689E8
S123703F6EE5387C1603BD8689719D387C1603BD868971D2387C1603BD86894BA7397C1601
S123705F03BD8689541B397C1603BD868977063C7C1603BD900B7C1603BD90E37C1603BD78
S123707F913E7C1603BD92F77C1603BD9AD77C1603BDA9FB7C1603BDAEA87C1603BDB0C11F
S123709F7C1603BDB0E67C1603BDB10B7C1603BDB1307C1603BDB1557C1603BDB1847C1633
S12370BF03BDB1927C1603BDB2F47C1603BDB3D07C1603BDB3D97C16037ED1628E0080BFEC
S12370DF1602BD4D967C1603BD86894507377C1603BD868949AE377C1603BD8689468F36F6
S12370FF7C1603BD8689514B367C1603BD86895B63367C1603BD868963F6367C1603BD861D
S123711F8969D5367C1603BD86896F68367C1603BD868944A7357C1603BD86894CA8357C5A
S123713F1603BD8689567C357C1603BD86897EC9357C1603BD868947F0347C1603BD868936
S123715F509D347C1603BD86895854347C1603BD86895FCD347C1603BD868966E3347C1679
S123717F03BDB0D17C1603BDB0F67C1603BDB11B7C1603BDB1407C1603BDB1657C1603BD98
S123719FB1877C1603BDB27C7C1603BDB2FD7C1603BDB3D07C16037EB407CC0040FD16024F
S11471BFBD8689601B3839CC0000FD1602BD4D71396E
S9030000FC
