S12340003ABDB1797E66D944495645525445522054455354003460327EBDBA30CE468B8EE1
S12340200014EF84108E00168E4002AFA48E4007BD9A76C6058E3800BD868941FD39C619C9
S12340408E3800BD868941FD39F6109D4FEDE458491F01AE8940CBAFE3BDAA4D8E0014EFB6
S123406084CC001BEDA48E0C57BD9A9A326435607EBBC18E03DBBDCBE4F6109D260BBDB11F
S12340806CC601F7109D7E4015C101270139BDB1797F109D7E4015F6109D27045AF7109D9D
S12340A07E40157D109D2605C601F7109D7E4015C63CBD8FF2BD401520F67F109D7E40152F
S12340C053544152540053544F500040C040C640BA9299401540B04001407340A340979258
S10F40E0999299929940070240CF000089
S12340ECBDB2697F109F7E66D9454C455641544F5220544553540053575F454C4556415461
S123410C4F525F484F4C440058004F0053575F454C455641544F525F494E44455800327ECF
S123412CBDBA308E468B9F148E40029F168E40F5BD9A76C6058E3800BD868941FD39C619EE
S123414C8E3800BD868941FD398E4103AFE3BDAA4D8E468B9F148E400D9F168E0C57BD9A44
S123416C76C63BBDD01332625D1027007E8E4114AFE3BDAA4D32628E468B9F148E140D9F55
S123418C168E0C57BD9A768E4118AFE3BDAA4D8E468B9F148E40149F168E0C57BD9A76C6E1
S12341AC36BDD01332625D264F8E4116AFE3BDAA4D32628E468B9F148E14149F168E0C5786
S12341CCBD9A76F6109E4FEDE458491F01AE8942A2AFE3BDAA4D8E468B9F14CC001BDD1630
S12341EC8E0C57BD9A9A32647EBBC18E4116AFE3BDAA4D32627E41838E4114AFE3BDAA4D13
S123420C326220AF7D109F260139BDB2697E412A7D109F260139BDB2697E412A327F8E034F
S123422CDBBDCBE4F6109EE7E4C10127202511C1022608BDB269E6E4F7109E32617E412AC5
S123424CBDB20FC602F7109E32617E412ABDB1E8C602F7109E32617E412AF6109E27045A7F
S123426CF7109E7E412AF6109EC10122045CF7109E7E412AC63CBD8FF2BD412A20F67F101D
S123428C9EC601F7109F7E412A555000444F574E0053544F500042954298429D428A929970
S11C42AC412A428040EC42284272426692999299929940F50242A8000034
S12342C5F610A0C1012301395CF710A039F610A027045AF710A039327F8E03DBBDCBE4F64A
S12342E510A0E7E4C1012723250FC1022608BDB2CFE6E4F710A0326139F60CA1C1012703FF
S1234305BDB297C602F710A0326139F60CA1C10227F1BDB2B2C602F710A020ECBDB2CF7E7D
S123432566D9C6038E0CF2BDC1D0C602F710A0C615BDD0135D2705C601F70CA1C614BDD04D
S1234345135D2705C602F70CA139434C41572054455354004E4F4E45004C45465400524996
S1234365474854004C494D49545300327EBDBA308E468B9F148E40029F168E434FBD9A76A4
S1234385C6058E3800BD868941FD39C6198E3800BD868941FD39F60CA12752C10110270043
S12343A565C10227548E468B9F148E540D9F168E0C57BD9A768E468B9F148E2C0D9F168EC1
S12343C54369BD9A76F610A04FEDE458491F01AE894427AFE3BDAA4D8E468B9F14CC001BF3
S12343E5DD168E0C57BD9A9A32647EBBC18E4359AFE3BDAA4D326220AC8E4363AFE3BDAA52
S12344054D32627E43AA8E435EAFE3BDAA4D32627E43AAC63CBD8FF2BD437020F653544F17
S12344255000435E436344224327929943704418432142DC42C542D2929992999299434F22
S108444502442D0000FB
S123444ACC0000FD10A839BE10A86F067F10D47F10D58E49C8BF10D67F10D8C6FFF710D992
S123446A393440BD4451BE10A8EE02FF10DBC6FFF710D9AEC4270A5C3345AEC426F9F7102B
S123448AD935C0C607F710E139BE10A8CC0000ED046F0639327EBE10A8E6064F58491F014F
S12344AAAE89866B326239BD4451C60EF710D97F10E2C608F710E3393420BE10A810AE0207
S12344CABD4451C601F710D8BE10A8E7068E49B6BF10D6108C6C5D27108E6C31BF10E4C601
S12344EA35F710D97F10E635A08E6C2BBF10E4C66EF710D97F10E635A0F610E8C101230442
S123450A5AF710E8397C10E839F610E75CC1082704F710E7397F10E739BD4451C603F71029
S123452AD939BD44518E49B6BF10D6C60DF710D939CC0000FD10E97F10EB39FC10E9C300BE
S123454A021083072B2303CC0000FD10E97F10EB39BE10E9260A8E072ABF10E97F10EB39DA
S123456A301EBF10E97F10EB39F610EB5CC10223047F10EB39F710EB39CC0000FD10F0C6D0
S123458A01F710F27F10F339327E7D10F327067C10F4326239F610F24FEDE4F310F0841F00
S12345AAFD10F0326239327E7D10F327067A10F4326239F610F24FEDE440508200F310F05E
S12345CA841FFD10F03262397D10F3260DF610F2C140270A5858F710F2397F10F339C6011F
S12345EAF710F239F610F32705C101270E39C601F710F3E69F10F0F710F439F610F4E79F2C
S123460A10F07F10F339C602F70021BD44517F0D707F10F539C602F70021BD44518E496578
S123462ABF10D6C64FF710D939F610F65CC10823097F10F6BE10A86F0639F710F6BE10A830
S123464A6F0639BD44517F10F639327DBE10A8E606E762CBE4C107236DE6628E83E03AE6D4
S123466A84F710D4E662C1102749C1142745C1152741C116273DC1172739C1192735C11A41
S123468A2731C11B272DC1282729C1292725C12A2721C12B271DC12C2719C12D2715C12E6C
S12346AA2711C82F4FEDE4C3FFFF1F894F5959C4012002C601F810F74FC3FFFF1F894F5926
S12346CA59C4013263395F326339327DC603F710F8BE10A8E6064F1F01E6898410E761F12F
S12346EA71A4271FC602E7E42004E662E7E45AE762E6E44F1F01E661E18971A126ECE6E40C
S123470AF710F8326339327DBD44512005BE10A86C06BD46545D27F58E49B6BF10D6BE10E0
S123472AA8E6064F1F01E68983E0F710D4C62FF710D9E6898410E761C602E7E4E661F1715F
S123474AA42606201EE662E7E4E6E45AE762E6E44F1F01E661E18971A126EAE6E4F710F8E8
S123476A326339C603F710F820F6C603F700217F10F7BD4710C620F710F9C680F710FBC610
S123478A10F710FA39C601F710F7BD4710C610F710F9C628F710FBC604F710FA39F610D444
S12347AAF110F92707F010FAF710D439F610FBF710D439F610D4F110FB2507F610F9F71098
S12347CAD439FB10FAF710D439F610F85CC10323047F10F839F710F839F610FCC107220478
S12347EA5CF710FC39F610FCC10123045AF710FC39BD4451C63FF710D98E4937BF10D6396F
S123480ABD4451CC0000FD10D639BD4451C60FF710D98E4F88BF10D639BD4451C664F71083
S123482AD939346010BE10A8EE226F246F25AEC4270A5F33425CAEC426F9E725642535E0F9
S123484ACC0000FD10A87F002139BD4451C601F710D8BE10A8E706C61CF710D98E49B6BF87
S123486A10D67F10E7C606F710E87EC074327FE7E4BD9514E8E44FC3FFFF1F894F5959C436
S123488A0132613932701F40C30010C3FFF0FD10EE7C10ED26037C10EC5FBD8FF220F200F3
S12348AA8E48A9AFE3BDAA4D3262398E48A9AFE3BDAA4D326239342E332E340047434336CC
S12348CA38303920562573008E48C0AFE38E48C6AFE3BDAA4D3264394445560033300031CF
S12348EA0053595354454D2025732E25732D2573008E48E2AFE38E48E6AFE38E48E9AFE399
S123490A8E48EBAFE3BDAA4D32683944454D4F4C4954494F4E2054494D45008E4915AFE3EE
S123492ABDAA4D32623925316425316400327EE7E4C607E4E45C3404646164616461E6613A
S123494A5C34048E4930AFE3BDAA4D32663944256400462564002564256400327EC107234E
S123496A38C1472223CBF8E7E4C607E4E45C3404646164616461E6615C34048E4960AFE3FA
S123498ABDAA4D3264326239CBB934048E495CAFE3BDAA4D32633262395C34048E4958AFE9
S12349AAE3BDAA4D326332623925640034048E49B3AFE3BDAA4D326339253032580034047A
S12349CA8E49C3AFE3BDAA4D32633930310025452020205225732E257300BD86894EEB3803
S12349EA8E49D5AFE38E48E9AFE38E49D8AFE3BDAA4D326639327D200AC610E706BD465461
S1234A0A5D26188E03D4BDCBE4BE10A8E606C11023E75AE706BD46545D27E8C603F710F80D
S1234A2ABE10A8E6064F1F01E6898410E761F171A4271FC602E7E42004E662E7E45AE76293
S1234A4AE6E44F1F01E661E18971A126ECE6E4F710F8326339327D8E03D5BDCBE4C61EBD81
S1234A6A8FF2BE10A8E6065CC12E2302C62FE706BD46545D27E1C603F710F8BE10A8E6060D
S1234A8A4F1F01E6898410E761F171A4271FC602E7E42004E662E7E45AE762E6E44F1F015C
S1234AAAE661E18971A126ECE6E4F710F8326339327D8E03D4BDCBE4BE10A8E60627035A16
S1234ACAE706BD46545D27EAC603F710F8BE10A8E6064F1F01E6898410E761F171A4271FE6
S1234AEAC602E7E42004E662E7E45AE762E6E44F1F01E661E18971A126ECE6E4F710F83232
S1234B0A6339327D8E03D5BDCBE4BE10A8E6065CC10E2302C60FE706BD46545D27E6C6036C
S1234B2AF710F8BE10A8E6064F1F01E6898410E761F171A4271FC602E7E42004E662E7E436
S1234B4A5AE762E6E44F1F01E661E18971A126ECE6E4F710F83263394F1F01F610F61F98DD
S1234B6A5F308B7ECBE4C655F710E6BE10A8E606BE10E4AD98045D2615BE10A8E606AE9F34
S1234B8A10E4AD848E03DBBDCBE47C10E639BE10A8E606BE10E4AD98028E03DCBDCBE47CAF
S1234BAA10E6393460327E10BE10A8EE228E03D4BDCBE46A26E626C1FF2704326235E0EEEF
S1234BCA432721AEC4271D6FE4E6E42002E7E433425CE761AEC426F56D612708E6E4E72602
S1234BEA326235E06F26326235E03460327FFE10A810AE428E03D5BDCBE4E6465CE7E4E7B9
S1234C0A4610AE232714AEA427105F31225CAEA426F9E1E42304326135E06F46326135E02B
S1234C2A8E03D4BDCBE4BE10A8E606F110D827045AE70639F610D9E70639BDC074BD4C2A86
S1234C4A39BD4C2A7C10E6398E03D5BDCBE4BE10A86C06E606F110D92305F610D8E7063983
S1234C6ABDC074BD4C5239BD4C527C10E639BE10A8E6045AC1FF2603E6055AE7048E03D463
S1234C8ABDCBE4C66C7E8F09BE10A8E6045CE105250D6F048E03D5BDCBE4C66C7E8F09E70A
S1234CAA048E03D5BDCBE4C66C7E8F09C66C7E8F093440CE103911831069241530C4BD8678
S1234CCA89653638C60CBD8FF2334C1183106925EBBD868961053BC678BD8FF2C616BDD06C
S1234CEA13CE10395D27CFC602BDC9F0C63CBD8FF2CE103920C053455420256400F610F623
S1234D0AE7E28E4D00AFE3BDAA4D8E43469F148E40099F1632638E0C577E9A763440CE43AC
S1234D2A46DF14CE5003DF1635407E9A769F144F8A40DD168E0C577E9A763420327DBE1004
S1234D4AA810AE02E60458E7624F584930ABAD94C60A8E4346BD4D376C62E6624FEDE45890
S1234D6A4930ABAD94C6168E468BBD4D37326335207EBBC13440327FFE10A86F44200BE6C1
S1234D8AE45CE744BDBA30BD4D44C6F0BD8FF2E644E7E4E6455AE1E422E56F4420E6504121
S1234DAA474520256400BE10A8E606C10F230A5AE706BD868967CF3C39F70CA8F73FBEBD37
S1234DCABA3F8E3800BD868941A139BE10A8E606E7E28E4DA8AFE3BDAA4DC6108E4346BD81
S1234DEA4D3732637EBBC13440CE4346DF14CE4002DF1635407E9A76454D5054592042419A
S1234E0A4C4C532054455354008E4E02BD4DF17EBBC1495251204C4F4144205445535400DA
S1234E2A495251204C4F4144203D20256C642525008E4E1CBD4DF1BE10ECAFE38E4E2AAF88
S1234E4AE3BDAA4DC6168E468BBD4D3732647EBBC14449502053572E2054455354005725F0
S1234E6A6400494E004F5554003440327CF63FE7E7E48E4E5BBD4DF1C63CE4E45454BD8641
S1234E8A894EB538C60A8E4346BD4D37C60DE7618E0008AF62200464E4E66134048E4E6827
S1234EAAAFE3BDAA4D8E468B9F14EC651F985F1F03CA12DD168E0C57BD9A7632638E4E6F96
S1234ECA6DE426038E4E6C3410BDAA4D8E468B9F141F30CA19DD168E0C57BD9A766C63EC5A
S1234EEA64C30010ED643262E661C11526A9326435407EBBC1C61EBD8FF2BDBA30BD4E7350
S1234F0A20F35343484544554C45522054455354005343484544554C455320504552205357
S1234F2A45432E203D20256C6400505245535320454E54455220544F20524550454154006C
S1234F4A8E4F0CBD4DF1BE10ECAFE38E4F1BAFE3BDAA4DC60A8E468BBD4D378E468B9F1453
S1234F6A8E40149F168E4F34BD9A7632647EBBC1434F4C20256400524F5720256400344082
S1234F8A327CE761C107222A5C34048E4F7AAFE3BDAA4DE664585858E765CE000032631FA8
S1234FAA30EB62BDC2D933411183000826F1326435C0CBF934048E4F81AFE3BDAA4DE66472
S1234FCACBF8E7663263E661CB38E7E4E663BDC2D9E663CB08E763E1E426F3326435C03267
S1234FEA7FCC0000FD10ECBDBA30BDBBC16FE48E488EC670BD8DAD6CE4E6E4C11026F0C6D4
S123500A1EBD8FF2C670BD8F097810ED7910EC32613934208E503210BE000CE622BD8DADA8
S123502ABD86897C7B3C35A0BDC0B3C62ABD8FF2BDC074C612BD8FF220EEBE10A8E606BDFC
S123504AC23ABD4C2A39BE10A8E606BDC23ABD4C5239BD4451C606F710D9C608F710FCC696
S123506A1F7ED2F6C61F7ED2B4327FBE10A8E606E7E4C606BD8FF2F610D454543404F6102C
S123508AF84F1F01E68971A1E7E2E662BDC82DC60632637E8FF2327FBE10A8E606E7E47D9C
S12350AA0D32261DC606BD8FF2F610D4E7E2F610F84F1F01E68971A1E7E2E662BDC8F0320D
S12350CA6232613925632E2025730025642E202573003460327DFE10A810AE428E43469F08
S12350EA148E08049F16AEA4BD9A9AAE232736E646E7624FEDE45849308BAE84E602C404FB
S123510A262AAE84AFE3E6645C34048E50D5AFE3BDAA4D32658E43469F148E080E9F168E4E
S123512A0C57BD9A9A326335607EBBC1AE843410E684E7E28E50CEAFE3BDAA4D326520D5C2
S123514A3440BE10A8AE9802BD4DF1FE10D62717BE10A8E606ADC48E43469F148E04149F10
S123516A168E0C57BD9A9A35407EBBC1327FF610D453E7E4F710D4BE10A8E6065CF710D59C
S123518A6DE42608C606BD8FF2BDCB23BD514A3261394445562025642E20257300434F5554
S12351AA4E542025642F256400484F4C4420256400534F4C20256400434F554E5445442045
S12351CA2564004D495353494E47202564004C4956452F4C4F434B532025642F25640045F4
S12351EA4A45435420414C4C00454A454354203100454E41424C45204C4F434B00444953F6
S123520A41424C45204C4F434B003440327DBE10A8E606E762860C3D1F01338910391183CD
S123522A0000102700FDAE4A102700F7AE84AFE3E66434048E519CAFE3BDAA4DC6028E4663
S123524A8BBD4D37E642E7E2E644E7E28E51A7AFE3BDAA4D8E468B9F148E04079F163269C9
S123526A8E0C57BD9A9AE646E7E28E51B3AFE3BDAA4D8E468B9F148E040D9F168E0C57BD5D
S123528A9A9AAE4AE6045C34048E51BBAFE3BDAA4DCE468BDF148E04139F168E0C57BD9A42
S12352AA9AF61069E7E28E51C2AFE3BDAA4DDF14CE4007DF1632698E0C57BD9A9AF6106A3D
S12352CAE7E28E51CDAFE3BDAA4DCE468BDF148E400D9F168E0C57BD9A9AF6106EE7E2F6CE
S12352EA106BE7E28E51D8AFE3BDAA4DDF14CE4013DF168E0C57BD9A9A3267F610D48E5122
S123530AFBC10227118E5207C103270A8E51E9C10127038E51F3CE4346DF14CE401CDF16BE
S123532ABD9A76326335407EBBC1F610D45CC104270CF710D48E03DABDCBE47E52147F103B
S123534AD48E03DABDCBE47E52143460327BFE10A8E646860C3D1F0230A910396F63E6467D
S123536A860C3D1F0233A910396F642013E662E763C604BD8FF26C6430C4E664C108272349
S123538AE644E762E16327063440ACE12729E664C10726D9BDBA30BD5214E644E763C604B1
S12353AABD8FF2C608BDD0135D2705C602BDC9F030C4FE10A820A78E03DABDCBE4BDBA307D
S12353CABD5214E644E76320A84D454D4F525920454449544F52203A202570005354455055
S12353EA203A20305825580045444954203A2025303258003440BDBA30BE10F0AFE38E5355
S123540AD3AFE3BDAA4D8E468B9F148E40039F168E0C57BD9A76CE00003264FC10F030CBB4
S123542AE684E7E28E49C3AFE3BDAA4D8E468B9F141F3058493440E3E1584958493440E378
S123544AE11F985FCA08DD168E0C57BD9A9A334132631183000826C3F610F2E7E28E53E68A
S123546AAFE3BDAA4D8E468B9F148E011A9F168E0C57BD9A9A32637D10F3260BBDBBC1C641
S123548A06BD8FF27E5400BDBBC1C602BD8FF2F610F4E7E28E53F2AFE3BDAA4D8E468B9FCF
S12354AA148E7F1A9F168E0C57BD9A66C604BD8FF232637E540050524553532053544152EA
S12354CA5420544F20434F4E4649524D0050524553532045534341504520544F2043414E66
S12354EA43454C003460327CFE10A8305910AE02E6064FEDE4584910AE2330ABAE84AF62DD
S123550AF610E1E7E28E49B3AFE3BDAA4DCE00148E4346AFC4108E00168E0101AFA48E0C60
S123552A57BD9A9A8E4346AFC48E7F01AFA48E0C57BD9A66AEF805BD4DF18E468BAFC48E76
S123554A4012AFA48E54C0BD9A768E468BAFC4CE4018EFA48E54D7BD9A76326735607EBBB1
S123556AC13440CE4346DF14CE7F14DF1635407E9A663440327EBE10A8E606BDC29BBD51A7
S123558A4ABE10A8E6064FEDE45849CE49F530CBBDA9B88E0C57326235407E556B414C4C5A
S12355AA204F464600414C4C204F4E004252494748544E455353202564003440327FBD5177
S12355CA4ABE10A8E606274BC10627514F5849CE563330CBBDA9B88E0C57BD556BBE10A81C
S12355EAE6065AF73FF7F63FF7E7E4C61FBDD2F6F610FCE7E28E55B6AFE3BDAA4DC61D8EAE
S123560A4346BD4D37F610FCE7E2E664BDD336326535C08E55A7BD556B6FE420CE8E55AF71
S123562ABD556BC61FE7E420C2534F554E44204F4E00534F554E44204F464600327FBE1004
S123564AA8E606E7E4BD514ABD4D07F610D4C1FF2618E6E4F110D52703BD4B628E5633BD94
S123566A556BE6E4F710D53261398E563CBD556BE6E4F710D5326139504C4159494E472E99
S123568A2E2E008E5682BD556BBE10A8E606BD4B62C60C7E8FF225644D530054494D4500C8
S12356AA2564252500505752003460327EBD514AF610D4E7E28E56A0AFE3BDAA4DCE4346B0
S12356CADF148E010A9F168E0C57BD9A9ABE10A8E6064F1F013263F610D4E18983E0102755
S12356EA0069F610F85C86193D34048E56AAAFE3BDAA4DCE4346DF148E7F0A9F168E0C57EA
S123570ABD9A66F610F84F1F02FE10A8E6464F1F013263E6A971A1E18984102719E6464F10
S123572AEDE45849CE467330CBBDA9B88E0C57326235607E556B8E468B9F14CE640ADF16AE
S123574A8E56AFBD9A66FE10A820D28E468B9F14CE230ADF168E56A5BD9A9A7E56EC53496B
S123576A4E474C4520535749544348004F50544F00494E41435449564500414354495645B2
S123578A004F50454E00434C4F5345440025732D2573003440327DBE10A8E606E7628E57FF
S12357AA68BD4D26BE10A8E606AD9F10D68E43469F14CE2209DF168E0C57BD9A9ABE10A89F
S12357CAE6064FEDE45849CE441630CBBDA9B88E468B9F14CE3209DF168E0C57BD9A9AE6F5
S12357EA62BDCFEF5D2645E662BDD013CE57845D2603CE577BE662BDD0018E57905D26036E
S123580A8E578B341034408E5797AFE3BDAA4DCE468BDF148E44139F168E0C57BD9A76BDE9
S123582A868966833C326935407EBBC18E468B9F14CE7413DF168E5776BD9A7620A934405B
S123584A327DFE10A8E646E7E4BDD001E761C602BD8FF2E646BDD001E762E16127F0E6467A
S123586AE1E42708E7E4E662E76120E28E03DABDCBE4E646CBFBC10122046D6226E8BDBAC4
S123588A30BD579DC604BD8FF220DB535749544348204C4556454C5300BD868966833C8EDA
S12358AA5895BD4D267EBBC153574954434820454447455300BD868966833C8E58B2BD4DD6
S12358CA267EBBC1BD8689661B3CC606BD8FF220F3BD868966473CC606BD8FF220F3BDBAAB
S12358EA30BDBBC1C63CBD8FF28E3FFDC6B4E7847F18F57F18F67F18F76F847EBF85BD4CDD
S123590A2ABD868963E03C39BD4C52BD868963E03C3925642E004E4F0059455300BE10A831
S123592AE6065C34048E591CAFE3BDAA4D8E43469F148E01099F168E0C57BD9A9ABE10A821
S123594AE606BD868964543C8E43469F148E0F099F168E0C57BD9A9A8E43469F148E7F09A6
S123596A9F16BE10A8E606BD868963BA3C32638E59235D26038E5920BD9A66C601BD8FF2EF
S123598ABD868963F43CBD86895E77397EBBC1C62ABD8FF2BDBA30BD592720F35052455367
S12359AA45545300505245535320454E54455220544F20494E5354414C4C003460BD4451E2
S12359CABD868963B73C5AF710D9C60CBDB9BFBDBA3FCE00148E4346AFC4108E00168E01F1
S12359EA01AFA48E59A6BD9A9A8E468BAFC48E401BAFA48E59AEBD9A76BD868963E03C35D7
S1235A0AE0BD86897BB53C39BD86897BD03C394155544F204255524E2D494E008E43469F91
S1235A2A148E40029F168E5A19BD9A76BD86897C543C7EBBC1BD8689566238395FBD8689FF
S1235A4A573A3839C601BD8689573A38398E102DBD868959ED3839C605BD8FD78E102DBDDD
S1235A6A868959ED3820F05FBD868958953839BD8689564C3839F60C475AC1FF270AF70C7C
S1235A8A47BD86894EF73939F616065A2602C604F71606F70C47BD86894EF73939327FF649
S1235AAA1606E7E4F60C47E1E4270D5CF70C47BD86894EF739326139E6E45C7F0C47C10436
S1235ACA2302C601F71606BD86894EF739326139BD86894ECD397EBBC13440CE160730C436
S1235AEABDAEF58E6DF7AFE330C4BDAF04334532621183161B25E7C601F716067F0C473592
S1235B0AC03460327CBDBA30BDBBC1BD888610BE10EC1F2058495849ED6258495849E362A9
S1235B2AEDE458495849E3E4CEF95C30CB3420BDF96BBF10EC326635E0BDB9CDBDBA3FAEDB
S1235B4A9F10A8AD980439BE10A82708AE84AD98147E5B4339BE10A8270DAE84AD9808BEF2
S1235B6A10A827037E5B4339BE10A82708AE84AD98127E5B4339BE10A82708AE84AD981031
S1235B8A7E5B4339327FBE10A82727AE84AD980EBD5B436FE4C605BDD0015D2715C602BD83
S1235BAA8FF26CE4E6E4C110271AC605BDD0015D26EB326139AE9F10A8AD980EBD5B43C61E
S1235BCA04BD8FF2C605BDD0015D26E9326139327FBE10A82727AE84AD980CBD5B436FE43E
S1235BEAC606BDD0015D2715C602BD8FF26CE4E6E4C110271AC606BDD0015D26EB326139DE
S1235C0AAE9F10A8AD980CBD5B43C604BD8FF2C606BDD0015D26E932613953544F50504550
S1235C2A440052554E4E494E47003440327DBE10A8E606BE10E4AD9804E7624FC3FFFF1FF9
S1235C4A894F5959C401F710E6BD5B43E662203EBD5B43BE10A8E6064F5849CE542030CB0F
S1235C6ABDA9B8C60C8E468BBD4D37E662C10127508E5C24BD556BE662F710E6C608BD8F2B
S1235C8AF2BE10A8E606BE10E4AD9804E762F110E627E4BE10E48C6C2B26B55D26D9BD5B48
S1235CAA43BE10A8E6064F5849CE51AF30CBBDA9B8C60C8E468BBD4D378E5C24BD556B203D
S1235CCAB68E5C2CBD556B20AE3440BDB9CDF610EB2719BE10E9331F4F1F011E03308B1E45
S1235CEA03BD908FBDBA3935407EBB9DBE10E9BD90C935407EBB9DC6057EBC033440BDBAB1
S1235D0A30CE3800BD92A8E7C011833A0026F5BDBBC1C60ABD8FF220E5C66CBD8F09BDBA6E
S1235D2A178E5D67C66C7EB0994F4C4420444953504C41590050414745205445585400411B
S1235D4A46544552205452414E534954494F4E00495320434F4D504C4554454400346032BA
S1235D6A7EBDBA30CE4F3F8E0014EF84108E00168E400AAFA48E5D33BD9A768E0014EF84A0
S1235D8A8E4015AFA48E5D3FBD9A76BDBBC1C612BD8FF2BDBA308E0014EF848E400AAFA492
S1235DAA8E5D49BD9A768E0014EF848E4015AFA48E5D5ABD9A76BE10A8E6064FEDE4584954
S1235DCA1F01AE896CF7BDBA0EBDBBC1C63CBD8FF2BD5B437E8F4B3440327EBE10A8E606C4
S1235DEA860C3D1F013389103911830000271BAE4A27178E03DABDCBE4F610D4C101271CDF
S1235E0A240C30C4BD8689653638326235C0C1022716C10326F46A46326235C030C4BD86DA
S1235E2A8964E338326235C06C46326235C03420327EBDC074F610E7C10510220094C10752
S1235E4A22274FEDE458491F016E995E575EBB5EA85ECE5EC05E9A5E8C5E7E5E678E00468E
S1235E6A10BE10A8E626BDA160F610E8BD8FF2F610E720CA8E004610BE10A8E626BDA208F4
S1235E8A20E78E004610BE10A8E626BDA2BD20D98E004610BE10A8E626BDA0E320CB8EC192
S1235EAACA10BE10A8E626BDA3FDC60ABD8FF220B88EC2D920EB8E004610BE10A8E626BDDE
S1235ECAA53920A58E004610BE10A8E626BDA49420976FE2BE10A8E606BD9F9BBDC2D9C637
S1235EEA01E7E2BE10A8E606BD9F9BBDC2D93262F610E77E5E48327DC66FBD92D0E7E4277F
S1235F0AF7C602BD92D0E761C60CBD92D0E7626D61270EE6E4BD96A0E662CB02BD8FF220E0
S1235F2AD7E6E4BD974520F0BD98567EC2F33440327EBE10A8E6064FEDE458491F01EE894D
S1235F4A866BC64130C4BD98E87D0018260EF610E2C119233BC63030C4BD98E87C0018F670
S1235F6A0018CBFCC10A2309C606F710E3326235C04F58491F016E995F845FAA5FAA5FAAE9
S1235F8A5FB35FB35FBC5FBC5FC55FC55FA15FA1C61AF710E220BEC608F710E3326235C069
S1235FAAC614F710E3326235C0C60FF710E3326235C0C60CF710E3326235C0C60AF710E33F
S1235FCA326235C0BD4C2A7F10E27E5F38BD4C527F10E27E5F383420327FF610E2E7E44F89
S1235FEA1F02F610E34F1F01CC00143410A3E1340610ACE12406E6E45CF710E2BD5F388E80
S123600A03DA326135207ECBE4F610E227045AF710E2BD5F388E03DA7ECBE4464F4E5420E7
S123602A256400252A73003460327CBE10A8E6065C34048E6025AFE3BDAA4DCE4346DF142C
S123604ACC0001DD168E0C57BD9A9ABE10A8E6064FED635849CE56BB30CBBDA9B88E4346DF
S123606A9F14CE7F01DF168E0C57BD9A66C6078E3800BD868941FD39BE10A8E6064FED6397
S123608A58491F01EE89866BBD5F383263D61AC107223DF610E24F1F0130896BEF3410F625
S12360AA10E3E7E28E602DAFE3BDAA4DDF148E40109F168E0C57BD9A76C601F7000BF610A2
S12360CAE2E7673265C1132336326435607EBBC1F610E24F1F0130896BEF3410F610E3E71B
S12360EAE28E602DAFE3BDAA4DDF14CE4012DF168E0C57BD9A763265326435607EBBC1F6D7
S123610A10E3E7634F1F01E6624F1F021E02308B1E0230896BEF3410E66534048E602DAF6E
S123612AE3BDAA4DDF14CE401ADF168E0C57BD9A763265326435607EBBC1C66FBD8DFE8C27
S123614A0000270139BD4BF48E66F3C66F7E8DADC66FBD8DFE8C0000270139BD4BAD8E66ED
S123616AF3C66F7E8DADBD868972503C39BD4451BE10A8AE02BF10DDBD8689723C3C394ECD
S123618A4F5420534554003440327DBE10A8E606E76286053DEDE41F031E03F310DB1E0399
S12361AAAEC4AFE3E6645C34048E50D5AFE3BDAA4DC60A8E4346BD4D37AE4332658C0000BA
S12361CA271EE642C1082723231DBD86895DF63C8E43469F148E40159F168E0C57BD9A7676
S12361EA326335407EBBC1AE8420DF6D84260C8E6189AFE3BDAA4D326220D5BD868959339A
S123620A3820CD3440BE10A8E606BD868968833C3384F610D42706C101271B35C0BD4C2A98
S123622ABE10A8E606BD868968833CBD868968ED3C5D26E920E58E03D4BDCBE4AE42F61066
S123624ADAE1842207E601F710DA20CFE002F710DA20C83440BE10A8E606BD868968833C9D
S123626A3384F610D42706C101271B35C0BD4C52BE10A8E606BD868968833CBD868968ED88
S123628A3C5D26E920E58E03D5BDCBE4AE42F610DAE1012507E684F710DA20CFEB02F71065
S12362AADA20C8BE10A8E606BD868968833CF610D42614AE052738E684F710DAC601F7107A
S12362CAD48E03DB7ECBE4C1012624E69805F110DA2719C6B4F73FFDF610DAE79805AE05D5
S12362EABDB7F27F3FFD8E03D7BDCBE47F10D439BE10A8AE02BD868968693CBD44517F101F
S123630AD4BD8689686D3C5AF710D9C1FF2701398E722EBD868968693C7F10D939BDBBC182
S123632A2005C606BD8FF2F610D4C10126F4BDB9E520EFAE9F10A8AE062709C66CBDB087F1
S123634A5F7E8FF239494E5354414C4C494E47003420C66CBD8F09BDBA30108E4346109F4B
S123636A148E40089F168E634FBD9A76BE10A8E606BD868964543CC61030A4BD4D37BDBBDE
S123638AC1C678BD8FF28E03D7BDCBE4BD868964A63C35207E633D5350454544202564003F
S12363AA454E41424C4500544F47474C450053544550205550005354455020444F574E00D1
S12363CA4255494C44205550004255494C4420444F574E00524F54415445204E4558540084
S12363EA524F5441544520505245562E003440327EBD514ABE10A8E6064FEDE45849CE5573
S123640AAD30CBBDA9B8C60C8E468BBD4D37F610E8E7E28E63A1AFE3BDAA4DCE468BDF1415
S123642A8E30159F168E0C57BD9A763263F610E7C10722254FEDE458491F016E996449647E
S123644A7A64866492649E64AA64B664C36459CE63EAEFE3BDAA4D32628E468B9F14CE5E53
S123646A15DF168E0C57BD9A76326235407E633D8E63AAAFE3BDAA4D326220DDCE63B1EFDC
S123648AE3BDAA4D326220D18E63B8AFE3BDAA4D326220C5CE63C0EFE3BDAA4D326220B986
S12364AA8E63CAAFE3BDAA4D326220ADCE63D3EFE3BDAA4D32627E64638E63DEAFE3BDAA41
S12364CA4D32627E64634E2F4100284641432E2044454641554C5429003440BE10A8E60686
S12364EABD868968833C3384C66CBD8F09BE10A8E6065CBD868968D33CC60A8E4346BD4D6B
S123650A37AE45274AF610D4C1012705E684F710DAE644F110DA2725BDBAAAAE452709F634
S123652A10DABD868968C63C8E43469F148E20159F168E0C57BD9A7635407E633D8E468B3B
S123654A9F148E60159F168E64D4BD9A7620C98E43469F148E20159F168E64D0BD9A76BDB8
S123656ABAAA20D4BDBA30BDBBC1C63CBD8FF20F1E0F1D0F1F0F20CC0000FD10A8BD9E54AF
S123658ABDD15E7F002139BE10A8272DC66CBD8F09AE9F10A8AD9802C601F70021BE10A836
S12365AA8C10AA270B3019BF10A8BD633D7E5B43BD656ECC0000FD10A83920148E03D9BD77
S12365CACBE4C63CBD8FF27A10E1BDBA30BD54EE7D10E126E7C61EBD8FF2BD65917E8F4B05
S12365EA4553434150452050524553534544004348414E47452049474E4F52454400346044
S123660AC66CBD8F09BDBA30CE43468E0014EF84108E00168E400AAFA48E65EABD9A768EBB
S123662A0014EF848E4014AFA48E65F9BD9A76BDBBC18E03D6BDCBE4C678BD8FF235607E3C
S123664A6591534156494E47204E45570041444A5553544D454E542056414C554500346034
S123666AC66CBD8F09BDBA30CE43468E0014EF84108E00168E400AAFA48E664CBD9A768EF8
S123668A0014EF848E4014AFA48E6657BD9A76BDBBC18E03D7BDCBE4C678BD8FF235607E7C
S12366AA6591BD868949FF387E6668BD8689697B387E66687E6668BDB88A7E6668BD8689A7
S12366CA52A5387E66688EB814BDB8F17E6668BE10A827098E03DCBDCBE47E659139C66CC7
S12366EABD8F09BDBA177E66D9C60ABD8FF2C649BDD0135D26037E8F4BC64BBDD0135D271C
S123670AF5BD66D920F0F610D4C10127037E66D9BE10A8E606BD868968833CE69805F1100E
S123672ADA27068E03D6BDCBE47F10D439C601F70021C66EBD8DC2BDD15ABD9856C601BD9F
S123674AC483C63FBDC23AC63FBDC24EBDCB23C6067E8FF23460338410AE66C601BD8FF26A
S123676AC66CBD8F09BE10A827338C10D42427BDBD87FC10A8C30007FD10A81F01EF841022
S123678AAF028E03DBBDCBE4AE9F10A8AD94BD633D35607E5B43C62335607EBBFD7D0021BC
S12367AA260BBD67378E10AABF10A820D0C61FBD8F0920F1BE10A8271A0D1D2608AE84AD57
S12367CA980A7E5B43BD9B37BE10A8AE84AD980A7E5B438E73B6AFE38E73C0BD675E32622B
S12367EA39BE7399BF10A1FC739BFD10A3BE739DBF10A5F6739FF710A70D1D2609FC10A45D
S123680AC30002FD10A48E10A1AFE38E6BD9BD675E3262393420327EBE10A810AE02E606DC
S123682A4FEDE4584910AE2330ABAE84E602C4012616EC03272410AE05271B34201F01BD42
S123684A675E3262326235A034108E6BD9BD675E3262326235A0318420E18E03D6326235ED
S123686A207ECBE462FA929964E36327671062AD625D620D929992999299544F54414C208C
S123688A4541524E494E475300524543454E54204541524E494E47530050455243454E544A
S12368AA2046524545504C4159004156472E2042414C4C2054494D450054494D452F4352C9
S12368CA4544495400544F54414C20504C415953005245504C415920415741524453005058
S12368EA455243454E54205245504C4159530045585452412042414C4C5300504552434508
S123690A4E542045582E2042414C4C0068840510DF689300000068A300000068B40918B7C7
S123692A68C30A18B768CF01187968DB01187D68E902187D68F901188769050218870000AB
S123694A000000524543454E54204C45465420534C4F5400524543454E54204354522E20A3
S123696A534C4F5400524543454E5420524947485420534C4F5400524543454E542034549D
S123698A4820534C4F5400524543454E54205041494420435245442E00524543454E5420F3
S12369AA534552562E20435245442E0068930510DF694D01186B695E01186D696F01186F19
S12369CA6981011871699101187369A3011875000000000047414D455320535441525445B5
S12369EA44004D494E55544553204F4E00544F54414C204652454520504C41595300535051
S1236A0A454349414C204157415244530050455243454E54205350454349414C004D415414
S1236A2A4348204157415244530050455243454E54204D415443480054494C5453004C451C
S1236A4A465420445241494E5300524947485420445241494E530043454E544552204452D7
S1236A6A41494E5300504F5745522055505300534C414D2054494C545300504C554D4220BB
S1236A8A424F422054494C545300464154414C204552524F5253004E4F4E2D464154414C80
S1236AAA204552524F5253004C45465420464C495050455200524947485420464C49505055
S1236ACA45520054524F554748205245534355450043484153452042414C4C53004C4F4381
S1236AEA4B555020312041444452004C4F434B55502031205049442F4C45460069DE01188A
S1236B0A7768CF01187969EC01188B69F701187B68A302187B68DB01187D68E902187D6A6F
S1236B2A0801187F6A1702187F6A270118816A3402188168F901188769050218876A42016C
S1236B4A188F6A480118916A540118936A610118956A6F0118976A790118996A8401189B81
S1236B6A6A9401189D6AA101189F6AB20118A16ABF0118A36ACD0118B36ADB0118B56AE76E
S1236B8A0118A56AF50118A70000000000446B92996191000066D992994C524C2A92999203
S1236BAA999299617792996170000066D992994C524C2A929992999299448D929954EE658D
S1236BCAC466089299929992999299929966684493929950DC000066D9681E4BF44BAD6145
S1236BEA5A6144681E44454D4F4C4954494F4E303132333435363738390044B19299603150
S1236C0A000066D992995FD75FCE60135FE09299464F4E542054455354006C1A026C04002D
S1236C2A0096A097454877C4FCC483C31144C25F32514A5C3466D94B704C714C4B929992CD
S1236C4A999299444953504C41592045464645435453006C4D026C3700004C414D5020453F
S1236C6A464645435453006C64026C3700009299985692995F0066D9929992999299929948
S1236C8A9299929944454646205354524553532054455354006C8E026C7800004854C07467
S1236CAA63F75E3866D945134C524C2A4503450F92994C414D504C49535453006CBC026C15
S1236CCAA60000452392995214535466D95DE14C524C2A53345334929942414C4C204445D2
S1236CEA5649434553006CE3026CCD00005A105A1A5A245A2E5A385A425A565A6A5A745AD4
S1236D0A7E5A885AB25ABC5AF0452C9299514A000066E85D234C524C2A92999299929954AB
S1236D2A52414E532E2045464645435453006D29026D1300009299929992995D0666D992F6
S1236D4A999299929992999299929952414E444F4D2054455354006D55026D3F00005D01C6
S1236D6A92999299000066D9929992999299929992999299464F524345204552524F520055
S1236D8A6D7E026D680000453B92995CD3000066D945734545455B929992999299444D44D2
S1236DAA204652414D452054455354006DA7026D9100004FE992994F4A000066D94FE992C1
S1236DCA9992999299929992994F0C026DBD00005B0B92994E3B000066D95B0B92999299C4
S1236DEA9299929992994E1C026DDA000000012345605AE392995ADA000066D992995AA781
S1236E0A5A8092999299929953434F52452054455354006E12026DFC000045839299929924
S1236E2A53FE66D945EE459245B09299929945D24D454D4F525920454449544F52006E3AE0
S1236E4A026E2400006C246C5D6C716CC66CF06D616D386DB66D8A6C9F6DD36DF06E1D6E9E
S1236E6A480000444556454C4F504D454E54006E6D056E4F0000448D929954EE65C4660807
S1236E8A9299929992999299929966D0464143544F52592041444A555354006E96026E80E0
S1236EAA0000448D929954EE65C466089299929992999299929966C7464143544F525920B3
S1236ECA5245534554006EC2026EAC0000448D929954EE65C46608929992999299929992C2
S1236EEA9966C1434C45415220415544495453006EED026ED70000448D929954EE65C46604
S1236F0A089299929992999299929966BE434C45415220434F494E53006F17026F01000065
S1236F2A448D929954EE65C466089299929992999299929966B5524553455420482E532EE2
S1236F4A542E442E006F40026F2A00005A795A715A575A6166D95A3F5A4E5A469299929965
S1236F6A92995345542054494D452F44415445006F6C026F560000448D929954EE65C466E1
S1236F8A089299929992999299929966AC434C4541522043524544495453006F97026F8165
S1236FAA00005A125A0B5A26000066D99299929992999299929992995A19026FAC00005948
S1236FCAC592995927599966D9635A591259084CB64CB64CB65052452D53455453006FDFD2
S1236FEA026FC9000058E892999299000066D99299929992999299929992995245564F4BEB
S123700A452046524545575043007005026FEF00006EFA6F236F4F6F7A6EA56ED06FE86F64
S123702AA56FC2701400005554494C495449455300703105701B00004D41494E20415544DC
S123704A495453007042026B9769164541524E494E475320415544495453007055026B97F3
S123706A69B65354414E444152442041554449545300706C026B976B0653434F5245204873
S123708A4953542E007083026BAD73CE704E7065707C708F0000424F4F4B4B454550494E11
S12370AA470070A005709600005354414E444152442041444A2E0070B302686E6BB446454D
S12370CA41545552452041444A2E0070C802686E6D8150524943494E472041444A2E00706D
S12370EADC02686E6FB0482E532E542E442E2041444A2E0070F002686E715D70C170D570BB
S123710AE970FE000041444A5553544D454E545300710F05710500004610929958BF58DBF2
S123712A66D992999299929992999299929958B202712200004451929958A358CE66D992AF
S123714A9992999299929992999299589502713F0000461F9299579D584866D992994C52E6
S123716A4C2A929992999299576802715C0000464DCB235646000066D951764C52463346FC
S123718A334633568D534F554E44205445535400718F0271790000225577FF477492995654
S12371AAB3000066D950A04B0C4ABA47A747BD47D3478F929956B3000066D950734A5F497A
S12371CAFF47A747BD47D3534F4C454E4F494420544553540071D10271A50000464C415359
S12371EA48455220544553540071E60271BB0000505C506E55C4000066D992994C524C2ABC
S123720A47EF47E3929947454E2E20494C4C554D494E4154494F4E0072100271FA000047E2
S123722AFBC074557C000066D992995050504492999299929953494E474C45204C414D5015
S123724A205445535400723F0272290000480AC074514A503266D992999299929992999252
S123726A999299414C4C204C414D5053205445535400726D0272570000480AC074514A504B
S123728A1C66D99299929992999299929992994C414D502F464C41534845520072990272A6
S12372AA8300004814C074514A000066D992994C6A4C449299929992994C414D5020524FF6
S12372CA57532F434F4C530072C30272AD0000445192994E734EFF66D99299929992999220
S12372EA99929992994E5B0272D90000929992994E134CBB66D992999299929992999299C7
S123730A92994E020272F600004823BA454DB0000066D992994C524C2A92999299929944D0
S123732A4953504C41592054455354007329027313000071387155717271DF71F3722271DE
S123734A9A7250727C72A6733672D272EF40E542BE4443730C0000544553545300736105D8
S123736A733D00004D4F444946592047414D4500736E06686E71F5737A70AC711B7367704B
S123738A3B6E7900004D41494E204D454E5500738F0173810000482C92994D444D7E66D912
S12373AA92994C924C78929992999299492549E448FB48D20000482C92994D444D7E66D93F
S10F73CA67EB4C924C789299929992993E
S9030000FC
