S1234000347F0DA77F0DA639F60DA72702C601394D555345554D0025642042414C4C2053E4
S1234020415645003135204D494C4C494F4E004A41434B504F54204C4954002564204A41BD
S1234040434B504F5453204D414445005355504552204C49540053484F4F5420256420451E
S12340604E41424C4520535550455200327D203AF60DA510270088C101102700AFC1021040
S12340802700C6BDBBC1C63CBD8FF2F60DA45CE762F70DA4CC0003EDE3E6644F1F01BDF9B4
S12340A05A32621F105D10270072BDBA3FBD868950F539BE0C91BDAE438E468B9F148E32FE
S12340C00D9F168E0C57BD9A768E5A409F148E5F019F168E4010BD9A66F60DA61027FF90D4
S12340E034048E4017AFE3BDAA4D8E468B9F148E321C9F168E0C57BD9A7632637E40838E94
S12341004024AFE3BDAA4D8E4F3F9F148E55159F168E0C57BD9A6632627E4083F60DA55CEE
S1234120C1021022008DF70DA57E40AA8E402FAFE3BDAA4D8E4F3F9F148E5C159F168E0C88
S123414057BD9A6632627E4083F60DA2E7E28E403BAFE3BDAA4D8E468B9F148E55139F16F8
S12341608E0C57BD9A66BD8689648D3632635D271D8E404CAFE3BDAA4D32628E468B9F145E
S12341808E5F1A9F168E0C57BD9A667E4083F60DA24FEDE4CC0005EDE3AE62BDF95A326256
S12341A01F10C0055034048E4056AFE3BDAA4D326320C87F0DA57E40AA346010AE663420F3
S12341C0ACE1221B3384BDB9CD30C4BD90C9BDBB9DC606BD8FF23342344010ACE124E73528
S12341E0E0327FF6183BE7E4270FF70DA6C63CBD8FF27A0DA66AE426F47F0DA67E8F4B32A5
S12342007DF6183FC1012709F6183EC101102600DCC605BD92D0E7627C0DA2F60DA2C401F6
S1234220102600ACE662C104102300CBC630BD8FF2C60AF7108BC61DF7108C8E01FCC60828
S1234240BD8689537639C60CBD8FF2C60AF7108BC61DF7108C8E01FCC608BD86895376397D
S1234260C60CBD8FF2C60AF7108BC61DF7108C8E01FCC608BD8689537639C60CBD8FF2C655
S123428014F7108BC61DF7108C8E0200C608BD8689537639C60CBD8FF2C614F7108BC61D73
S12342A0F7108C8E0200C608BD8689537639C60CBD8FF2C614F7108BC61DF7108C8E0200B9
S12342C0C608BD8689537639C61EBD8FF27E8F4BE662C1041022FF544FEDE458491F016EE3
S12342E09942E343E443CC43B4439C4384C603BD92D0E7627E42184FEDE458491F016E9938
S12343004302436C4354433C4324430CC628F7108BC61DF7108C8E0450C602BD86895376A4
S1234320397E422CC628F7108BC61DF7108C8E0471C602BD86895376397E422CC628F710E4
S12343408BC61DF7108C8E0375C602BD86895376397E422CC628F7108BC61DF7108C8E0349
S123436074C602BD86895376397E422CC628F7108BC61DF7108C8E02D4C602BD868953768C
S1234380397E422CC628F7108BC61DF7108C8E0469C602BD86895376397E422CC628F7108C
S12343A08BC61DF7108C8E0459C602BD86895376397E422CC628F7108BC61DF7108C8E0205
S12343C092C602BD86895376397E422CC628F7108BC61DF7108C8E0166C602BD868953767D
S12343E0397E422CC628F7108BC61DF7108C8E02B3C602BD86895376397E422C3440C62877
S1234400F7108BC61DF7108C8E030CC602BD8689537639CE01EEBDB9CD30C4BD90C9BDBBDB
S12344209DC606BD8FF23342118301FA26E8CE01F8BDB9CD30C4BD90C9BDBB9DC606BD8F7E
S1234440F2335E118301EC26E8C60AF7108B7F108C8E0378C602BD8689537639C63CBD8FDC
S1234460F27E989E34603278AF66E765E66E4FED62AE6FAFE4BDBA21C60CBDB9BFBDBA3FFC
S1234480108E5A40CE001410AFC4CE40088E0016EF848E4010BD9A768E001410AF84AE62AE
S12344A0E6651F985F3410AAE0EAE0CE0016EDC4AEE4BD9A76BD86895DE339BDB9CDAE666F
S12344C0BD90C9BD86895D7639BDBB9DC61E326835607E8FF24A41434B504F54003440C67D
S12344E005BD92D0F70DA3BDBA39BDBA3F8E41FFC65BBDB099F60DA3C10127532530C10298
S12345001027006B8E01ECAFE38E01E2BD41B9CE01EC3262BDB9CD30C4BD90C9BDBB9DC649
S123452006BD8FF2335E118301E026E8201E8E04C4AFE38E04B0BD41B98E44D5AFE3C618E9
S1234540E7E2CB288E04C4BD446432657E989E8E04F6AFE38E04DEBD41B98E44D5AFE3C655
S123456018E7E2CB288E04F6BD4464326520DD8E04D0AFE38E04C6BD41B98E04DCAFE38E51
S123458004D2BD41B98E44D5AFE3C618E7E2CB288E04DCBD4464326720B24D554C544942AC
S12345A0414C4C003420108E04AE34208E0492BD41B98E459AAFE3C618E7E2CB2830A4BD21
S12345C04464C63CBD8FF27E989E342031848E5ABCBDBA0EBDB9CD30A4BD90C9BDBB9DC601
S12345E00635207E8FF28E80A5AFE38E0D9DBDAF04C61DBDB05732627D18442612F61845D1
S1234600C1012715C602E7E2C601BDB40A3261C633BDC4FCC65D7E96A0C602E7E2C603BDCE
S1234620B40A3261C633BDC4FCC65D7E96A0327E8E809BAFE38E0D9DBDAF04C61BBDB057A0
S12346407C0DA232627D18442614F61845C10110270097C602E7E2C601BDB40A3261F60D38
S1234660A24FEDE4CC0005EDE3AE62BDF95A32621F10C10210270063223AC1012756C62E04
S1234680BDC4FCC65BBD96A0F60DA2C102223EC603BD6951F60DA24FEDE4CC0005EDE3AE69
S12346A062BDF95A32621F105D2606BD868964B536326239C103272AC10426C2C632BDC415
S12346C0FCC65BBD96A0F60DA2C10223C2C602BD695120C0C62FBDC4FC20A8C630BDC4FCAD
S12346E020A1C631BDC4FC7E4683C602E7E2C603BDB40A32617E465E327FE7E4BD86895216
S12347001E37C601F70DA7F6183BF70DA68E487BBD92688E8087AFE38E0D9DBDAF04C61727
S1234720BDB0577F0DA47F0DA5BD8689496D36C65ABD96A0BDB179C628BDC4FCC602BDC2EC
S12347409BC602BDC24EC678BD8FF2C602BDC23AC602BDC2D9C60FBDC23AC60FBDC24EC612
S12347600EBDC23AC60EBDC24EC60DBDC23AC60DBDC24EC60BBDC23AC60BBDC24EC602BDF4
S123478092D032625D2648C628F7108BC61DF7108C8E02ACC602BD8689537639C6B4BD8FC6
S12347A0F2E6E4FB106BC104223CBD86895B50388E41E1C65ABDB099BD67EFBD8689722AA0
S12347C038BD868971B93BC602BD67B6326139C628F7108BC61DF7108C8E02AEC602BD86BF
S12347E08953763920B6C605BD86895B503820C07D0DA72715BD868967993B8E487BBD91E7
S1234800CFBD6936BD868964A3367F0DA77F0DA639BD868967993B7D0DA72601398E487BD9
S1234820BD91CFBD868964A3367F0DA77F0DA6BD6936BDE57EBD868956B137390D1D2705D4
S12348407D0DA7260139C626E7E2CB36BD96073261390D1D27057D0DA7260139C6218E008B
S123486004BD8689535F39398E0D9DBDAEF57F0DA27F0DA37F0DA77F0DA6390000055A5CF2
S10C48800026921A00001E00003B
S12348897F0DB57F0DB439F60DB52702C601394352594F0025642042414C4C205341564520
S12348A9003135204D494C4C494F4E004A41434B504F54204C4954002564204A41434B502A
S12348C94F5453204D414445005355504552204C49540053484F4F5420256420454E41429A
S12348E94C4520535550455200327D203AF60DB210270092C101102700B9C102102700D068
S1234909BDBBC1C63CBD8FF2F60DB15CE762F70DB1CC0005EDE3E6644F1F01BDF95A326205
S12349291F105D1027007CBDBA3FBD868950F539BE0C91BDAE438E468B9F148E320D9F168E
S12349498E0C57BD9A768E5A409F148E50019F168E4898BD9A66BD86894904385D1027FF0E
S12349698CBD8689495E3834048E489DAFE3BDAA4D8E468B9F148E321C9F168E0C57BD9A17
S12349897632637E49098E48AAAFE3BDAA4D8E4F3F9F148E55159F168E0C57BD9A663262AB
S12349A97E4909F60DB25CC1031022008DF70DB27E49308E48B5AFE3BDAA4D8E4F3F9F1439
S12349C98E5C159F168E0C57BD9A6632627E4909F60DADE7E28E48C1AFE3BDAA4D8E468B4F
S12349E99F148E55139F168E0C57BD9A66BD8689648D3632635D271D8E48D2AFE3BDAA4D87
S1234A0932628E468B9F148E5F1A9F168E0C57BD9A667E4909F60DAD4FEDE4CC0005EDE338
S1234A29AE62BDF95A32621F10C0055034048E48DCAFE3BDAA4D326320C87F0DB27E49308F
S1234A49346010AE663420ACE1221B3384BDB9CD30C4BD90C9BDBB9DC606BD8FF2334234A7
S1234A694010ACE124E735E0327FC603BD92D0E7E47C0DADF60DADC401102600AFE6E4C1AD
S1234A8901102700FF102500CBC1022615C614F7108BC61DF7108C8E0375E6E4BD86895303
S1234AA97639C61EBD8FF2C60AF7108BC61DF7108C8E0209C608BD8689537639C60CBD8FED
S1234AC9F2C60AF7108BC61DF7108C8E0209C608BD8689537639C60CBD8FF2C60AF7108B58
S1234AE9C61DF7108C8E0209C608BD8689537639C60CBD8FF2C60AF7108BC61DF7108C8E88
S1234B090209C608BD8689537639C60CBD8FF2C614F7108BC61DF7108C8E0208C608BD8646
S1234B2989537639C61EBD8FF27E8F4BE6E4C101102700682536C1021026FF66C614F7109E
S1234B498BC61DF7108C8E0292E6E4BD86895376397E4AABC614F7108BC61DF7108C8E02A8
S1234B69D4C602BD86895376397E4AABC614F7108BC61DF7108C8E02B3C602BD86895376C9
S1234B89397E4AABC614F7108BC61DF7108C8E0374C602BD86895376397E4AABC614F7108B
S1234BA98BC61DF7108C8E0166C602BD86895376397E4AAB327F6FE4C60AF7108BC61DF7A9
S1234BC9108C8E0072C608BD8689537639C61EBD8FF26CE4E6E4C10626DE7E8F4B3440C6F7
S1234BE914F7108BC61DF7108C8E014AC602BD8689537639CE01EEBDB9CD30C4BD90C9BD56
S1234C09BB9DC606BD8FF23342118301FA26E8CE01F8BDB9CD30C4BD90C9BDBB9DC606BD61
S1234C298FF2335E118301EC26E8C60AF7108B7F108C8E0378C602BD8689537639C63CBDEB
S1234C498FF27E989E4352594F505249534F4E0034603278AF66E765E66E4FED62AE6FAF9D
S1234C69E4BDBA21C60CBDB9BFBDBA3F108E5A40CE001410AFC4CE40088E0016EF848E4C4A
S1234C894EBD9A768E001410AF84AE62E6651F985F3410AAE0EAE0CE0016EDC4AEE4BD9A80
S1234CA976BD86895DE339BDB9CDAE66BD90C9BD86895D7639BDBB9DC61E326835607E8FB2
S1234CC9F24A41434B504F54003440C606BD92D0F70DAFBDBA39BDBA3F8E4A71C648BDB08D
S1234CE999F60DAFC1011027007724218E0556AFE38E053CBD4A498E4CCAAFE3C618E7E230
S1234D09CB288E0556BD4C5932657E989EC1021027006FC103272A8E01ECAFE38E01E2BD44
S1234D294A49CE01EC3262BDB9CD30C4BD90C9BDBB9DC606BD8FF2335E118301E026E820E4
S1234D49C98E058AAFE38E0580BD4A498E4CCAAFE3C618E7E2CB288E058ABD4C5932652065
S1234D69A98E057EAFE38E056EBD4A498E4CCAAFE3C618E7E2CB288E057EBD4C5932657E31
S1234D894D138E056CAFE38E0558BD4A498E4CCAAFE3C618E7E2CB288E056CBD4C59326512
S1234DA97E4D13F6183BC104220C863C3DBD8FF27F0DB47E8F4BBD8FD720F5342031848E28
S1234DC95ABCBDBA0EBDB9CD30A4BD90C9BDBB9DC60635207E8FF24D554C544942414C4C23
S1234DE9003440BDBA218E056CAFE38E0558BD4A498E056EBD4DC48E057EAFE38E056EBD9E
S1234E094A498E053CBD4DC4BDBA21CE053C3264C60CBDB9BFBDBA3F8E5A409F148E2708C3
S1234E299F168E4898BD9A768E5A409F148E40189F168E4DE0BD9A76BD86895DE339BDB9BC
S1234E49CD30C4BD90C9BD86895D7639BDBB9DC606BD8FF233421183055826B4C63CBD8FE9
S1234E69F27E989E8E80AAAFE38E0DA8BDAF04C61EBDB05732627D18442612F61845C10120
S1234E892715C602E7E2C601BDB40A3261C633BDC4FCC6617E96A0C602E7E2C603BDB40A3D
S1234EA93261C633BDC4FCC6617E96A0327E8E809BAFE38E0DA8BDAF04C61BBDB0577C0D35
S1234EC9AD32627D18442614F61845C1011027007CC602E7E2C601BDB40A3261F60DAD4F44
S1234EE9EDE4CC0005EDE3AE62BDF95A32621F10C10227522233C1012745C62EBDC4FCC65A
S1234F095FBD96A0C603BD6951F60DAD4FEDE4CC0005EDE3AE62BDF95A32621F105D260615
S1234F29BD868964B536326239C103270BC10426C9C632BDC4FC20C7C631BDC4FC20C0C65C
S1234F492FBDC4FC20B9C630BDC4FC20B2C602E7E2C603BDB40A32617E4EE5BD8689521E25
S1234F69378E4BBDC646BDB099C601F70DB57F0DB17F0DB27F0DB3F70DB48E5108BD9268B5
S1234F89BD8689496D368E809BAFE38E0DA8BDAF04C61BBDB057C65EBD96A0BDB179C628CD
S1234FA9BDC4FCC603BDC29BC603BDC24EC678BD8FF2C603BDC23AC603BDC2D9C60FBDC27B
S1234FC93AC60FBDC24EC60EBDC23AC60EBDC24EC60DBDC23AC60DBDC24EC60BBDC23AC63E
S1234FE90BBDC24EC602BD92D032625D275CC628F7108BC61DF7108C8E0425C602BD868930
S1235009537639C6B4BD8FF2C628F7108BC61DF7108C8E02FFC602BD86895376397F0DB072
S1235029C605BD86895B5038C6B4BD8FF28E4DACC647BDB099BD67EFBD868971B93BBD8610
S123504989722A38C608BD67B639C628F7108BC61DF7108C8E0154C602BD86895376392076
S1235069A27D0DB5260139BD868967993B8E5108BD91CFBD868964A336BD677CC6B4BD8F68
S1235089F27F0DB57F0DB4BD6936BDE57EBD868956B137397D0DB526077F0DB57F0DB439AB
S12350A9BD868967993B8E5108BD91CFBD6936BD868964A336C6068E0CE2BDC1545D26D9FD
S12350C9BD677C7F0DB57F0DB4397D0DB5260139C626E7E2CB3ABD96073261390D1D270594
S12350E97D0DB5260139C6218E0003BD8689535F39398E0DA8BDAEF57F0DAD7F0DB039004B
S110510900055E600026921A00001E0000E2
S1235116F60DC02702C60139F60DC12702C60139442054494D450025642042414C4C2053D2
S1235136415645003135204D494C4C494F4E004A41434B504F54204C495400327E6FE46F58
S123515661BDBA3FBD868950F539BE0C91BDAE438E468B9F148E320D9F168E0C57BD9A7679
S12351768E5A409F148E58019F168E5126BD9A66F60DBF102600636D6127438E513AAFE39E
S1235196BDAA4D8E4F3F9F148E55159F168E0C57BD9A663262BDBBC1C63CBD8FF26CE4CCEE
S12351B60005EDE3E6624F1F01BDF95A32621F105D1026FF8CE661C801E7617E51578E51FB
S12351D645AFE3BDAA4D8E4F3F9F148E5C159F168E0C57BD9A66326220BB34048E512DAF97
S12351F6E3BDAA4D8E468B9F148E321C9F168E0C57BD9A7632637E51AB346010AE66342082
S1235216ACE1221B3384BDB9CD30C4BD90C9BDBB9DC606BD8FF23342344010ACE124E735C1
S1235236E034408E52A4C64ABDB099CE01E2BDB9CD30C4BD90C9BDBB9DC606BD8FF23342D4
S1235256118301EE26E8CE01ECBDB9CD30C4BD90C9BDBB9DC606BD8FF2335E118301E02650
S1235276E8C61EBD8FF27E989E327EF6183CE7E4F6183BE7612711E6E4F70DBFC63CBD8FED
S1235296F27A0DBF6A6126F47F0DBF7E8F4B327FC606BD92D0E7E4F70DC2C101102700C648
S12352B6102500AAC1022615C614F7108BC61DF7108C8E043FE6E4BD8689537639C60AF7E5
S12352D6108BC61DF7108C8E0098C608BD8689537639C60CBD8FF2C60AF7108BC61DF71085
S12352F68C8E0098C608BD8689537639C60CBD8FF2C60AF7108BC61DF7108C8E0098C6086A
S1235316BD8689537639C60CBD8FF2C614F7108BC61DF7108C8E0099C608BD8689537639F0
S1235336C61EBD8FF2F60DC2C10410270067C105274CC1032615C614F7108BC61DF7108CEF
S12353568E0166C602BD86895376397E8F4BC614F7108BC61DF7108C8E02B1C602BD868999
S12353765376397E52D3C614F7108BC61DF7108C8E02B0C602BD86895376397E52D3C61439
S1235396F7108BC61DF7108C8E0440C602BD868953763920B6C614F7108BC61DF7108C8E3D
S12353B60420C602BD86895376397E536153484F4F542053554257415900464F52004445EF
S12353D64D4F2054494D45003460BDBA39BDBA3FCE00148E56DCAFC4108E00168E4005AF83
S12353F6A48E53C3BD9A768E468BAFC48E400EAFA48E53D0BD9A768E5A40AFC48E4018AFCF
S1235416A48E53D4BD9A76BDBBC1C6B4BD8FF27E989E3460327C3384E763E66A4FEDE410E4
S1235436AE6BBDBA21C60CBDB9BFBDBA3F8E5A409F14AEE4E6631F985F3410AAE0EAE0DDA3
S12354561630A4BD9A76BD86895DE339BDB9CD30C4BD90C9BD86895D7639BDBB9DC60632FE
S12354766435607E8FF2342031848E5ABCBDBA0EBDB9CD30A4BD90C9BDBB9DC60635207E07
S12354968FF244454D4F0054494D4500327E6FE4C60AF7108BC61DF7108C8E008CC60CBD99
S12354B68689537639BDB9CDBDBA3F8E5A409F148E40089F168E5498BD9A768E5A409F1440
S12354D68E40189F168E549DBD9A76BDBAAABDBBC18E3800BDB9EEC606E7E2C604BDBBD799
S12354F6C614F7108BC61DF7108C8E009BC604BD86895376396C613261E6E4C1021026FFCD
S12355168F8E04DEBD547CC628F7108BC61DF7108C8E0422E6E4BD8689537639C614F710C2
S12355368BC61DF7108C8E009BC604BD86895376398E04F6AFE38E04DEBD520F32627D18BE
S1235556442614F61845C10110270161E6E43404C601BDB40A32618E0506BD547CC628F723
S1235576108BC61DF7108C8E041BC602BD8689537639C614F7108BC61DF7108C8E009BC6EC
S123559604BD86895376398E051AAFE38E0506BD520F32627D18442614F61845C101102736
S12355B60119C602E7E2C601BDB40A32618E053CBD547CC628F7108BC61DF7108C8E04234A
S12355D6C602BD8689537639C614F7108BC61DF7108C8E009BC604BD86895376398E05568F
S12355F6AFE38E053CBD520F32627D18442614F61845C101102700D1C602E7E2C601BDB485
S12356160A32616F61C60AF7108BC61DF7108C8E008CC60CBD8689537639BDB9CDBDBA3F78
S12356368E5A409F148E40089F168E5498BD9A768E5A409F148E40189F168E549DBD9A76E1
S1235656BDBAAABDBBC18E3800BDB9EEC606E7E2C605BDBBD7C614F7108BC61DF7108C8E8D
S1235676009BC604BD86895376396C623261E661C1031026FF8F7D18442612F61845C10187
S12356962755C602E7E2C601BDB40A3261C628F7108BC61DF7108C8E041DC602BD86895382
S12356B67639C60CBD8FF27F0DBE7E989EE6E43404C603BDB40A32617E556DC602E7E2C6A3
S12356D603BDB40A32617E55C3C602E7E2C603BDB40A32617E5619C602E7E2E662BDB40A60
S12356F6326120A98E809BAFE38E0DB8BDAF04C61BBDB05732627D18442612F61845C101D7
S12357162754C602E7E2C601BDB40A3261C605BD92D0C102272C220EC1012730C62EBDC4D0
S1235736FCC6637E96A0C103270EC10426EEC632BDC4FCC6637E96A0C631BDC4FCC6637E37
S123575696A0C630BDC4FCC6637E96A0C62FBDC4FCC6637E96A0C602E7E2C603BDB40A3253
S12357766120AABD8689721D38BD8689521E37F6183BF70DBFC601F70DBEF70DC1F70DC0C0
S1235796C6058E0CE2BDC1D08E595ABD9268BDB179C632BDC23AC632BDC2D97F1406C662B9
S12357B6BD96F6BD67EFC605BD86895B50388E527FC649BDB099C601BDC9F07F0DC1BD86B8
S12357D689722A38BD868971B93BBD67A5C610BD67B6C628BDC23AC628BDC24EC62CBDC2D5
S12357F63AC62CBDC24EC629BDC23AC629BDC24EC62ABDC23AC62ABDC24EC62BBDC23AC65C
S12358162B7EC24EC6058E0CE2BDC254C664BD96A0C632BDC29BC6327EC24E7C1406F61446
S123583606F10DBD240139C6058E0CE2BDC254C664BD96A0C632BDC29BC6327EC24E7D0DD6
S1235856C02727BD868967993B8E595ABD91CFBD6936BD868964A336C632BDC23AC632BDF0
S1235876C24EC6058E0CE2BDC1D07F0DC07F0DBF397D0DC0260139BD868967993B8E595AA7
S1235896BD91CFBD868964A336C632BDC23AC632BDC24EC6058E0CE2BDC1D0C6B4BD8FF205
S12358B67F0DC0BD6936BDE57EBD868956B137397D0DC0260139C626E7E2C665BD960732AD
S12358D661390D1D270A7D0DBE26127D0DC0260139C6218E0004BD8689535F3939C6228EB0
S12358F600AABD8689535F39397F0DC07F0DC1C6058E0CE2BDC1545D260AC632BDC23AC63E
S1235916327EC24EC632BDC29BC6327EC24E7F1406C604F70DBD8E0DB8BDAEF57F0DB67F7D
S12359360DBEC632BDC23AC632BDC24EF6183AF70DBD2708C6058E0CE27EC1D0C6058E0C19
S1155956E27EC25400000400650026921A00001E00006C
S104140600E1
S1235968F60DDA2702C60139346010AE663420ACE1221B3384BDB9CD30C4BD90C9BDBB9D26
S1235988C606BD8FF23342344010ACE124E735E04855584C45590052454144590031204D59
S12359A8494C4C494F4E003440BDBA21CE058CBDB9CD30C4BD90C9BDBB9DC606BD8FF2330A
S12359C842118305B826E8C60CBDB9BFBDBA3F8E5A409F148E2C089F168E5998BD9A76C6F9
S12359E80A8E0CE2BDC1545D27308E5A409F148E40189F168E599FBD9A76BD86895DE33981
S1235A08BDB9CD8E05B6BD90C9BD86895D7639BDBB9DC63CBD8FF27E989E8E5A409F148E8E
S1235A2840189F168E59A5BD9A7620CE3460327C3384E763E66A4FEDE410AE6BBDBA21C6CC
S1235A480CBDB9BFBDBA3F8E5A409F14AEE4E6631F985F3410AAE0EAE0DD1630A4BD9A764B
S1235A68BD86895DE339BDB9CD30C4BD90C9BD86895D7639BDBB9DC606326435607E8FF2A5
S1235A8825642042414C4C205341564500256400BDBA3FBD868950F539BE0C91BDAE438EC7
S1235AA8468B9F148E621A9F168E0C57BD9A668E5A409F148E32059F168E5998BD9A76BD8B
S1235AC886894904385D274CBD8689495E3834048E5A88AFE3BDAA4D8E468B9F148E581BAA
S1235AE89F168E0C57BD9A663263F60DC4E7E28E5A95AFE3BDAA4D8E5A409F148E010E9F38
S1235B08168E0C57BD9A9ABDBBC1C63CBD8FF232637E5A988E56DC9F148E620E9F168E59F6
S1235B28A5BD9A6620C4C604BD92D0F70DDBBDBA39BDBA3F8E5ECCC659BDB099F60DDBC169
S1235B4802274DC1032734C101271B8E59A5AFE3C618E7E2CB288E05D0BD5A343263C61EC1
S1235B68BD8FF27E989E8E5998AFE3C618E7E2CB288E05E2BD5A34326320E38E5998AFE313
S1235B88C618E7E2CB288E0618BD5A34326320CE8E59A5AFE3C618E7E2CB288E05FEBD5A85
S1235BA834326320B9342031848E5ABCBDBA0EBDB9CD30A4BD90C9BDBB9DC60635207E8F95
S1235BC8F24C454E494E41005354414E44555053005245424F554E4453004F524249545369
S1235BE80052414D50530053554257415900327FBDBA21C614F7108BC61DF7108C8E009BE7
S1235C08C604BD86895376398E5A409F148E40089F168E5BC9BD9A768E5A409F148E40183A
S1235C289F168E5998BD9A76BDBBC1C63CBD8FF26FE46DE410270091E6E4C1011027024B62
S1235C48C102102701A8C1031027012BC104102702188E5A2EBDBA0EBDBA216DE41026009E
S1235C688C8E05D0AFE38E05B8BD59703262C614F7108BC61DF7108C8E009BC604BD868991
S1235C885376398E5A2EBDBA0EBDBA216DE4102600CB8E5A409F148E40089F168E5BD0BD95
S1235CA89A768E5A409F148E40189F168E59A5BD9A76BDBBC1C63CBD8FF2E6E45CC1041085
S1235CC8220097E7E41026FF6FC628F7108BC61DF7108C8E0143C602BD86895376398E5A4A
S1235CE82EBDBA0EBDBA216DE41027FF74E6E4C10110270165C10210270111C10310270022
S1235D0894C1041026FF678E05D0AFE38E05B8BD5970C614F7108BC61DF7108C8E009BE6CB
S1235D2862BD86895376398E5A2EBDBA0EBDBA2132628E5A409F148E40089F168E5BEFBD65
S1235D489A768E5A409F148E40189F168E59A5BD9A76BDBBC1C63CBD8FF27E989EE6E4C1A0
S1235D6801102700E2C102102700CCC1032751C1041026FF2D20BBC628F7108BC61DF7108F
S1235D888C8E026CC602BD86895376398E5A2EBDBA0EBDBA218E0618AFE38E0600BD59704E
S1235DA8C614F7108BC61DF7108C8E009BC604BD86895376398E5A2EBDBA0EBDBA2132626D
S1235DC88E5A409F148E40089F168E5BE9BD9A768E5A409F148E40189F168E59A5BD9A76E3
S1235DE8BDBBC1C63CBD8FF2E6E45C7E5CCBC628F7108BC61DF7108C8E0269E6E4BD8689CE
S1235E085376398E5A2EBDBA0EBDBA218E05FEAFE38E05E4BD5970C614F7108BC61DF710CB
S1235E288C8E009BC604BD86895376398E5A2EBDBA0EBDBA2132628E5A409F148E40089FF2
S1235E48168E5BE27E5DD58E5A409F148E40089F168E5BD9BD9A767E5CAA8E05E2AFE38E97
S1235E6805D2BD597032627E5C76C628F7108BC61DF7108C8E0263C602BD86895376398EC8
S1235E885A2EBDBA0EBDBA217E5D0FC628F7108BC61DF7108C8E0261C602BD8689537639EA
S1235EA87E5C5AC608BD92D04F58491F01AE8960AAC628F7108BC61DF7108CC602BD8689DA
S1235EC8537639398E00CBBDCBE4C606BD8FF28E00CBBDCBE4C606BD8FF28E00CBBDCBE418
S1235EE8C606BD8FF28E00CCBDCBE4C606BD8FF28E00CDBDCBE4C61EBD8FF28E00CDBDCBF0
S1235F08E4C61EBD8FF28E00CDBDCBE4C61EBD8FF2BD5EAB7E8F4B3420C669BD96A07C0D69
S1235F28C3C610BDB057108E806434208E0DC5BDAF0434208E0DD4BDAF04326435A0BD5E99
S1235F48ABC60A8E0CE2BDC1545D2621C60EBDB057C666BD96A0C612BD8FF2C60DBDC9F0B2
S1235F68C612BD8FF25FBD8689403F35398E60BA7E94EEC60A8E0CE27EC2547C1407F614BE
S1235F8807F10DD9240139C60A8E0CE27EC2548E60BA7E94325D2706C601F70DDA397F0DF9
S1235FA8DAC6038E60BA7E94328E60BA7E937E8E60BA7E937B8E60BABD937E5D2601398E1A
S1235FC860BA7E93778E60BABD937E5D27068E60BABD94DEC6587E8F098E60BA7E93B90D89
S1235FE81D2601398E60BA7E93DA7EE57E7EE57EC603F70DD97F14077F0DC38E0DD4BDAE5A
S1236008F5C658BD8F09F61839F70DD9270CC60A8E0CE2BDC1D07F0DDA39C60A8E0CE2BD73
S1236028C2547F0DDA397F0DDABD8689721D38C60A8E0CE2BDC1D0C658BD8F097F0DC38EBC
S12360480DC5BDAEF58E0DCABDAEF58E0DCFBDAEF5C61BBDB0578E809BAFE38E0DC5BDAFC7
S1236068048E8064AFE38E0DCFBDAF047F1407C667BD96F6F6183CBD8689496438C62DBD77
S1236088C4FCC60DBDC9F0C612BD8FF25FBD8689403F35BD8689722A38C680BD67963264C0
S12360A8390802610263026B026C041A026402690143602E5FF59299596800680004145718
S10760C83F020DC4BE
S104140700E0
S12360CCF60DE52702C60139F60DE72702C60139F60DE62702C601397F0DE57F0DE67F0D0B
S12360ECE739465249444745002564003135204D494C4C494F4E0053484F4F54204152520A
S123610C4F5753002564204D41444500327FBDBA21204EC101102700B1C102102700B88E15
S123612C468B9F148E321B9F168E0C57BD9A76F60DE35CE7E4F70DE3CC0005EDE3E6624F51
S123614C1F01BDF95A32621F105D260DF60DE45CC1021022006EF70DE4BDBBC1C63CBD8F97
S123616CF2BDBA3FBD868950F539BE0C91BDAE438E468B9F148E320D9F168E0C57BD9A76C2
S123618C8E5A409F148E58019F168E60EEBD9A66F60DE2E7E28E60F5AFE3BDAA4D8E5A40E0
S12361AC9F148E010C9F168E0C57BD9A9AF60DE432635D1026FF5C8E60F8AFE3BDAA4D3222
S12361CC627E612B7F0DE47E61658E6103AFE3BDAA4D32627E612BF60DE1E7E28E6110AF5E
S12361ECE3BDAA4D32637E612B4241434B20494E00C606BD8FF2BDBA30C60AF7108BC61C9C
S123620CF7108C8E008CC60CBD86895376398E5A409F148E40089F168E61F5BD9A768E5A22
S123622C409F148E40189F168E60EEBD9A768E5A2EBDBA0EBDBBC1C678BD8FF2BDBA30C65A
S123624C0AF7108BC61CF7108C8E008CC60CBD8689537639F60DE1E7E28E6110AFE3BDAABE
S123626C4D8E5A409F148E40109F168E0C57BD9A768E5A2EBDBA0EBDBBC1C678BD8FF2BD88
S123628CBA30C60AF7108BC61CF7108C8E008CC60CBD86895376398E0DDCBDAE438E4F3F32
S12362AC9F148E40109F168E0C57BD9A768E5A2EBDBA0EBDBBC1C678BD8FF2C628F7108BFA
S12362CCC61EF7108C8E0341C602BD86895376397F0DE632637D002127037E989EBD868980
S12362EC6FB93B20F5C66E7E96F653484F4F54204C454654204C4F4F5000464F520034602B
S123630CBDBA39BDBA3FCE00148E56DCAFC4108E00168E4005AFA48E62F6BD9A768E468B06
S123632CAFC48E400DAFA48E6306BD9A768E5A40AFC48E4018AFA48E60EEBD9A768E5A2E55
S123634CBDBA0EBDBBC1C678BD8FF27E989E342031848E5ABCBDBA0EBDB9CD30A4BD90C9E0
S123636CBDBB9DC60635207E8FF2346010AE663420ACE1221B3384BDB9CD30C4BD90C9BD41
S123638CBB9DC606BD8FF23342344010ACE124E735E0327EC606BD92D0F70DE98E6444C661
S12363AC3CBDB099BDBA39BDBA3FC60CBDB9BFBDBA3F8E5A409F148E40089F168E61F5BD61
S12363CC9A768E5A409F148E40189F168E60EEBD9A76BD86895DE339BDB9CDF60DE9C10544
S12363EC23178E06A0BD90C9BD86895D7639BDBB9DC61EBD8FF27E989E4FEDE458491F0165
S123640C6E99641063EE6424642C6434643C641C8E0694BD90C920D08E069CBD90C920C874
S123642C8E069ABD90C920C08E0698BD90C920B88E0696BD90C920B0327DC605BD92D0F76E
S123644C0DE86F62C60AF7108BC61EF7108C8E0212C608BD8689537639C606BD8FF26C6277
S123646CE662C10526DEC61EBD8FF2F60DE8C104222A4FEDE458491F016E99648964AB6494
S123648CC364DB64F36493C614F7108BC61EF7108C8E02AFC602BD86895376397E8F4BC6C6
S12364AC14F7108BC61EF7108C8E02B1C602BD86895376397E8F4BC614F7108BC61EF71029
S12364CC8C8E028AC602BD86895376397E8F4BC614F7108BC61EF7108C8E02B4C602BD86E6
S12364EC895376397E8F4BC614F7108BC61EF7108C8E0166C602BD86895376397E8F4B20C3
S123650C05C63CBD8FF2F60DE2C10622F47F0DE77E8F4B327FC60AF7108BC61CF7108C8E83
S123652C008BC60CBD86895376398E06A0AFE38E067EBD63766F623262C605F7108BC61C0E
S123654CF7108C8E008CC608BD8689537639BDB9CDBDBA3F8E5A409F148E40089F168E6194
S123656CF5BD9A76BDBAAABDBBC18E3800BDB9EEC606E7E2C605BDBBD7C60AF7108BC61CD2
S123658CF7108C8E008CC608BD8689537639BDBA3F8E5A409F148E40189F168E60EEBD9A43
S12365AC76BDBAAABDBBC18E3800BDB9EEC606E7E2C605BDBBD76C623262E6E4C1031026FC
S12365CCFF77C628F7108BC61EF7108C8E0155C602BD8689537639C61EE7E2E661BDBBD781
S12365EC7E989E327E8E809BAFE38E0DDCBDAF04C61BBDB0577C0DE132627D18442614F659
S123660C1845C10110270064C602E7E2C601BDB40A3261F60DE14FEDE4CC0005EDE3AE6295
S123662CBDF95A32621F10C102273A221BC101272DC62EBDC4FCC66BBD96A0F60DE2C105C0
S123664C22037F0DE7326239C103270BC10426E1C632BDC4FC20DFC631BDC4FC20D8C62F2E
S123666CBDC4FC20D1C630BDC4FC20CAC602E7E2C603BDB40A32617E661F8E67847E94EE5B
S123668C7D0DE5260139C626E7E2C66DBD96073261390D1D27057D0DE5260139C6218E0073
S12366AC04BD8689535F39397F0DE5C6068E0CE27EC1D0BD86896CC63B7F0DE5C6068E0CFE
S12366CCE2BDC1D08E6784BD94CDBD8689722A38BD868967993B397D0DE52601397E66BF91
S12366ECBDBD87C60FBDC4FCBD86896CC63BBD8689722A3839C6068E0CE2BDC1D0C601F7D1
S123670C0DE5F70DE7C63ABD8F09BD8689521E37C66ABD96F67F0DE37F0DE4BDB1798E8077
S123672C9BAFE38E0DDCBDAF04C61BBDB057BD8689409239C601F70DE6BD67EFC605BD86E7
S123674C895B50388E650BC63BBDB099BD868971B93BC620BD67B6326239C6068E0CE2BDF5
S123676CC1D08E0DDCBDAEF57F0DE1C63A7E8F09C6068E0CE27EC254670166EC9299929734
S10D678C006D000426393C020DE202
S1236796327FE7E4F61408EAE4F71408326139F61408C4E0F7140839F414082702C6013969
S12167B6327FE7E4F61409EAE4F71409326139F414092702C601397F14087F140939DA
S10514080000DE
S12367D4327FE7E4F60DEAEAE4F70DEA3261397F0DEA39F40DEA2702C60139F60DEACA7FB7
S12367F4F70DEABDE285BDE254BDE1E8BDE219BDD88BBDD881BD86896EEC377EE531327F66
S1236814C606BD92D0F73FF7F63FF7E7E4C601E4E410260079C602E4E410260063C604E43C
S1236834E42650C608E4E4263DC610E4E4262AC620E4E42617C640E4E4270EF60DEACA401A
S1236854F70DEABD86896EEC37326139F60DEACA20F70DEABDD88120DCF60DEACA10F70D67
S1236874EABDD88B20C9F60DEACA08F70DEABDE21920B6F60DEACA04F70DEABDE1E820A3E0
S1236894F60DEACA02F70DEABDE2547E6831F60DEACA01F70DEABDE2857E6829BD86895238
S12368B46C365D2627BD40085D2617BD48905D2628BD86895BFB365D270BBD868961FA3651
S12368D42003BD45E6BD868964A33639BD8689591A36BD868964A33639BD4E6DBD868964F4
S12368F4A33639BD8689526C365D2620BD40085D2616BD48905D261BBD86895BFB365D265F
S123691416BD51165D261739BD462E39BD868959623639BD4EB539BD868962423639BD5607
S1236934FA397F0DEABDE123BDE107BDE0CFBDE0EBBD8689522837BDD7F97ED7EF327EE757
S1236954E4BD6936C602BD8FF2E6E4C10522155D270D6F61BD68126C61E6E4E16122F53258
S1236974627EE531BD67EF326239BD6936C602BD8FF2BD68127EE531BD6936BD868964A3CD
S105699436398E
S12369967F0DEB39327F7D0DEB27067F0DEB326139C601F70DEB8E1051BD8689627438E731
S12369B6E4C605E0E4E7E4F1106B251E7D106B271EC606BD8FF2BD86896D043B8E6A6CC6E7
S12369D64BBDB0997F0DEB326139F7106B26E2BD8689646538BD868974A63820D4327F7D82
S12369F60DEB27067F0DEB326139C601F70DEB8E1051BD8689627438E7E4C605E0E4E7E471
S1236A16F1106B252A7D106B272AC606BD8FF2BD868971BD385D2636BD868971BD385D27AD
S1236A36C38E6A6CC64BBDB0997F0DEB326139F7106B26D6BD8689646538BD868974A63862
S1236A56C606BD8FF2BD868971BD385D27CABD86896D043B20C2F61077C10110270072C18F
S1236A76041027006CC60DBDC9B6C60CBD8FF2C603BDC9B6C60CBD8FF2C601BDC9B6C60C4C
S1236A96BD8FF2C608BDC9B6C60CBD8FF2C609BDC9B6C60CBD8FF2C60ABDC9B6C60CBD8F3F
S1236AB6F2C60CBDC9B6C60CBD8FF2C60BBDC9B6C60CBD8FF2C60DBDC9B6C60CBD8FF2C6AA
S1236AD603BDC9B6C60CBD8FF2C601BDC9B67E8F4BC60CBD8FF2BDC8A8C60CBD8FF27E6ABD
S1236AF67B327F8E1051BD8689627438E7E4C605E0E4E7E4F1106B2403F7106B7D106B273E
S11B6B16037E8F4BBD8689646538BD86896F7A3BBD868974A63820E924
S9030000FC
