S123400039327FF61813F1141822076FE4E6E43261396FE4F61814F1107E2309E6E4C801AF
S1234020E7E4326139C601E7E4E6E4C801E7E420F17F14187F1419397F107D397D107D27DE
S12340401EC605BDC23AC605BDC2D97D141926057D107F2716C61CBDC23AC61C7EC2D9C61D
S123406005BDC23AC605BDC24E20E0C61CBDC23AC61C7EC24E7F107F7F107E7E403CF610C0
S12340807D26057F107E5F395AF7107DBD403CC601397C107D7E403CF61813F1141823084C
S12340A0F61814F1107E2201397C107FBD868960C43B7E403CF61813F114182308F6181444
S12340C0F1107E2201397C1419BD868960C43B7E403CC1012704BD409839BD40B539327FDC
S12340E0F61813E7E4F114182308F61814F1107E220532617E403C6DE427F77C107DBD8678
S12341008960FF3B8E1887BDB8697C14187C107E32617E403CF6107F2610F61419260139F0
S11741205AF71419BD40DEC601395AF7107FBD40DEC6013973
S10514180000CE
S12341343460327AE763CE3964C103233FE765CE3964108E00001F3030ABC655E78431A86E
S123415410108C008026EF3341E665CBFCE765C10322DFE663CBFCE762C403E763646264DB
S123417462E6624F1F0133893965E6638E4B9E3AE684E764108E00001F3030ABE664E78488
S123419431A810108C008026EF326635E03460318901E0338820CCFFFFED84ED8901E03074
S12341B4023440ACE126EFC603E784C6C0E70F308810341010ACE126EE35E03460338901FC
S12341D4F0318810CCFFFFED84ED8901F030023420ACE126EFC601E784C680E70F3088100E
S12341F4341011A3E126EE35E034205858584F5849108EFFFF308B10AF8110AF8110AF8142
S123421410AF8110AF8110AF8110AF8410AF0235A0327BE762C607E462F73FF7F63FF7E7A4
S123423464646264626462E6624FEDE4308B6F62E664E7846C62308810E662C12026F132FF
S123425465397E989E534C414D2054494C5400BDBA308E4CA39F148E400D9F168E4259BD1D
S12342749A76BDBBC1C6F0BD8FF220F954494C5400BDBA308E4CA39F148E400D9F168E425C
S123429480BD9A76BDBBC1C6F0BD8FF220F9544F55524E414D454E54004D4F444520454E8E
S12342B441424C4544005052455353205354415254204E4F5700327FBDBA308E4F3F9F1418
S12342D48E40059F168E42A2BD9A768E4F3F9F148E40109F168E42ADBD9A768E468B9F1441
S12342F48E401C9F168E42BABD9A76BDBBC1C607E7E4C63CBD8FF26AE426F77F10387E9857
S12343149E434F494E20444F4F5220495320434C4F534544004F50454E20434F494E2044F5
S12343344F4F5200544F2055534520425554544F4E53003460BDBA30CE468B8E0014EF8487
S1234354108E00168E4003AFA48E4315BD9A768E0014EF848E400AAFA48E4329BD9A768E25
S12343740014EF848E4011AFA48E4338BD9A76BDBBC1C6B4BD8FF27E989E465245450025AA
S1234394642F25642043520025642025642F256420435200256420435200327D7D18572696
S12343B444F618F0E7E4272BF6184CE761C1041027006FC1062754F618F1E7622634E6614E
S12343D43404E66134048E4393AFE3BDAA4D3264326339F618F134048E43A8AFE3BDAA4D0A
S12343F432633263398E438EAFE3BDAA4D3262326339E6613404E6613404E66434048E43EA
S12344149CAFE3BDAA4D3265326339E6E4C1022724C1041026FFA0C602E7E4C603E7617EA9
S123443443CBE6E4C1021026FF8DC601E7E4C602E7617E43CBC601E7E4C603E7617E43CBAA
S1234454494E5345525420434F494E5300494E5345525420544F4B454E5300535749504582
S1234474204341524400494E534552542042494C4C5300505245535320535441525400BD87
S1234494B9CDBDBA3FBD43AE8E468B9F148E801A9F168E0C57BD9A66BDBAAABD86894A3A0C
S12344B4385D2621F618592728C1012730C1022738C10327408E4F3F9F148E40129F168EFA
S12344D40C577E9A768E4487AFE3BDAA4D326220E48E4454AFE3BDAA4D326220D88E446171
S12344F4AFE3BDAA4D326220CC8E446FAFE3BDAA4D326220C08E447AAFE3BDAA4D3262209D
S1234514B4327FBD44930D1D2716C60CE7E40D20260EC60CE7E2E661BDBBD7C63C7E98AF2D
S1234534C614E7E420EC564F4C554D4520256400BDBA30F618EFE7E28E453AAFE3BDAA4D71
S12345548E4F3F9F148E40099F168E0C57BD9A76F618EFBD4134BDBBC132630D1D27040DCB
S1234574202708C605BD8FD77E989EC6B4BD8FF220F644414E47455200BDBA21F61036C41B
S123459401271C8E4CA39F148E40109F168E4586BD9A76C604E7E2C618BDBBD77E989E8ED4
S12345B44CA39F148E40079F168E4586BD9A768E4CA39F148E40179F168E4586BD9A762081
S12345D4D2434F494E20444F4F52204953204F50454E004849474820504F574552004953FD
S12345F42044495341424C454400327F6FE4BDBA30BDBBC1C60CBD8FF2BDBA308E4F3F9FF5
S1234614148E40069F168E45D5BD9A768E4F3F9F148E40109F168E45E7BD9A768E4F3F9FCC
S1234634148E401A9F168E45F2BD9A76BDBBC18E03D8BDCBE4C612BD8FF26CE4E6E4C10818
S123465426ACC6F0BD8FF27E989E3440327CC603BD92D0E7627D1080102700A67F10804F2D
S1234674EDE458491F01AE894B7DC628F7108BC61CF7108CC602BD5376CE0056BDB9CD30B7
S1234694C4BD90C9BDBB9DC606BD8FF233421183006A26E86F63C601F7108BC61CF7108CE8
S12346B48E0098C608BD5376BDB9CD8E0066BD90C9BDBB9DC606BD8FF2BDB9CD8E0068BD06
S12346D490C9BDBB9DC606BD8FF26C63E663C10426C4C602F7108BC61DF7108C8E0099C6C6
S12346F408BD5376CE0066BDB9CD30C4BD90C9BDBB9DC606BD8FF2335E1183005426E87E6F
S1234714989EC601F71080E662CB034FEDE458491F01AE894B7DC628F7108BC61CF7108C12
S1234734C602BD53767E989E504C554E47450042414C4C003440327DC60ABD92D0E762BD61
S1234754BA21E6624FEDE458491F01AE894B8AC628F7108BC61CF7108CC602BD5376BDB978
S1234774CD8E0078BD90C9BDBB9DC606BD8FF2CE00783342118300962730BDB9CD30C4BDE9
S123479490C9BDBB9DC606BD8FF21183008A26E2C602F7108BC61DF7108C8E0099C608BDE1
S12347B4537633421183009626D0BDBA21C60CBDB9BFBDBA3F8E5A409F148E40089F168E3A
S12347D4473CBD9A768E5A409F148E40189F168E4743BD9A76BD5DE3BDB9CD8E0094BD9067
S12347F4C9BD5D76BDBB9DC63CBD8FF27E989E47414D45204F564552003440327FBDBA210C
S1234814F6183FC101102700C4F6183EC1011027008BC602BD92D0E7E4CE018CBDB9CD3026
S1234834C4BD90C9BDBB9DC606BD8FF23342118301AE26E8E6E4C1011027006B2445C61430
S1234854F7108B7F108C8E017FC602BD5376BDBA21C60CBDB9BFBDBA3F8E5A409F148E4039
S1234874189F168E4803BD9A76BD5DE3BDB9CD8E01ACBD90C9BD5D76BDBB9DC678BD8FF2FB
S12348947E989EC1022733C10326C3C614F7108B7F108C8E0465C602BD537620B1C603BD5F
S12348B492D0E7E47E482DC614F7108B7F108C8E0165C602BD53767E4862C614F7108B7FE4
S12348D4108C8E044DE6E4BD53767E4862C605BD92D0E7E4C1031023FF3FC603E7E47E4889
S12348F42D53484F4F5400414741494E003440327EBDBA21C602BD92D0E7E4C614F7108BAC
S12349147F108C8E0221C608BD53766F61CE006ABDB9CD30C4BD90C9BDBB9DC601F7108B9C
S1234934C61CF7108C8E0098C608BD5376C608BD8FF233421183007826D66C61E661C10210
S123495426CBC60AF7108BC61CF7108C8E0099C608BD53766DE42755C614F7108B7F108CA8
S12349748E040EE661BD5376BDBA21C60CBDB9BFBDBA3F8E5A409F148E40089F168E48F52C
S1234994BD9A768E5A409F148E40189F168E48FBBD9A76BD5DE3BDB9CD8E0076BD90C9BD07
S12349B45D76BDBB9DC678BD8FF27E989EC614F7108B7F108C8E035BE661BD537620A9BD01
S12349D486896F19385D270EBD8689703F38C678BD8FF27E989EBD86896D673820F045004E
S12349F443005600460048005025640042414C4C202531690053454152434800BDBA3FC673
S1234A14648E3800BD4225C6098E0CE2BDC1545D1026009CC6088E0CE2BDC1545D10260035
S1234A34B6C6078E0CE2BDC1545D102600D0C6068E0CE2BDC1545D102600EAC60A8E0CE247
S1234A54BDC1545D10260104F60C47E7E28E49FCAFE3BDAA4D8E4F3F9F148E7E0B9F168E80
S1234A740C57BD9A66F60C48E7E28E4A00AFE3BDAA4D8E468B9F14CC8015DD168E0C57BDB9
S1234A949A66BD43AE8E468B9F14CC801BDD168E0C57BD9A668E5A409F148E32149F168E44
S1234AB44A09BD9A76BDBBC1C6F0BD8FF27E989E8E49F2AFE3BDAA4D8E468B9F148E6A00C4
S1234AD49F168E0C57BD9A663262C6088E0CE2BDC1545D1027FF4A8E49F4AFE3BDAA4D8E2F
S1234AF4468B9F148E6F009F168E0C57BD9A663262C6078E0CE2BDC1545D1027FF308E4971
S1234B14F6AFE3BDAA4D8E468B9F148E75009F168E0C57BD9A663262C6068E0CE2BDC1541B
S1234B345D1027FF168E49F8AFE3BDAA4D8E468B9F148E7A009F168E0C57BD9A663262C6C8
S1234B540A8E0CE2BDC1545D1027FEFC8E49FAAFE3BDAA4D8E468B9F14CC8000DD168E0C55
S1234B7457BD9A6632627E4A5C043C0271032C043D014404210A031003230327032E033AE9
S1124B9402B202C302C402C7037B000105155518
S1234BA37F108139C605F71081397D0CD727127D0021260D0D1D260AF6108127165AF71030
S1234BC38139BD868971BD385D26EDBD868960FA3B20E58E4BE8C620BDB0875FBD8E2CC6D5
S1234BE305F7108139BD977CBD54060D1D27040D2027107D002127037E8F4BBD86894B878A
S1134C033820F5C602BD8FF2BD86896FAC3B20E325
S1234C133460327AE7631F1058495849ED615849584958495849A3611F011027007DE6638F
S1234C334F1F0240508200ED641F103420A3E11F03C630BD92D0E7E4C110273CC114273819
S1234C53C1152734C1162730C117272CC1192728C11A2724C11B2720C128271CC1292718EC
S1234C73C12A2714C12B2710C12C270CC12D2708C12E2704C12F26B9C606E7E2C6FFE7E28B
S1234C93E662BDC82DE665BD8FF21E03E3661E031F3030AB32628C00002696326635E03408
S1234CB360327DAF6110AE696DA4272CAE61E684E7E433843341E6A4E7E2E621E7E2E66259
S1234CD3BDC82DE6C4E7623262C1FF26E7E622BD8FF231236DA426D4326335E03440327F43
S1234CF3E7E43384E68427193404E641E7E2E662BDC82DE642BD8FF23343E6C432625D26B2
S1234D13E7326135C03460327FE7E43184EE6730A4E6E4BD4CEF335F1183000026F132618D
S1234D3335E010220A000000304006302206305506302206304006000000346033848E4DBE
S1234D53D8C624BD8DAD318812E6C4E7A4E641863C3DED218E4D77C625BD8DADAF2310AF8A
S1234D73881235E03440FE000C30C812C602E704EE84E6C4BDC2125D26197E8F4BC606BD08
S1234D938FF2AE418C016722208C00B322278C0000272BE6C4BDC1AEC603BD8FF2AE418C98
S1234DB3021B22D98C016723E0C606BD8FF2AE418C00B323D9C606BD8FF2AE4126D5E6C4FB
S1234DD3BDC28120B53440BE000C338812EC4110830009231AC60ABD8FF2BDD1C45D26F5FE
S1234DF3EC41C3FFF6108300092304ED4120E6CC0000ED41C61EBD8FF27E8F4B327FE7E4D0
S1234E13C624BD8DFE8C0000260C2011C624BD8DD08C00002707E6E4E1881226EF32613976
S1234E333440BD4E0F33848C00002712CC0000ED8813C61EBD8FF230C435407E8EC035C0B1
S1234E53BD868961033B7F0C90BD50642008BD4F547D0C9026F07D0C4626F3BD505C20F12B
S1234E733440327BE7637D160627346F642025E6645CE762E1632715E66486053D1F0330D1
S1234E93C91607BDAE43E664BD4F1AE662E764F11606240B6D6326D7E6645CE76220D93241
S1234EB36535C0BD43AE8E468B9F148E801A9F168E0C577E9A66BD50F5390D1D27057D0C5B
S1234ED3482608BD4EB65FBD4E7339BD50F55FBD4E7339BDBA30BD4ECDBDBBC1C678BD8F14
S1234EF3F27E989E3440327EF616065A86053D1F01F60C474F338B1F3058495849C352CDB4
S1234F13FD1082326235C03460327E4FFE108230CBE68486093D1F0131895219EE22DF14C6
S1234F33E6241F985F1F01E6254F1F033410AAE0EAE0DD168E0C57ADB4326235E0BD4EF716
S1234F53393460327DF6108A102600A7BD5D227D1087102600B9C60CF70CA9F73FBCBE10D4
S1234F738431893800F610884F1F03340630893A00341030A4BD87C5F60CA85CF70CA9F7AE
S1234F933FBC3264BDBAAAF610895A102700A0F71089BDBB9DFC1084C30010FD10847A1065
S1234FB3862647F60C475A4FFE108230CBE68486093D1F0131895219EE26FF1084EE223008
S1234FD341C63DBD86DF5CF71086E628F71088F610874FEDE4C3FFFF1F894F5959C401E70B
S1234FF362F71087E662C1012753C602326335607E8FF25AF7108ABD5D22BD5DEFBD868939
S123501360DE3BBDBB9DC608326335607E8FF2F610884F1F02FE108430C9380034065FBDDD
S123503387933262BDBAAAF610895A1026FF60C605F71089BD868960DE3B7E4FA5C606F737
S1235053108A326335607E8FF2BDB9E5C6087E8FF23460327E7D0C462620BDB9CDBDBA3FFC
S1235073BD4EC9BDBAAAF60C47BD4E73BDB9D65FBD4E73326235607EBBC1C60CBDB9BFBD4D
S1235093BA3FBD4EC95FBD4E73BDBAAAC60CF7108AC605F71089C601F71087F60C475A4F29
S12350B3FE108230CBE68486093D1F0131895219EE26FF1084EE223041C63DBD86DF5CF733
S12350D31086E628F71088326235E0450043005600460048005025640042414C4C20253107
S12350F36900C6648E3800BD4225C6098E0CE2BDC1545D102600F2C6088E0CE2BDC1545D01
S1235113102600C8C6078E0CE2BDC1545D1026009EC6068E0CE2BDC1545D10260074C60A3D
S12351338E0CE2BDC1545D271A8E50E6AFE3BDAA4D8E468B9F14CC8000DD168E0C57BD9AC9
S1235153663262F60C47E7E28E50E8AFE3BDAA4D8E4F3F9F148E7E0B9F168E0C57BD9A66D7
S1235173F60C48E7E28E50ECAFE3BDAA4D8E468B9F14CC8015DD168E0C57BD9A66BD43AE33
S12351938E468B9F14CC801BDD1632668E0C577E9A668E50E4AFE3BDAA4D8E468B9F148EDD
S12351B37A009F168E0C57BD9A6632627E51318E50E2AFE3BDAA4D8E468B9F148E75009FAD
S12351D3168E0C57BD9A6632627E51248E50E0AFE3BDAA4D8E468B9F148E6F009F168E0C0B
S12351F357BD9A6632627E51178E50DEAFE3BDAA4D8E468B9F148E6A009F168E0C57BD9A01
S12352136632627E510A9A7654B7400A0030109A6644FE600A0000009A6654B760010000E7
S1235233009A6654B760120000009A6644FE60010000009A6644FE60120000009A664346FA
S123525360010000009A66434660120000009A6644FE600B0000009A6644FE601600000076
S12352739A664346600B0000009A66434660160000009A6644FE60070000009A6644FE60D9
S12352930F0000009A6644FE60170000009A664346600B0000009A66434660120000009AA6
S12352B3664346601A0000009A66434660090000009A664346601000000001000000010081
S12352D3000000000000000000000000000006070000040700000605000000000000000094
S12352F30000060A0B00040A0B0006080B00060A090000000000060F1011040F1011060CB5
S10D5313101106120D110612130EFC
S123531DC62FBD8F09C6127E97458E532FC62F7EB099C60FBD8FD72005C607BD8FD7C6163B
S123533DBDD0015D27F37D002126EEC6018E0CF2BDC1545D26E3C612BD96A0C607BD8FD74F
S123535D20DCF110952306BF1096F710953939393939397E8F4B7ECB2F3440327BE76133AE
S123537D84F6108CE7638E108D6F64C601E7E4E56127286D842708E601E762E1632418F6C1
S123539D108BE7E426296D6426046DE4262930C4326535407ECB2FE16323E46C643002E6F1
S12353BD64C104270668E4E6E420C4326535C0E784E663E70120CFF61098CA01F71098BDA0
S12353DDCAA820CA327FE7E48E547FC631BDB087E6E4E78812326139C630BD8F09BDCAA8F7
S12353FDF61098CA02F71098397F1095CC0000FD1096BD8689642F3BBE10967ECA7ACC002B
S123541D00FD108DFD108FFD1091FD10937F1098BD540639BD5406393440327D6F62E662F4
S123543D4FEDE45849CE108D30CBE684270B5AE78426066F016D62270C6C62E662C1032328
S123545DDF326335C0F61098C4FEF71098BD5406C601E76220CAF61098C4FDF71098BD54A3
S11A547D0639342010BE000CBD53F5E6A812BD8FF2BD54737E8F4BE8
S12354948E3800BF0CAA393460BE0CADAE07CC02003410A3E1338938008E000010AEC41016
S12354B4AF893A0010AE4210AF893A0210AE4410AF893A0410AE4610AF893A0610AE4810B4
S12354D4AF893A0810AE4A10AF893A0A10AE4C10AF893A0C10AE4E10AF893A0E33C8103037
S12354F48810341010A3E126B335E03460327EBE0CADAE07AFE4BE0CAA9F08ECE440508236
S1235514001F0133893C009E08ECE410AE8410AFC410AE0210AF4210AE0410AF4410AE06D6
S123553410AF4610AE0810AF4810AE0A10AF4A10AE0C10AF4C10AE0E10AF4E33C81030883F
S123555410C3FFF026C5DC08E3E4FD0CAA10833A002704326235E07F0CAC326235E0BE0CDD
S1235574ADEC07405082001F0130893A00BF0CAA393460BE0CADAE07CC02003410A3E13317
S1235594893A008E380010AE8410AFC410AE0210AF4210AE0410AF4410AE0610AF4610AE98
S12355B40810AF4810AE0A10AF4A10AE0C10AF4C10AE0E10AF4E33C810308810C3FFF0269A
S12355D4C535E03460327EBE0CADAE07AFE4BE0CAA9F0833848E000010AEC410AF893A0072
S12355F4EC42ED893A0210AE4410AF893A04EC46ED893A0610AE4810AF893A08EC4AED8907
S12356143A0A10AE4C10AF893A0CEC4EED893A0E33C810308810ACE426BEDC08A3E4FD0CE3
S1235634AA108337FF22037F0CAC326235E08E3800BF0CAA3934408E3801EE84EF8901FF41
S1235654EE02EF890201EE04EF890203EE06EF890205EE08EF890207EE0AEF890209EE0CF9
S1235674EF89020BEE0EEF89020D3088108C3A0126C835C03440FE0CAA8E3A0FE6C4E78484
S1235694E6C810E78810E6C820E78820E6C830E7883033C8403088408C3C0F26DFFC0CAA1A
S12356B4C30001FD0CAA10833810270235C07F0CAC35C08E380FBF0CAA3934408E3800EE8B
S12356D484EF890201EE02EF890203EE04EF890205EE06EF890207EE08EF890209EE0AEF00
S12356F489020BEE0CEF89020DEE0EEF89020F3088108C3A0026C835C03440FE0CAA8E3A95
S123571400E6C4E784E6C810E78810E6C820E78820E6C830E7883033C8403088408C3C004A
S123573426DFBE0CAA8C38002707301FBF0CAA35C07F0CAC35C0BE0CADAE07BF0CAA39AE79
S12357549F0CAAE6893800E7893A00E6893810E7893A10E6893820E7893A20E6893830E7CB
S1235774893A30E6893840E7893A40E6893850E7893A50E6893860E7893A60E6893870E74D
S1235794893A70FC0CAAC30002DD08FD0CAABE0CADEC07C300809E083406ACE12701397FB5
S12357B40CAC39BE0CADAE07BF0CAA393460327EBE0CAAE601D70AE6844F1F0230A93A0099
S12357D433A93800D60A53D7096F61D609E484E7E4E784D60AE4C4D708E6E4DA08E784D6E9
S12357F409E48810E7E4E78810D60AE4C810D708E6E4DA08E78810D609E48820E7E4E78877
S123581420D60AE4C820D708E6E4DA08E78820D609E48830E7E4E78830D60AE4C830D7080A
S1235834E6E4DA08E7883030884033C8406C61E661C1081026FF9410BE0CAA3022BF0CAAE1
S12358546D0126037F0CAC326235E08E5A92BF0CAA393460327CFE0CAAE6C4C1FF274E308C
S123587441AF623142109F083043AFE48E00002002E6C453E4893800E7893A0010AE62E68C
S1235894A453E4893801E7893A01109E08E6A453E4893802E7893A0210AEE4E6A453E489D6
S12358B43803E7893A0330048C020026C4326435E08E5AD0BF0CAA393460327EFE0CAAE64D
S12358D4C04FFF0CAA5849584958495849EDE4C33800AEE431893A001F0130029F08301ECF
S12358F4AE84AFA19E08EC81EDA1EC81EDA1EC81EDA1EC81EDA19F0830A4109E08312210E8
S12359149F08313E10AEA410AF81109E0810AEA410AF84109E0810AE2210AF02E6C04FFF11
S12359340CAA5849584958495849EDE4C33800AEE431893A001F0130029F08301EAE84AF9B
S1235954A19E08EC81EDA1EC81EDA1EC81EDA1EC81EDA19F0830A4109E083122109F083190
S12359743E10AEA410AF81109E0810AEA410AF84109E0810AE2210AF026DC426037F0CACEC
S1235994326235E03460327CFE0CAA3041AF62BF0CAAE6C4C1FF275A3142109F083043AF22
S12359B4E48E00002002E6C4E4893800EA893A00E7893A0010AE62E6A4E4893801EA893A98
S12359D401E7893A01109E08E6A4E4893802EA893A02E7893A0210AEE4E6A4E4893803EA03
S12359F4893A03E7893A0330048C020026B8326435E0BDBAAA7F0CAC326435E05494549BF7
S1235A1454FF020040085494549B54FF040020105494549B54FF060010205572558555D746
S1235A34020040085572558555D700004008564256495688020000105642564956880000B3
S1235A54001056C756CE570D0200001056C756CE570D00000010574ABAAA5753015AFA406E
S1235A74574ABAAA5753015B7A4057B7BAAA57C0025BFA0057B7BAAA57C0025C3C00010342
S1235A94070F1F3F7FFF0103070F1F3F7FFF0103070F1F3F7FFF0103070F1F3F7FFF585F63
S1235AB45866599804000008585F5866599802000008585F58665998000000080F100E11F7
S1235AD40D120C130B140A150916081707180619051A041B031C021D011E1F0058C5BAAA7B
S1235AF458CC020000080000000100020003000400050006000700080009000A000B000C12
S1235B14000D000E000F0080008100820083008400850086008700880089008A008B008C75
S1235B34008D008E008F0100010101020103010401050106010701080109010A010B010C48
S1235B54010D010E010F0180018101820183018401850186018701880189018A018B018C25
S1235B74018D018E018F0082018B000D018C00080186000A0108000C0087000F01090180E9
S1235B940002008301890005018D008D0006018200010183008A018A01020085018E0086FE
S1235BB4018F010100030185010B0187008B0009008C010E0106000B008E010D008F0004AE
S1235BD400880107008401000188010C0080000001050184008900070081000E01030104CF
S1235BF40181010A010F000F00F0010F01F0020F02F0030F03F0040F04F0050F05F0060FC3
S1235C1406F0070F07F0080F08F0090F09F00A0F0AF00B0F0BF00C0F0CF00D0F0DF00E0FD4
S1235C340EF00F0F0FF000000FF00F0F0EF00E0F0DF00D0F0CF00C0F0BF00B0F0AF00A0FA1
S1235C5409F0090F08F0080F07F0070F06F0060F05F0050F04F0040F03F0030F02F0020FDC
S1235C7401F0010F00F0000F0000BE1099F6109BD708E689FE00E78430010A0826F4FC10E4
S1235C9499C30010FD10997A109C26DE39BE1099F6109B6F805A26FBFC1099C30010FD1080
S1235CB4997A109C26E739BE1099F6109B638430015A26F9FC1099C30010FD10997A109CEA
S1235CD426E53934609F083089FE00EE84109E08EFA4EE02EF22EE04EF24AE06AF2635E017
S1235CF434403389FE00C608D708E6C4E784E6C810E78810E6C820E78820E6C830E7883085
S1115D143088400A0833C8400D0826DE35C02A
S1235D223460327ABE0CA8AF64BDB9CDFC0CA8ED62CE0CA8EC64E7C4108E3FBEE7A4BDBA3C
S1235D42AAEC641F894FE7C4E7A4EC621F894FEDE48E0CA9E7848E3FBCE784BDBAAAECE46D
S1235D62E7C4E7A4EC628E0CA9E7848E3FBCE784326635E03460327CBE0CA8AF62C60D8E24
S1235D820CA9E7848E3FBCE784EC621F894FEDE4CE0CA8E7C4108E3FBEE7A4BD8AF8EC62F3
S1235DA2E7C4E7A4BD8AF8C60C8E0CA9E7848E3FBCE784ECE4E7C4E7A4BD8AC2EC62E7C4EC
S1235DC2E7A4BD8AC2ECE4E7C4E7A4EC628E0CA9E7848E3FBCE784326435E0BD8B647EB9A5
S1235DE2D6BD8B648E3A00BDB9EE7EB9D63460327EBE0CA8AFE4C60C8E0CA9E7848E3FBC90
S1235E02E784CE0CA8ECE4E7C4108E3FBEE7A4BD8AC2ECE41F894FE7C4E7A4BD8AC2ECE40F
S1235E228E0CA9E7848E3FBCE784326235E03460327EBE0CA8AFE41F108E0CA8E7848E3F1F
S1235E42BEE784CE0CA9C60DE7C4108E3FBCE7A4BD8AC2ECE41F894F8E0CA8E7848E3FBEE6
S1235E62E784C60CE7C4E7A4BD8AC2ECE4E7C4E7A4326235E03460327EBE0CA8AFE4CE0CCE
S1235E82A9C60CE7C4108E3FBCE7A4BD8AC2ECE4E7C4E7A4326235E08E001EBF19A08E0147
S1235EA29CBF19A2C601F719A4C61EF719A5C601F719A6F719A739BE19A08C001E27025F9C
S1235EC239BE19A28C019C26F6BE19A48C011E26EEFC19A68801C801DD08405082009E08E1
S1225EE23410AAE0EAE01F894F5959C401C801398E5EF87EBCD40A19A0080000015E9ADF
S10B19A000000000000000003B
S9030000FC
