S1234000377F0F7E397F0F7E39F60F7E2702C601394341525F434841534500434F4D504C1B
S1234020455445003460BDBA30CE5A408E0014EF84108E00168E4008AFA48E4011BD9A765D
S12340408E401BAFE3BDAA4D8E0014EF848E4018AFA48E0C57BD9A76BDBBC1C678BD8FF26C
S12340607E989E43484153450025642042414C4C205341564500256420534543204C454696
S1234080542C202025642048495400327FBDBA3FC601E7E4BD868950F5398E0F6FBDAE43D1
S12340A08E4F3F9F148E320F9F168E0C57BD9A768E5A409F148E54019F168E4063BD9A668A
S12340C0BD86894904385D275ABD8689495E3834048E4069AFE3BDAA4D32638E468B9F14A6
S12340E08E581B9F168E0C57BD9A66BDBBC1C63CBD8FF2BDBA3F6CE4C603E4E41026FF947F
S1234100C624BDC4FCC614F7108BC61DF7108C8E0073C604BD86895376398E5A4CBDBA0E00
S12341207E4094F60F6CE7E2F60F6DE7E28E4076AFE3BDAA4D32647E40DB342031848E5A0A
S1234140BCBDBA0EBDB9CD30A4BD90C9BDBB9DC60635207E8FF23460338410AE66BDBA21B1
S1234160342011A3E12219BDB9CD30C4BD90C9BDBB9DC606BD8FF23342344010ACE124E71A
S123418035E0327DF6183FC10110270176F6183EC1011027008BC609F70F6BBD92D0E76222
S12341A0BDBA39BDBA3FE6624FEDE458491F01AE8945B1C628F7108BC61DF7108CC602BDC4
S12341C08689537639C614F7108BC61DF7108C8E021DC608BD8689537639C609BD92D0F7BA
S12341E00F6EC10823208E0360AFE38E034CBD41568E034AAFE38E0338BD41563264C60692
S1234200BD8FF27E989E4F58491F016E99420F41E6424E426E428E42AE42B942D942F94286
S12342202EC60CF70F6BBD92D0E7627E41A08E041EAFE38E03F8BD41568E03B8AFE38E03B7
S123424096BD41563264C606BD8FF27E989E8E0378AFE38E0362BD41568E0360AFE38E0326
S12342604CBD41563264C606BD8FF27E989E8E0394AFE38E037ABD41568E0378AFE38E0304
S123428062BD41563264C606BD8FF27E989E8E034AAFE38E0338BD41568E0394AFE38E033E
S12342A07ABD41563264C606BD8FF27E989E8E03D8AFE38E03BA7E42368E03F6AFE38E03F2
S12342C0DABD41568E041EAFE38E03F8BD41563264C606BD8FF27E989E8E03F6AFE38E038F
S12342E0DABD41568E03D8AFE38E03BABD41563264C606BD8FF27E989E8E034AAFE38E03A0
S12343003820BEC610F70F6BC614BD92D0E762C10F1023FE8BCBFCE7627E41A053484F4FC6
S1234320540052414D5053003460C614F7108BC61DF7108C8E0073C604BD86895376398E05
S1234340034AAFE38E0338BD41568E0360AFE38E034CBD41568E0378AFE38E0362BD4156C7
S12343608E0394AFE38E037ABD415632688E5A4CBDBA0EBDBA30C614F7108BC61DF7108C47
S12343808E0073C604BD8689537639CE5A408E0014EF84108E00168E4008AFA48E431CBD7C
S12343A09A768E0014EF848E4018AFA48E4322BD9A76BDBBC1C63CBD8FF27E989E346032E8
S12343C07C3384E763E66A4FEDE410AE6BBDBA21C60CBDB9BFBDBA3F8E5A409F14AEE4E61B
S12343E0631F985F3410AAE0EAE0DD1630A4BD9A76BD86895DE339BDB9CD30C4BD90C9BDC5
S123440086895D7639BDBB9DC606326435607E8FF23460338410AE66BDBA21342011A3E182
S1234420223DC60CBDB9BFBDBA3F8E5A409F148E36089F168E4011BD9A76BD86895DE3390F
S1234440BDB9CD30C4BD90C9BD86895D7639BDBB9DC606BD8FF23342344010ACE124C33572
S1234460E07F0F7E7F0F6C8E0F79BDAEF57F0F6E397E44617C0F6CC629BD96A08E0F74BDDD
S1234480AEF5C640BD868967AE345D2633C613BDB0578E8073AFE38E0F74BDAF0432628E51
S12344A00F74AFE38E0F6FBDAF048E0F74AFE38E0F79BDAF04C640BD86896796343264396C
S12344C0C619BDB0578E8091AFE38E0F74BDAF04326220CB8E45D17E94EE0D1D260139C610
S12344E0128E0CE2BDC1545D26F48E45D17E93B90D1D2601398E45D17E93DABDE13F7F0FEF
S12345007E8E45D17E94CD8E45D1BD937E5D2601397E44FBBDE13F7F0F7E7EE57EF6183F93
S1234520C1011027007BF6183EC1011027007AC609F70F6B7F0F6CC601F70F7EF6183CBDB8
S12345408689496438BDE2A1C628F7108BC61DF7108C8E041CC602BD8689537639C678BDEE
S12345608FF2C628F7108BC61DF7108C8E0269C602BD8689537639C63CBD8FF2C628F710FC
S12345808BC61DF7108C8E014BC602BD86895376398E0F6FBDAEF5C60CBDC23AC60C7EC29D
S12345A04EC610F70F6B7E4534C60CF70F6B7E453402610263026B026C0269016C02700143
S12345C05E030B0478047D0461046B046E0474047B451D4514929992972728000B12402155
S10645E0020F6D56
S12345E37F0F987F0F997F0F837F0F81397F0F987F0F99397F0F987F0F997F0F837F0F811B
S1234603397F0F987F0F9939F60F982702C601394558504C4F44450025642042414C4C2019
S123462353415645004900327DBDBA3FBD868950F5398E0F93BDAEF58E8046AFE38E0F93A6
S1234643BDAF04F60F828E0F93BDAFF38E0F93BDAE438E468B9F148E320F9F168E0C57BDAB
S12346639A768E5A409F148E62019F168E4613BD9A66F60F9932625D264CF60F8258E7E453
S1234683C65FE0E4E7E4C605E762E6E4C105232B8E4628AFE3BDAA4D8E468B9F14E6641FB0
S12346A3985FCA19DD168E0C57BD9A9A6C64F60F8258C05F503262E16222D5BDBBC1C63C1D
S12346C3BD8FF27E462C34048E461BAFE3BDAA4D8E468B9F148E321C9F168E0C57BD9A76D7
S12346E33263BDBBC1C63CBD8FF27E462C42414E4700424F4F4F59414800424F4F4D00500F
S12347034F5700C614F7108BC61BF7108C8E009BC604BD8689537639BDBA21BDBA218E028B
S123472372BD90C9BDBB9DC606BD8FF2BDBA218E0274BD90C9BDBB9DC606BD8FF2BDBA2162
S1234743C60CBDB9BFBDBA3F8E468B9F148E40049F168E4613BD9A767C0F7FF60F7FC403F3
S1234763C102275CC1032746C10127308E5D7B9F148E40189F168E46F0BD9A76BD86895D34
S1234783E339BDB9CD8E0274BD90C9BD86895D7639BDBB9DC61EBD8FF27E989E8E5D7B9FD1
S12347A3148E40189F168E46F5BD9A7620CE8E5D7B9F148E40189F168E4702BD9A7620BC8B
S12347C38E5D7B9F148E40189F168E46FDBD9A7620AA327FBDBA218E3800BD868941CF3992
S12347E38E5D7B9F148E40109F168E4613BD9A76C604E7E4BDBB9DC606BD8FF2BDB9D6BD95
S1234803BB9DC606BD8FF2BDBBABC60CBD8FF2BDBB9DC606BD8FF2BDB9D67D18442610F68C
S12348231845C1012710C601E7E2BDB40A32616AE426C17E989EC602E7E2C603BDB40A328D
S12348436120EC7C0F838E0F8EBDAEF58E8046AFE38E0F8EBDAF04F60F828E0F8EBDAFF3B9
S12348638E0F89BDAEF58E0F8EAFE38E0F89BDAF048E0F8EBDB0828E0F8EAFE38E0F84BDA3
S1234883AF0432667D18442612F61845C1012715C602E7E2C601BDB40A3261C626BDC4FC95
S12348A3C6267E96A0C602E7E2C603BDB40A3261C626BDC4FCC6267E96A0327FF6183BE7FF
S12348C3E4270FF70F99C63CBD8FF27A0F996AE426F47F0F997E8F4B327FC60AF7108BC6F6
S12348E31CF7108C8E009BC604BD86895376396FE4C606E7E2C6FFE7E2C62EBDC82DC6025D
S1234903BD8FF2C606E7E2C6FFE7E2C616BDC82DC602BD8FF2C606E7E2C6FFE7E2C62FBDC6
S1234923C82DC608BD8FF2E666C40132665D27256CE4E6E4C10526B9C608BD8FF2C60AF78B
S1234943108BC61CF7108C8E009BC604BD86895376397E8F4BC60AF7108BC61CF7108C8EC2
S1234963009BC604BD868953763920C4BD86895F83348E4A5E7E94EE0D1D260139C6128E11
S12349830CE2BDC1545D26F48E4A5E7E93B90D1D2601398E4A5E7E93DA7F0F987F0F99BD24
S12349A3E153BDD8038E4A5E7E94CD8E4A5EBD937E5D2601397E499C7F0F987F0F99BDE100
S12349C353BDD8037EE57E327F7D0F98102600697F0F838E0F84BDAEF57F0F7FC601F70F24
S12349E398F6183CF70F998E48BDC64FBDB099F60F81E7E45CF70F81C601E4E42746C62863
S1234A03F7108BC61EF7108C8E03FDC602BD8689537639C60EBDB0578E809BAFE38E0F846E
S1234A23BDAF04C6B4BD8FF2BDE2B5BDD895C620BD8689679634326339C60A8E4A5EBD94C1
S1234A43327E49DCC628F7108BC61EF7108C8E03FCC602BD868953763920B849CA49BB92DF
S1104A639992972425000C164E2B020F8209
S1234A7039C603F7140F39256420464F52004348415345004558504C4F444520414E4420B5
S1234A904348415345004C45414420544F004855584C455900545249504C45003440BDBA2B
S1234AB021F6140FC101102300FDC606F70FA3CE017ABDB9CD30C4BD90C9BDBB9DC606BD0D
S1234AD08FF233421183018C26E8BDBA21C60CBDB9BFBDBA3FF60FA3C1011027006EC10672
S1234AF01027009A8E0F9EBDAE438E56DC9F148E40059F168E0C57BD9A76F61411F0141000
S1234B1034048E4A77AFE3BDAA4D8E56DC9F148E400E9F168E0C57BD9A768E5A409F148E89
S1234B3040189F168E4A7EBD9A763263BD86895DE339BDB9CD8E018ABD90C9BD86895D7646
S1234B5039BDBB9DC63CBD8FF27E989E8E56DC9F148E40059F168E4A84BD9A768E468B9FDD
S1234B70148E400E9F168E4A96BD9A768E5A409F148E40189F168E4A9EBD9A7620AE8E56D6
S1234B90DC9F148E40059F168E4AA5BD9A768E0F9EBDAE438E4F3F9F148E40189F168E0CB3
S1234BB057BD9A767E4B3CF60FA35CC1051023FEFB7F0FA37E4ABFC601F70F9D0D1D270E41
S1234BD00D20260A7C0F9AF60F9AC10127088E4C30C6417EB099C614F7108BC61CF7108CF6
S1234BF08E0073C604BD8689537639C60BBDB057C606E7E2C6FFE7E2C619BDC82DBD4009B9
S1234C1032625D27C9BD447420C4C6B4BD8FF27F0F9C7E8F4BC6F0BD8FF27F0F9B7E8F4B97
S1234C30C63CBD8FF2C61EBD8FF27F0F9D7F0F9A7E8F4BC60C8E0CE2BDC1545D2734C6179E
S1234C50BDC23AC617BDC2D9C60D8E0CE2BDC1545D2734C615BDC23AC615BDC2D9C60B8E53
S1234C700CE2BDC1545D2634C61EBDC23AC61E7EC24EC617BDC23AC617BDC24EC60D8E0CED
S1234C90E2BDC1545D26CCC615BDC23AC615BDC24EC60B8E0CE2BDC1545D27CCC61EBDC2EF
S1234CB03AC61E7EC2D9C60D8E0CE2BDC1D0C615BDC23AC6157EC24EC60C8E0CE2BDC1D073
S1234CD0C617BDC23AC6177EC24EC60B8E0CE2BDC1D0C61EBDC23AC61E7EC24EC615BDC2BB
S1234CF03AC615BDC24EC617BDC23AC617BDC24EC61EBDC23AC61EBDC24EC6357EC483C6AA
S1234D100D8E0CE2BDC254C615BDC29BC615BDC24EC63CBD8FF2C615BDC23AC6157EC2D9BE
S1234D30C60C8E0CE2BDC254C617BDC29BC617BDC24EC63CBD8FF2C617BDC23AC6177EC2AA
S1234D50D9C60B8E0CE2BDC254C61EBDC29BC61EBDC24EC63CBD8FF2C61EBDC23AC61E7E58
S1234D70C2D9327F0D1D27180D2026147C0F9CF60F9CC101270D8E4C1AC64332617EB099EE
S1234D903261397C1410C614F7108BC61CF7108C8E0075C604BD8689537639C606E7E2C6BC
S1234DB0FFE7E2C628BDC82DBD868960CC3432625D260AF61410F1141110240108BD4009B7
S1234DD05D102600E1F614115AF114101023011DF61410C101102700BAC102102700A610F3
S1234DF02200948E0F9EBDAEF57D140F1027007FC601E7E4201BC617BDB0578E8087AFE363
S1234E108E0F9EBDAF0432626CE4E6E4F1140F225EC60D8E0CE2BDC1545D26DAC60C8E0CA7
S1234E30E2BDC1545D2714C613BDB057CC8073EDE38E0F9EBDAF04326220CDC60B8E0CE26D
S1234E50BDC1545D2714C610BDB0578E8064AFE38E0F9EBDAF04326220AEC60EBDB057CCC5
S1234E70805AEDE38E0F9EBDAF0432627E4E18C62ABD96A07E4D86C60D8E0CE2BDC1545D9F
S1234E902603BD4D0FC60C8E0CE2BDC1545D2603BD4D30C60B8E0CE2BDC1545D1026FF43E8
S1234EB0BD4D517E4DF3BD44747D18441026FF33F61845C1012741C602E7E2C601BDB40ABF
S1234ED032617E4DF3C6088E0CE2BDC1D0C635BDC4837F1410F61411C1312205CB04F71425
S1234EF011BD86895F8334BD44D47E4DF3C6088E0CE2BDC2547E4DE0C602E7E2C603BDB485
S1234F100A32617E4DF37F0F9A7F0F9B7F0F9CC60D8E0CE2BDC1545D2721BD4CB6BD4D30E8
S1234F30BD4D517F0F9DC63CBD8FF2C6088E0CE2BDC1545D2628C6357EC483C60C8E0CE2C2
S1234F50BDC1545D2708BD4CC8BD4D5120D5C60B8E0CE2BDC1545D270ABD4CDA20C5C6354E
S1234F707EC4FCBD4CDABD4CC8BD4CB620B57E4F16C601F7140F7F1410C602F71411BD4F40
S1234F9016F614115AF11410230FC6088E0CE2BDC1D0F61836F7141139C6088E0CE2BDC231
S10E4FB054F61836F71411397E4F81B7
S106140F000000D6
S1234FBBC601F70FA9397F0FA9397D0FA526147D0FA4260AC61EBD8FF2C6087E8FF2C6062D
S1234FDB7E8FF2C6027E8FF23440327CCE0FC5C606E7E46F616F622023E6E4CB0AE763E6DE
S1234FFBE4E7C4E661E741C60CBD92D0E75F6C623343E662C1182728E663E7E4CC000CEDD0
S123501BE3E6644F1F01BDF95A32621F105D26C9E661CB09E761C606E7E4C610E76320BFBD
S123503B326435C034407D1826272DF60C47C101270B7F14137F0FA77F0FA835C0CE0FBA69
S123505BC60ABD92D0E7C011830FC426F37F14137F0FA77F0FA835C0C60ABD92D0F7141209
S123507B7F14137F0FA77F0FA835C0344086033D8E0FC4338BC60CBD92D0E7C4C10B231017
S123509BE642E7E2E6418E6F14BD99D0326135C04F58491F016E9950B450EE50FE510951C8
S12350BB1A513C514D509B516F5191519C51A850CCE642E7E2E6418E6F1EBD99D0BDB9D658
S12350DBE642E7E2E6418E6EF6BD99D0326235407EB9D6E642E7E2E6418E6EF6BD99D03209
S12350FB6120ABE642E7E2E6418E6EF620CCE642E7E2E6418E6F00BD99D032617E50A9E644
S123511B42E7E2E6418E6F00BD99D0BDB9D6E642E7E2E6418E6F00BD99D0326235407EB954
S123513BD6E642E7E2E6418E6F0ABD99D032617E50A9E642E7E2E6418E6F0ABD99D0BDB970
S123515BD6E642E7E2E6418E6F0ABD99D0326235407EB9D6E642E7E2E6418E6F14BD99D0B0
S123517BBDB9D6E642E7E2E6418E6F14BD99D0326235407EB9D6E642E7E2E6418E6EF62035
S123519BDCE642E7E2E6418E6F147E50D5E642E7E2E6418E6EF6BD99D0BDB9D6E642E7E2DB
S12351BBE6418E6F1EBD99D0326235407EB9D6327DE7E4BD4FE36DE427306F62BD86895D47
S12351DB2239BD86895DEF396F61E661BD50866C61E661C11826F5BDBB9DC60CBD8FF2BD70
S12351FBBA216C62E6E4E16222D23263397D0FA526057D0FA427068E5A387EBA0E8E5A2EE3
S123521B7EBA0EC631BDC23AC6317EC24EC621BDC23AC6217EC24EC64BBDD0135D270FC6D5
S123523B49BDD0135D2707C601F70FA52015C64FBDD0135D2614C64BBDD0135D271BC601D1
S123525BF70FA4C606BD8FF220CDC64DBDD0135D27E4C601F70FA520EAC649BDD0135D26C5
S123527BDDC64FBDD0135D26D5C64DBDD0135D27D220CB34403278E7628E00B9C608BD8672
S123529B89537639BDBA308E0FABBDAEF5E662C10622264FEDE458491F016E9952B952D4A5
S12352BB52C7531853275337534753098E802DAFE38E0FABBDAF043262E66CC101232033AE
S12352DB638E0FABAFE330C4BDAFA7326234408E0FABBDAF046A6E3262E66CC10122EE8E8D
S12352FB0FABAFE38E0FB0BDAF04326A35C0CC8064EDE38E0FABBDAF04326220BCCC8032CF
S123531BEDE38E0FABBDAF04326220AD8E803CAFE38E0FABBDAF0432627E52D4CC8050ED30
S123533BE38E0FABBDAF0432627E52D48E805AAFE38E0FABBDAF0432627E52D44855584C50
S123535B455900524541445900434152204348415345004558504C4F444500564944454F39
S123537B204D4F444500535542574159003440C602BD92D0F70FA8BDBA21C60A8E0CE2BD44
S123539BC1545D10270098C614F7108B7F108C8E0070C608BD8689537639CE00A8BDB9CDD3
S12353BB30C4BD90C9BDBB9DC606BD8FF23342118300C626E8C614F7108B7F108C8E007043
S12353DBC608BD8689537639CE00C4C60CBDB9BFBDBA3F8E5A409F148E40089F168E535725
S12353FBBD9A768E5A409F148E40189F168E535EBD9A76BD86895DE339BDB9CD30C4BD9076
S123541BC9BD86895D7639BDBB9DC606BD8FF2335E118300A626B4C61EBD8FF27E989EC66C
S123543B088E0CE2BDC1545D10270098C614F7108B7F108C8E0070C608BD8689537639CEDC
S123545B0096BDB9CD30C4BD90C9BDBB9DC606BD8FF23342118300A826E8C614F7108B7F81
S123547B108C8E0070C608BD8689537639CE00A6C60CBDB9BFBDBA3F8E5A409F148E4008F5
S123549B9F168E5364BD9A768E5A409F148E40189F168E535EBD9A76BD86895DE339BDB9E9
S12354BBCD30C4BD90C9BD86895D7639BDBB9DC606BD8FF2335E1183009426B4C61EBD8F3C
S12354DBF27E989EC6098E0CE2BDC1545D102600A0C6078E0CE2BDC1545D1027012BC61402
S12354FBF7108B7F108C8E0070C608BD8689537639CE0096BDB9CD30C4BD90C9BDBB9DC6BA
S123551B06BD8FF23342118300A826E8C614F7108B7F108C8E0070C608BD8689537639CE7A
S123553B00A6C60CBDB9BFBDBA3F8E5A409F148E40089F168E5376BD9A768E5A409F148EF6
S123555B40189F168E535EBD9A76BD86895DE339BDB9CD30C4BD90C9BD86895D7639BDBB31
S123557B9DC606BD8FF2335E1183009426B47E5432C614F7108B7F108C8E0070C608BD8638
S123559B89537639CE00A8BDB9CD30C4BD90C9BDBB9DC606BD8FF23342118300C626E8C6DC
S12355BB14F7108B7F108C8E0070C608BD8689537639CE00C4C60CBDB9BFBDBA3F8E5A40FA
S12355DB9F148E40089F168E536EBD9A768E5A409F148E40189F168E535EBD9A76BD868904
S12355FB5DE339BDB9CD30C4BD90C9BD86895D7639BDBB9DC606BD8FF2335E118300A626DE
S123561BB4C61EBD8FF27E989EC614F7108B7F108C8E0070C608BD8689537639CE00C6BD6F
S123563BB9CD30C4BD90C9BDBB9DC606BD8FF23342118300D826E8C614F7108B7F108C8E98
S123565B0070C608BD8689537639CE00D68E5381AFE3BDAA4DC60CBDB9BFBDBA3F8E5D7BB0
S123567B9F148E36189F168E0C57BD9A76BD86895DE339BDB9CD30C4BD90C9BD86895D76D8
S123569B39BDBB9DC606BD8FF2335E3262118300C426BA7E5432BD868960CC345D27013948
S12356BBBD868960DC345D26F6BD8689526C365D26EDBD86894008345D26E4BD8689489093
S12356DB345D26DBBD86895BFB365D26D2BD86895116345D26C9C6018E0CE2BDC1545D2720
S12356FBBEC631BDC29BC6317EC24E7F0FA67F0FA97F0FAABD56B1397D0FA9270139BD86BE
S123571B894001365D26F6BD8689721D387F0FAAC608BDB057BDE95C5D10260155BD8689DD
S123573B60CC345D10260141C6058E0CE2BDC1545D1026012BBD86895FB1345D1026011782
S123575BC640BD868967E7345D10260101C608BD86894018365D102600EBBD86895119362F
S123577B5D102600D7BD868960CC345D2772C6168E0CE2BDC1545D271FBDF22FBD868951B6
S123579B19365D27307F0FAABD8689511E345D2718BD8689722A3839BDED3C5D27DEBDEDD9
S12357BB405D27D8BDF3D820D3C62BBDC4FCC601BDC9F020DCC608BD86894018365D26C59C
S12357DB7D0FAA26C0C640BD868967E7345D26B5BD8689511E345D26ACC62BBD96A020A5BB
S12357FBBD868960DC345D1026FF83BD8689526C365D1026FF78BD86894008345D1026FF95
S123581B6DBD86894890345D1026FF62BD86895BFB365D1026FF57BD86895116345D1026F5
S123583BFF4CC6018E0CE2BDC1545D1027FF3FC62CBD96F6C601F70FAA7E5789BD868950EB
S123585BC3367E5780BD86894605367E5775BD868968F7347E5768BD86895F1F347E575BFA
S123587BBD86895779347E5750BD868965EF347E5743C601BDEB597E5738C6018E0CE2BDD3
S123589BC1D0C631BDC23AC6317EC24E434F4D505554455220415741524400434F4C4C45B6
S12358BB435400424F4E5553004341522043524153480045594542414C4C5300434F4D42D2
S12358DB4F530041434D414700434150545552452053494D4F4E00425245414B4F55540097
S12358FB5355504552204A4554530053555045524A455453004652454E5A5900464F5254C6
S123591B52455353004D555345554D0057415354454C414E44004352594F505249534F4E94
S123593B0044454D4F2054494D4500465249444745005820524F4C4C4F564552205800546A
S123595B5249504C45005354414E44555053003530302054484F5553414E44002564204D29
S123597B494C4C494F4E0025642E35204D494C4C494F4E004C49474854004152524F5753CB
S123599B005448524545004D494C4C494F4E0045585452412042414C4C004D4158494D49D8
S12359BB5A4500465245455A455300444F55424C4500524554494E41205343414E004249C7
S12359DB4720504F494E5453003130204D494C4C494F4E005354415254004E4558542041A1
S12359FB57415244003358204352415348004D415820465245455A4553003258205245548F
S1235A1B494E41205343414E003274BD8689721D38F6183FC1011027038CC603BD92D0E76D
S1235A3B63C101102703AB102400E9C614F7108BC61DF7108C8E03ECC602BD86895376392B
S1235A5BBDBA308E3800BD868941CF398E58A7AFE3BDAA4D8E468B9F148E40049F168E0C9F
S1235A7B57BD9A76BDBBC1C63CBD8FF2C608BDC4FCC606BD8FF2C60CBDB9BFBDBA39BDBAE7
S1235A9B3F8E3800BD868941CF398E58A7AFE3BDAA4D8E468B9F148E40049F168E0C57BDB3
S1235ABB9A76C61EF7108BC620F7108C8E0205C608BD8689537639C60ABD51CA3264E66310
S1235ADBC1011027033C102402A4C614F7108BC61DF7108C8E0013C602BD8689537639C6B6
S1235AFB78BD8FF2BDBA307D182610260273F61412C109102201D14F58491F016E995B1B4D
S1235B1B663C651E64225B3E6283614460175F725F295EE0C102102702D0C1031026FF20A5
S1235B3B7E5A46C610BDB0578E3800BD868941CF39C628F7108BC61DF7108C8E0434C6022F
S1235B5BBD86895376398E598FAFE3BDAA4D8E4CA39F148E40089F168E0C57BD9A768E593C
S1235B7B95AFE3BDAA4D8E4CA39F148E40189F168E0C57BD9A76BDBBC1C63CBD8FF2BDBAB2
S1235B9B308E3800BD868941CF398E599CAFE3BDAA4D8E4CA39F148E40089F168E0C57BDA9
S1235BBB9A768E59A2AFE3BDAA4D8E4CA39F148E40189F1632688E0C57BD9A76BDBBC1C6C5
S1235BDB3CBD8FF2C625BDC29BC625BDC24EC623BDC29BC623BDC24EC612BDC29BC612BD2F
S1235BFBC24EC620BDC29BC620BDC24EC63BBDC29BC63BBDC24EC626BDC29BC626BDC24E1B
S1235C1BC63CBDC29BC63CBDC24EC614F7108BC61CF7108C8E0093C608BD8689537639C616
S1235C3B12BD8FF2C614F7108BC61CF7108C8E0093C608BD8689537639C612BD8FF2C61467
S1235C5BF7108BC61CF7108C8E0093C608BD8689537639C612BD8FF2C614F7108BC61CF706
S1235C7B108C8E0094C608BD8689537639C61EBD8FF2C614F7108BC61CF7108C8E0094C6C0
S1235C9B08BD8689537639C61EBD8FF2C614F7108BC61CF7108C8E0095C608BD8689537686
S1235CBB39C61EBD8FF2C614F7108BC61CF7108C8E0095C608BD8689537639C61EBD8FF2A8
S1235CDBBDF199C63CBD8FF2C61EBD8FF27D1826102700C5F614135CC109102200B2F71413
S1235CFB134F1F01E6890FBAE766BDBA218E3800BD868941CF398E59F5AFE3BDAA4D8E4C0F
S1235D1BA39F148E40089F168E0C57BD9A763262E666C109222F4FEDE458491F016E995D85
S1235D3B3C5ECD5EBA5EA75E945E815E6E5E5B5E485E355D508E4CA39F148E40189F168E2B
S1235D5B536EBD9A76BDBBC1C63CBD8FF2BD5895BDF1DFBD8689722A38C601F70FAA7E98B9
S1235D7B9EF614134F1F01E6890FBA7E5B0CC1022748C1031026FD67C614F7108BC61DF7E7
S1235D9B108C8E0463C602BD86895376397E5AFA7F1413F614137E5CFCC60ABD92D0E76616
S1235DBBF714127E5D05C605BD92D0E763C1041026FC6EC603E7637E5A46C614F7108BC6CB
S1235DDB1DF7108C8E006AE663BD86895376397E5AFAC614F7108BC61DF7108C8E03EFC6EB
S1235DFB02BD86895376397E5A5BC614F7108BC61DF7108C8E021BE663BD86895376397E5F
S1235E1B5A5BC614F7108BC61DF7108C8E00ABC602BD86895376397E5AFA8E4CA39F148E6D
S1235E3B40189F168E5364BD9A767E5D608E4CA39F148E40189F168E59D9BD9A767E5D6056
S1235E5B8E4CA39F148E40189F168E5A15BD9A767E5D608E4CA39F148E40189F168E5A0997
S1235E7BBD9A767E5D608E4CA39F148E40189F168E59AABD9A767E5D608E4CA39F148E4099
S1235E9B189F168E5995BD9A767E5D608E4CA39F148E40189F168E5961BD9A767E5D608EE9
S1235EBB4CA39F148E40189F168E5A00BD9A767E5D608E4CA39F148E40189F168E58BEBD6A
S1235EDB9A767E5D608E3800BD868941CF398E59EFAFE3BDAA4D8E4CA39F148E40089F16A6
S1235EFB8E0C57BD9A768E536EAFE3BDAA4D8E4CA39F148E40189F168E0C57BD9A76BDBB2F
S1235F1BC1C63CBD8FF2BD496F32647E5CE38E3800BD868941CF398E59EFAFE3BDAA4D8E14
S1235F3B4CA39F148E40089F168E0C57BD9A768E5364AFE3BDAA4D8E4CA39F148E40189F17
S1235F5B168E0C57BD9A76BDBBC1C63CBD8FF2BD44D432647E5CE3C617BDB0578E3800BD89
S1235F7B868941CF398E59D9AFE3BDAA4D8E4CA39F148E40089F168E0C57BD9A768E59E460
S1235F9BAFE3BDAA4D8E4CA39F148E40189F168E0C57BD9A76BDBBC16F6F3264C606E7E2D1
S1235FBBC6FFE7E2C616BDC82DC602BD8FF2C606E7E2C6FFE7E2C62EBDC82DC602BD8FF2D1
S1235FDBC606E7E2C6FFE7E2C62FBDC82DC614F7108BC61CF7108C8E0094C608BD868953E8
S1235FFB7639C606BD8FF26CE8113266E66BC1051026FFA8C61EBD8FF27E5CE38E3800BD76
S123601B868941CF39C628F7108BC61DF7108C8E043AC602BD86895376398E59C6AFE3BDB5
S123603BAA4D8E4CA39F148E40089F168E0C57BD9A768E59CDAFE3BDAA4D8E4CA39F148E19
S123605B40189F168E0C57BD9A76BDBBC1C637BDC29BC637BDC24E6F6D3264C606E7E2C66F
S123607BFFE7E2C61BBDC82DC606E7E2C6FFE7E2C62ABDC82DC606E7E2C6FFE7E2C61BBD20
S123609BC82DC606E7E2C6FFE7E2C62ABDC82DC614F7108BC61CF7108C32688E0093C608BD
S12360BBBD8689537639C612BD8FF26C69E669C1031026FFA66F6AC606E7E2C6FFE7E2C658
S12360DB1BBDC82DC606E7E2C6FFE7E2C62ABDC82DC606E7E2C6FFE7E2C61BBDC82DC6068D
S12360FBE7E2C6FFE7E2C62ABDC82DC614F7108BC61CF7108C32688E0094C608BD868953FE
S123611B7639C61EBD8FF26C6AE66AC1041026FFA6BD8689404335C637BDC23AC637BDC213
S123613B4EC63CBD8FF27E5CE38E3800BD868941CF39C628F7108BC61DF7108C8E0436C696
S123615B02BD86895376398E59B5AFE3BDAA4D8E4CA39F148E40089F168E0C57BD9A768E67
S123617B59BEAFE3BDAA4D8E4CA39F148E40189F168E0C57BD9A76BDBBC1C60FBDC29BC62C
S123619B0FBDC24EC60EBDC29BC60EBDC24EC60DBDC29BC60DBDC24EC60BBDC29BC60BBD6F
S12361BBC24EC614F7108BC61CF7108C8E0093C608BD8689537639C612BD8FF2C614F7101B
S12361DB8BC61CF7108C8E0093C608BD8689537639C612BD8FF2C614F7108BC61CF7108CEC
S12361FB8E0093C608BD8689537639C612BD8FF2C614F7108BC61CF7108C8E0094C608BD1F
S123621B8689537639C61EBD8FF2C614F7108BC61CF7108C8E0094C608BD8689537639C6C7
S123623B1EBD8FF2C614F7108BC61CF7108C8E0095C608BD8689537639C61EBD8FF2C61447
S123625BF7108BC61CF7108C8E0095C608BD8689537639C61EBD8FF2BD86894C8E36C63C59
S123627BBD8FF232647E5CE38E3800BD868941CF39C628F7108BC61DF7108C8E0435C6020E
S123629BBD86895376398E598FAFE3BDAA4D8E4CA39F148E40089F168E0C57BD9A768E59F5
S12362BBAAAFE3BDAA4D8E4CA39F148E40189F168E0C57BD9A76BDBBC1C606E7E2C6FFE7CC
S12362DBE2C62DBDC82DC602BD8FF2C606E7E2C6FFE7E2C62CBDC82D3268C602BD8FF2C6E5
S12362FB06E7E2C6FFE7E2C610BDC82DC614F7108BC61CF7108C8E0093C608BD8689537635
S123631B39C606BD8FF2C606E7E2C6FFE7E2C610BDC82DC602BD8FF2C606E7E2C6FFE7E247
S123633BC62CBDC82DC602BD8FF2C606E7E2C6FFE7E2C62DBDC82DC614F7108BC61CF71077
S123635B8C32688E0093C608BD8689537639C606BD8FF2C606E7E2C6FFE7E2C62DBDC82D69
S123637BC602BD8FF2C606E7E2C6FFE7E2C610BDC82DC602BD8FF2C606E7E2C6FFE7E2C65E
S123639B2CBDC82DC614F7108BC61CF7108C8E0094C608BD8689537639C606BD8FF26F6E7A
S12363BB3266C606E7E2C6FFE7E2C616BDC82DC602BD8FF2C606E7E2C6FFE7E2C62EBDC8D3
S12363DB2DC602BD8FF2C606E7E2C6FFE7E2C62FBDC82DC614F7108BC61CF7108C8E00949E
S12363FBC608BD8689537639C606BD8FF26C6E3266E668C1061026FFA9BD868966E936C65C
S123641B3CBD8FF27E5CE38E3800BD868941CF39C628F7108BC61DF7108C8E0431C602BD0D
S123643B86895376398E58B6AFE3BDAA4D8E4CA39F148E40089F168E0C57BD9A768E596189
S123645BAFE3BDAA4D8E4CA39F148E40189F168E0C57BD9A76BDBBC1C678BD8FF26F686F53
S123647B6932642025C614F7108BC61DF7108C8E0094C608BD8689537639C61EBD8FF26C8B
S123649B64E664F1141B1022F839C60CBDB057BDB9CDBDBA3F6D641027039AC601E4641059
S12364BB2603E3E66534048E5982AFE3BDAA4D32638E4CA39F148E40109F168E0C57BD9ADF
S12364DB76BDBAAABDBBC18E3800BDB9EEC606E7E2C601BDBBD73261E664C102102303849E
S12364FBC1051023FF7FC614F7108BC61CF7108C8E0093C608BD8689537639C612BD8FF252
S123651B7E649A8E3800BD868941CF39C628F7108BC61DF7108C8E042EC602BD86895376F2
S123653B398E595AAFE3BDAA4D8E4CA39F148E40089F168E0C57BD9A768E58C4AFE3BDAA60
S123655B4D8E4CA39F148E40189F168E0C57BD9A76BDBBC1BD4A71C63CBD8FF2C615BDC2FB
S123657B9BC615BDC24EC617BDC29BC617BDC24EC61EBDC29BC61EBDC24E6F663264C61424
S123659BF7108BC61CF7108C8E0093C608BD8689537639C606E7E2C6FFE7E2C619BDC82D64
S12365BBC606E7E2C6FFE7E2C628BDC82DC612BD8FF26C663264E662C10326C26F67C614D7
S12365DBF7108BC61CF7108C8E0094C608BD8689537639C606E7E2C6FFE7E2C619BDC82D23
S12365FBC606E7E2C6FFE7E2C628BDC82DC61EBD8FF26C6B3264E667C10326C2C63CBD8FE3
S123661BF2C614F7108BC61DF7108C8E0095C608BD8689537639BD4C43C63CBD8FF27E5C62
S123663BE37F0FA47F0FA58E5232C63DBDB0878E3800BD868941CF39C628F7108BC61DF7B5
S123665B108C8E03F0C602BD86895376398E58B6AFE3BDAA4D8E4CA39F148E40089F168E3D
S123667B0C57BD9A768E58BEAFE3BDAA4D8E4CA39F148E40189F168E0C57BD9A76BDBBC11F
S123669BC61EBD8FF2C608BD8FF2C601D71F8E00B9C60CBD86895376398E0FB0BDAEF5BD9F
S12366BBBA308E4CA39F148E40109F168E58BEBD9A768E5A2EBDBA0EBDBBC1C61EBD8FF2A7
S12366DBC608BD8FF2F6141032645D1026072D7D140B102606CF7D140210260671C640BD6E
S12366FB868967AE345D1026060EC620BD868967AE345D102605ABC601BD868967AE345D05
S123671B10260548C610BD868967AE345D102604E5C604BD868967AE345D10260482C608AA
S123673BBD868967AE345D1026041F7D141A102603C1C601BD868967C5345D1026035EC61D
S123675B02BD868967C5345D102602FBC604BD868967C5345D10260298C608BD868967C573
S123677B345D10260235C610BD868967C5345D102601D2C680BD868967AE345D1026016F36
S123679BC620BD868967C5345D1026010CF61128C1011023006D8E00B9C60CBD86895376E9
S12367BB39BDBA308E0FABBDAEF58E0FB0AFE38E0FABBDAF04F611285A8E0FABBDAFF38EDD
S12367DB0FABAFE38E0FB0BDAF048E0FABBDAE438E4CA39F148E40109F168E0C57BD9A761A
S12367FB8E594DAFE3BDAA4D8E468B9F148E40049F168E0C57BD9A76BD5208BDBBC1BD4F4D
S123681BC532668E00BAC60CBD86895376398E0FB0BDB082BDBA30BD86894ECD398E5A1019
S123683BBDBA0EBDBBC1C63DBD8F09C61EBD8FF20F1F7E5CE38E596AAFE3BDAA4D8E4CA302
S123685B9F148E40109F168E0C57BD9A76BDBAAABDBBC18E3800BDB9EEC606E7E2C601BD78
S123687BBBD73263C614F7108BC61CF7108C8E0095C608BD8689537639C61EBD8FF2C60F3B
S123689BBD8FF27E649A6C65E66534048E5977AFE3BDAA4D32637E64CC8E00B9C60CBD8688
S12368BB89537639BDBA30C605E7E2C6068E5946BD528E8E0FABBDAE438E4CA39F148E4069
S12368DB109F168E0C57BD9A768E5946AFE3BDAA4D8E468B9F148E40049F168E0C57BD9AC2
S12368FB76BD5208BDBBC1BD4FC532637E67A88E00B9C60CBD8689537639BDBA30C603E782
S123691BE2C6068E5357BD528E8E0FABBDAE438E4CA39F148E40109F168E0C57BD9A768ED0
S123693B5357AFE3BDAA4D8E468B9F148E40049F168E0C57BD9A76BD5208BDBBC1BD4FC5D0
S123695B32637E679B8E00B9C60CBD8689537639BDBA30C605E7E2C6068E593CBD528E8EC7
S123697B0FABBDAE438E4CA39F148E40109F168E0C57BD9A768E593CAFE3BDAA4D8E468B47
S123699B9F148E40049F168E0C57BD9A76BD5208BDBBC1BD4FC532637E678E8E00B9C60C9E
S12369BBBD8689537639BDBA30C604E7E2C6058E5931BD528E8E0FABBDAE438E4CA39F140A
S12369DB8E40109F168E0C57BD9A768E5931AFE3BDAA4D8E468B9F148E40049F168E0C575F
S12369FBBD9A76BD5208BDBBC1BD4FC532637E67818E00B9C60CBD8689537639BDBA30C63B
S1236A1B03E7E2C6058E5927BD528E8E0FABBDAE438E4CA39F148E40109F168E0C57BD9A14
S1236A3B768E5927AFE3BDAA4D8E468B9F148E40049F168E0C57BD9A76BD5208BDBBC1BD09
S1236A5B4FC532637E67748E00B9C60CBD8689537639BDBA30C602E7E2C6058E5920BD5215
S1236A7B8E8E0FABBDAE438E4CA39F148E40109F168E0C57BD9A768E5920AFE3BDAA4D8E17
S1236A9B468B9F148E40049F168E0C57BD9A76BD5208BDBBC1BD4FC532637E67678E00B9C5
S1236ABBC60CBD8689537639BDBA30C601E7E2C6058E5917BD528E8E0FABBDAE438E4CA307
S1236ADB9F148E40109F168E0C57BD9A768E5917AFE3BDAA4D8E468B9F148E40049F168E28
S1236AFB0C57BD9A76BD5208BDBBC1BD4FC532637E675A8E00B9C60CBD8689537639BDBAF4
S1236B1B30F6141AE7E2C6028E5910BD528E8E0FABBDAE438E4CA39F148E40109F168E0C8A
S1236B3B57BD9A768E5910AFE3BDAA4D8E468B9F148E40049F168E0C57BD9A76BD5208BDAA
S1236B5BBBC1BD4FC532637E674D8E00B9C60CBD8689537639BDBA30C601E7E2C6068E5832
S1236B7BFBBD528E8E0FABBDAE438E4CA39F148E40109F168E0C57BD9A768E5906AFE3BDAB
S1236B9BAA4D8E468B9F148E40049F168E0C57BD9A76BD5208BDBBC1BD4FC532637E6746A7
S1236BBB8E00B9C60CBD8689537639BDBA30C601E7E2C6068E58F2BD528E8E0FABBDAE4361
S1236BDB8E4CA39F148E40109F168E0C57BD9A768E58F2AFE3BDAA4D8E468B9F148E400413
S1236BFB9F168E0C57BD9A76BD5208BDBBC1BD4FC532637E67398E00B9C60CBD8689537681
S1236C1B39BDBA30C601E7E2C6068E58E4BD528E8E0FABBDAE438E4CA39F148E40109F16F9
S1236C3B8E0C57BD9A768E58E4AFE3BDAA4D8E468B9F148E40049F168E0C57BD9A76BD5201
S1236C5B08BDBBC1BD4FC532637E672C8E00B9C60CBD8689537639BDBA30C601E7E2C60673
S1236C7B8E58DEBD528E8E0FABBDAE438E4CA39F148E40109F168E0C57BD9A768E58DEAFAA
S1236C9BE3BDAA4D8E468B9F148E40049F168E0C57BD9A76BD5208BDBBC1BD4FC532637EB3
S1236CBB671F8E00B9C60CBD8689537639BDBA30C601E7E2C6058E536EBD528E8E0FABBD55
S1236CDBAE438E4CA39F148E40109F168E0C57BD9A768E536EAFE3BDAA4D8E468B9F148EEE
S1236CFB40049F168E0C57BD9A76BD5208BDBBC1BD4FC532637E67128E00B9C60CBD86892C
S1236D1B537639BDBA30C601E7E2C6058E5364BD528E8E0FABBDAE438E4CA39F148E40106A
S1236D3B9F168E0C57BD9A768E5364AFE3BDAA4D8E468B9F148E40049F168E0C57BD9A76DF
S1236D5BBD5208BDBBC1BD4FC532637E67058E00B9C60CBD8689537639BDBA30F61402E7F3
S1236D7BE2C6018E58D7BD528E8E0FABBDAE438E4CA39F148E40109F168E0C57BD9A768EEC
S1236D9B58D7AFE3BDAA4D8E468B9F148E40049F168E0C57BD9A76BD5208BDBBC1BD4FC5E7
S1236DBB32637E66F88E00B9C60CBD8689537639BDBA30F6140BE7E2C6038E58CEBD528EBD
S1236DDB8E0FABBDAE438E4CA39F148E40109F168E0C57BD9A768E58CEAFE3BDAA4D8E464F
S1236DFB8B9F148E40049F168E0C57BD9A76BD5208BDBBC1BD4FC532637E66F13404C60266
S1236E1B8E58C4BD528E8E0FABBDAE438E4CA39F148E40109F168E0C57BD9A768E58C4AF3C
S1236E3BE3BDAA4D8E468B9F148E40049F168E0C57BD9A76BD5208BDBBC1BD4FC532637E11
S1236E5B66EABD589539C61A8E0CE2BDC1D0C620BDC23AC6207EC24EC6018E0CE2BDC2540D
S1236E7BBD868960CC345D270139BD868960DC345D26F6BD8689526C365D26EDBD86894018
S1236E9B08345D26E4BD86894890345D26DBBD86895BFB365D26D2BD86895116345D26C99A
S1236EBBC631BDC29BC6317EC24EC61A8E0CE2BDC254C608BD86894018365D260AC620BD96
S1236EDBC23AC6207EC2D9C620BDC29BC6207EC24EC621BDC23AC6217EC2D90808FF818173
S1236EFB81818181FF0808FFFFC3C3C3C3FFFF0808FFFFFFFFFFFFFFFF080800003C3C3C8C
S1106F1B3C000008080000181818180000B9
S104141200D5
S104141300D4
S1236F28CC0000FD100EFD1010390D1D27110D20260D7D0C4627087C101126037C101039AD
S1236F480D1D27110D20260D7D0C4627087C100F26037C100E39327F8E1012AFE38E806E5F
S1236F68BDAE5C6F623262C1012705E6E4326139E7E4E6E4326139327F8E806EAFE38E1097
S1236F8812BDAE5C6F623262C1012705E6E4326139E7E4E6E43261397D100D26147D100C55
S1236FA8260AC61EBD8FF2C6087E8FF2C6067E8FF2C6027E8FF27D100D26057D100C270689
S1236FC88E5A387EBA0E8E5A2E7EBA0EC64BBDD0135D270FC649BDD0135D2707C601F71097
S1236FE80D2015C64FBDD0135D2614C64BBDD0135D271BC601F7100CC606BD8FF220CDC610
S12370084DBDD0135D27E4C601F7100D20EAC649BDD0135D26DDC64FBDD0135D26D5C64DFB
S1237028BDD0135D27D220CBC62E7E96A0346032783184E7628E00B9C608BD86895376399C
S1237048BDBA308E1017BDAEF5E662C10622264FEDE458491F016E997062707D707070F129
S123706871017111712170E18E802DAFE38E1017BDAF043262E66EC101232133638E101702
S1237088AFE330C4BDAFA7326234408E1017BDAF046AE8103262E66EC10122ED8E1017AF9F
S12370A8E38E1012BDAF048E1017BDAE438E4CA39F148E40109F168E0C57BD9A768E468B7E
S12370C89F148E40049F1630A4BD9A76BD6FBEBDBBC1BD6FA0326A35E0CC8064EDE38E100B
S12370E817BDAF0432627E707DCC8032EDE38E1017BDAF0432627E707D8E803CAFE38E1012
S123710817BDAF0432627E707DCC8050EDE38E1017BDAF0432627E707D8E805AAFE38E10B5
S123712817BDAF0432627E707D424F4E5553004341522043524153480045594542414C4CD1
S12371485300434F4D424F5300434152204348415345004558504C4F44450041434D414749
S123716800434150545552452053494D4F4E00425245414B4F5554005355504552204A45AE
S12371885453004652454E5A5900464F525452455353004D555345554D0057415354454C3A
S12371A8414E44004352594F505249534F4E0044454D4F2054494D45004855584C45590085
S12371C84652494447450047554E2048414E444C4553005820524F4C4C4F56455220580084
S12371E83460327EC601D71F7F100C7F100DC606BD8FF28E00B9C608BD86895376398E6F61
S1237208D4C63DBDB087BDBA308E4CA39F148E40109F168E7131BD9A768E5A2EBDBA0EBDD8
S1237228BBC1C61EBD8FF2C608BD8FF28E1012BDAEF58E1017BDAEF5CC803CEDE38E10126B
S1237248BDAF04F6141032625D102601E9F6140B102601F5F6140210260201C640BD86892F
S123726867AE345D1026020DC620BD868967AE345D1026021BC601BD868967AE345D1026FD
S12372880229C610BD868967AE345D10260237C604BD868967AE345D10260245C608BD8636
S12372A88967AE345D10260253F6141A10260261C601BD868967C5345D1026026DC602BDD1
S12372C8868967C5345D1026027BC604BD868967C5345D10260289C608BD868967C5345DB8
S12372E810260297C610BD868967C5345D102602A5C680BD868967AE345D102602B3C620EE
S1237308BD868967C5345D102602C110BE100E10270119FE10101F305849EDE45849584981
S12373281F011E01E3E41E011F3033AB3440BDF96B32621F108C00002F0C3404C6038E71D0
S1237348CFBD70353261F61128C1011023006D8E00B9C608BD8689537639BDBA308E10178D
S1237368BDAEF58E1012AFE38E1017BDAF04F611285A8E1017BDAFF38E1017AFE38E1012A6
S1237388BDAF048E1017BDAE438E4CA39F148E40109F168E0C57BD9A768E71DBAFE3BDAABA
S12373A84D8E468B9F148E40049F168E0C57BD9A76BD6FBEBDBBC1BD6FA032668E00BAC688
S12373C808BD8689537639BDBA308E1012BDAE438E4CA39F148E40109F168E0C57BD9A7645
S12373E88E7131AFE3BDAA4D8E468B9F148E40049F168E0C57BD9A76BD6FBEBDBBC1BD6F65
S1237408A08E1012BDB082BDBA30BD86894ECD398E5A10BDBA0EBDBBC1C63DBD8F09C61E68
S1237428BD8FF2C608326435607E8FF2FE10101027FF137E731E3404C6028E7137BD7035FC
S12374483261F6140B1027FE0B3404C6038E7141BD70353261F614021027FDFF3404C601C4
S12374688E714ABD70353261C640BD868967AE345D1027FDF3C601E7E2C6058E7151BD704B
S1237488353261C620BD868967AE345D1027FDE5C601E7E2C6058E715BBD70353261C60136
S12374A8BD868967AE345D1027FDD7C601E7E2C6068E7163BD70353261C610BD868967AED9
S12374C8345D1027FDC9C601E7E2C6068E7169BD70353261C604BD868967AE345D1027FDE9
S12374E8BBC601E7E2C6068E7177BD70353261C608BD868967AE345D1027FDADC601E7E24D
S1237508C6068E7180BD70353261F6141A1027FD9F3404C6028E718BBD70353261C601BD25
S1237528868967C5345D1027FD93C601E7E2C6058E7192BD70353261C602BD868967C534D7
S12375485D1027FD85C602E7E2C6058E719BBD70353261C604BD868967C5345D1027FD7720
S1237568C603E7E2C6058E71A2BD70353261C608BD868967C5345D1027FD69C604E7E2C6BF
S1237588058E71ACBD70353261C610BD868967C5345D1027FD5BC605E7E2C6068E71B7BD79
S12375A870353261C680BD868967AE345D1027FD4DC603E7E2C6068E71C1BD70353261C675
S12375C820BD868967C5345D1027FD3FC605E7E2C6068E71C8BD703532617E7313327FBDF5
S12375E871E8C605BD92D0E7E4BD6F5E5D27526DE42721E6E4C101273BC1021027006BC164
S1237608032731C10426188E0362C602BD8689537639200B8E0308C602BD8689537639C657
S12376281EBD8FF2C608BD8FF20F1FBD86896FB93B7E989E8E0165C602BD8689537639201B
S1237648DEBD6F7F5D27D86DE42737E6E4C101274BC102273BC103271CC10426C28E02F62D
S1237668C602BD868953763920B58E0163BD868953763920AA8E029EC602BD868953763945
S1237688209D8E0279C602BD86895376397E76278E028ABD86895376397E76278E0289C685
S10D76A802BD86895376397E7627E9
S12376B2F6101D2702C601392564004352594F20434C4157003440327FCE0254C601E7E480
S12376D2201511830254102700766DE4102700693342C606BD8FF2BDBA21C60CBDB9BFBDFC
S12376F2BA3F8E3800BD868941CF39F6101CE7E28E76BAAFE3BDAA4D8E56DC9F148E0A1B8B
S12377129F168E0C57BD9A768E468B9F148E401C9F168E76BDBD9A76BD86895DE339BDB9E6
S1237732CD30C4BD90C9BD86895D7639BDBB9D3263118302701026FF89335E6FE47E76E45A
S1237752C601E7E47E76E27D18432721202AF60CA1C1022723C649BDD0135D2608C64DBD87
S1237772D0135D2713BDB305C601BD8FF2C6028E0CF2BDC1545D26D6397D18432721202ADD
S1237792F60CA1C1012723C64BBDD0135D2608C64FBDD0135D2713BDB332C601BD8FF2C62F
S12377B2028E0CF2BDC1545D26D6398E7B85BD937E5D2601398E7B857E94DE8E7B85BD934C
S12377D27E5D2601398E7B857E94DEC6028E0CF2BDC1545D2601397EB3C7F614145CC104C0
S12377F22216F714144F58491F016E997800780D781F7828783178167F1414BD86896CB902
S12378123B7EE2C9BD868965C13B7EE2C9BD8689694B3B7EE2C9BD86896CAF3B7EE2C9BDAC
S123783286896AE53B7EE2C98E7B857E93B90D1D2601398E7B857E93DA327FE7E4C10110C7
S1237852270092C10210270118C10327033261397D184326F8C601F7101DC6038E0CF2BD99
S1237872C1D0BDB2B2C606BD8FF22005C606BD8FF2C614BDD0135D27F3BDB3BEBDB20FC6A4
S12378923CBD8FF2BDB1E8C63CBD8FF22005C606BD8FF2C63BBDD0135D26F3C63CBD8FF23C
S12378B2BDB297C606BD8FF22005C606BD8FF2C615BDD0135D27F3C6038E0CF2BDC254BD9C
S12378D2B3C7C6028E0CF2BDC1D0C63CBD8FF27F101D3261397D101D1026FF717D18431086
S12378F226FF6AC606BD8FF2C615BDD0135D10260129C606BD8FF2C6038E0CF2BDC1545D13
S12379121026FF49C601F7101DBDB2B2C606BD8FF22005C606BD8FF2C614BDD0135D27F39D
S1237932BDB3BEBDB20FC63CBD8FF2BDB1E8C63CBD8FF22005C606BD8FF2C63BBDD0135D82
S123795226F3C63CBD8FF2BDB297C606BD8FF22005C606BD8FF2C615BDD0135D27F37E7891
S1237972C97D101D1026FEE57D18431026FEDEBD8689721D38C601F7101DC628F7108BC6B7
S12379921FF7108C8E0418E6E4BD8689537639BDBD87C627BDC4FCC6038E0CF2BDC1D0BD12
S12379B2B2B2F60CA21027007DC1011027007FC6F0BD8FF22005C606BD8FF2C614BDD013E0
S12379D25D27F3BDB3BEBDB20FC606BD8FF2BDB1E8C606BD8FF22005C606BD8FF2C63BBD17
S12379F2D0135D26F3C63CBD8FF2BDB3A4C628F7108BC61FF7108C8E0417C602BD8689533C
S1237A127639C63CBD8FF2C6028E0CF2BDC254BDE2C9BD8689722A387E785FC6038E0CF288
S1237A32BDC2547E7904C678BD8FF27E79CDC6B4BD8FF27E79CDC678BD8FF27D1843260B21
S1237A520D1D26087D101D102700A0397D0C4627FA7D101D26F58E7B85BD937E5D26068ED6
S1237A727B85BD94EEC606E7E2C6FFE7E2C62DBDC82DC606E7E2C6FFE7E2C62CBDC82DC65C
S1237A9206E7E2C6FFE7E2C610BDC82DC606BD8FF2C606E7E2C6FFE7E2C62DBDC82D32687F
S1237AB2C606E7E2C6FFE7E2C62CBDC82DC606E7E2C6FFE7E2C610BDC82DC606BD8FF2C66E
S1237AD206E7E2C6FFE7E2C62DBDC82DC606E7E2C6FFE7E2C62CBDC82D3268C606E7E2C6D2
S1237AF2FFE7E2C610BDC82D326239C6037E784BC6128E0CE2BDC1545D272EBDB3C7C60272
S1237B128E0CF2BDC1D0C63CBD8FF2C603BD784B7F101DBDE7C7C6128E0CE2BDC1545D272B
S1237B320139BD8689722A3839BDBD8220CDC6037E784BC6027E784B7F1414BDB3C7C6017B
S1237B527E784BC6028E0CF2BDC1D0BDB3C77F101DC6017E784BC6F0BD8FF2C6F0BD8FF259
S1237B72C6028E0CF2BDC1D0BDB3C77F101DC6017E784B7B457B0292999297002D000E1284
S1087B92450A00101C6F
S104141400D3
S9030000FC
