S123400036F60EE039327FE7E4F60EDFEAE4F70EDF3261397F0EDF39F40EDF2702C60139BD
S1234020F60EE12702C60139C606BD92D0C1052306C613F70EDF394F58491F016E99404007
S1234040403140524058405E4064404CC60DF70EDF39C616F70EDF39C61AF70EDF39C61532
S1234060F70EDF39C619F70EDF3943415443480053494D4F4E0025642042414C4C205341C2
S12340805645002564205345430053484F4F54004152524F575300327DBDBA21BD8689502F
S12340A0F539C610E7E25F8E4799BD99D06F626F63C601E7613261C607E4E42606E662C826
S12340C001E7626D61102700988E5A409F148E62019F168E406ABD9A66BD86894904385DD1
S12340E0102600986D62102700B7F60EC8E7E2F60ECAE7E28E4083AFE3BDAA4D8E468B9F70
S1234100148E48119F168E0C57BD9A768E0ED5BDAE438E56DC9F148E62179F168E0C57BD31
S12341209A663264BDBBC1C63CBD8FF2BDBA21BD868950F539C610E7E25F8E4799BD99D0F8
S12341406C61E661C40132615D1026FF6AE661C801E761C607E4E41027FF626D611026FF6B
S1234160688E5A409F148E62019F168E4070BD9A66BD86894904385D1027FF68BD868949F6
S12341805E3834048E4076AFE3BDAA4D8E468B9F148E321C9F168E0C57BD9A7632637E410E
S12341A0248E56DC9F148E48109F168E408ABD9A768E56DC9F148E48199F168E4090BD9AD8
S12341C0767E4124434155474854003460BDBA30C61EF7108BC61BF7108C8E02AFC602BDDD
S12341E08689537639BD868950F539C610E7E25F8E4799BD99D08E0ED0BDAE43CE00148E44
S123420056DCAFC4108E00168E6215AFA48E0C57BD9A668E5A40AFC48E6201AFA48E41C4C9
S1234220BD9A66BDBBC1C678BD8FF27E989E33204D4F52450032204D4F52450031204D4F5C
S1234240524500327FC602BD92D0E7E4102601D5C628F7108BC61CF7108C8E02E7C602BD63
S12342608689537639BDBA21BD868950F539C610E7E25F8E4799BD99D0F60EC832615D10E9
S12342802701C0C101102701E0C102102701C78E0ED0BDAE438E56DC9F148E62159F168EC1
S12342A00C57BD9A66BDBBC1C678BD8FF28E56DC9F148E62159F168E0C57BD9A666DE410E9
S12342C02600B1BDBA3FC612E7E2C6688E4801BD99D0BDBBC1C60AF7108BC61CF7108C8EE3
S12342E001F8C608BD8689537639C60CBD8FF2C606E7E2C64C8E481BBD99D0C60AF7108BF5
S1234300C61CF7108C8E01F9C608BD8689537639BDBBC1C60CBD8FF2C612E7E2C6308E484A
S123432001BD99D0BDBBC1C60AF7108BC61CF7108C8E01F8C608BD8689537639C60CBD8F01
S1234340F2C606E7E2C6148E481BBD99D0C60AF7108BC61CF7108C8E01F9C608BD86895395
S12343607639C60CBD8FF2BDBBC1C63CBD8FF232647E989EE6E4C10126F7BDBA3FC612E799
S1234380E25F8E4835BD99D0BDBBC1C60AF7108BC61CF7108C8E01F8C608BD868953763974
S12343A0C60CBD8FF2C606E7E2C61C8E484FBD99D0C60AF7108BC61CF7108C8E01F9C608FA
S12343C0BD8689537639BDBBC1C60CBD8FF2C612E7E2C6388E4835BD99D0BDBBC1C60AF7F2
S12343E0108BC61CF7108C8E01F8C608BD8689537639C60CBD8FF2C606E7E2C6548E484FA2
S1234400BD99D0C60AF7108BC61CF7108C8E01F9C608BD8689537639BDBBC1C63CBD8FF2FE
S123442032647E989EC1011026FE3AC628F7108BC61CF7108C8E02E8C602BD8689537639FB
S12344407E42658E5A409F148E62019F168E422EBD9A667E428F8E5A409F148E62019F1627
S12344608E423CBD9A667E428F8E5A409F148E62019F168E4235BD9A667E428F346010AE3C
S1234480663420ACE1221B3384BDB9CD30C4BD90C9BDBB9DC606BD8FF23342344010ACE1EB
S12344A024E735E0342031848E5ABCBDBA0EBDB9CD30A4BD90C9BDBB9DC60635207E8FF244
S12344C043415054555245003460BDBA21C61EF7108BC61BF7108C8E02AFC602BD86895388
S12344E076398E02A2AFE38E0290BD447C8E0276BD44A4C628F7108BC61BF7108C8E0188F2
S1234500C602BD86895376398E028E34108E0276BD447CC60CBDB9BFBDBA3FCE5A408E0069
S123452014EF84108E00168E3408AFA48E44C0BD9A768E0014EF848E5418AFA48E4070BD63
S12345409A76BD86895DE339BDB9CD8E028EBD90C9BD86895D7639BDBB9DC63CBD8FF27FDF
S12345600EE0C63CBD8FF27E989E7F0EC8C603F70EC98E0EDABDAEF57F0EC77F0EDF7F0E46
S1234580E1397E456A0D1D27040D202701398E47877E94EE8E47877E94325D2706C601F7A9
S12345A00EE1397F0EE1C6038E47877E94328E47877E937E8E47877E937B8E4787BD937EFB
S12345C05D2601398E47877E93770D1D260139C6128E0CE2BDC1545D26F48E47877E93B9E9
S12345E00D1D2601398E47877E93DA7F0EDFBDE5317F0EE07C0EC9C610BD86896796348E86
S123460047877E94CD7C0EC88E0ED0BDAEF5C610BD868967AE345D2757C615BDB0578E8058
S12346207DAFE38E0ED0BDAF0432628E0ED0AFE38E0ECBBDAF048E0ED0AFE38E0EDABDAF42
S1234640043264F60EC8F10EC92539C617BDB0578E8087AFE38E0ECBBDAF04CC8087EDE388
S12346608E0EDABDAF04C632BD96A032647E45EBC612BDB057CC806EEDE38E0ED0BDAF041F
S1234680326220A7BD4028BDE531C6317E96A08E4787BD937E5D2703BD45EB7F0EDF7F0E81
S12346A0E0397F0EDFBDE5317F0EE07C0EC9C610BD86896796347EF3D87F0EDF7F0EE0C623
S12346C010BD868967AE345D260AC628BDC23AC6287EC24EC628BDC23AC6287EC2D97E468F
S12346E0B97F0EE18E4777C63FBDB099BDB3C7C6028E0CF2BDC1D0BDBD82F6183CBD86894D
S12347004964387F0EC8BDF156C628BDC29BC628BDC24EC61EBD8FF2C628BDC23AC628BD20
S1234720C2D9C610BD868967AE345D263B8E0ECBBDAEF58E0ED0BDAEF58E0ED5BDAEF58E3F
S1234740806EAFE38E0ED5BDAF043262C61EBD8FF2C61EBD8FF2C61EBD8FF2BD4028BDE533
S123476031BD8689583134398E807DAFE38E0ED5BDAF04326220D5C601F70EE0C60ABD8FF3
S1234780D77F0EE07E8F4B46E146A2929940202F303223153E30020ECA3011C0030000FFCB
S12347A000E00F0080E301703C00C0C101183800E0800118700074800108E0077E80000C4D
S12347C0F0077F800106F0BB7F800107F057FFC10103F86BFAE10001C07C807F000300009E
S12347E0003C000300000000000702000000000E0300000000FC0100000000FC0100000062
S12348000018083E0000FF8707FFCF0FFFDF0FFF8F0FFF8F07FF0700FC03001808FC030089
S1234820FF0700FF8F07FFCF0FFFDF0FFFDF0FFF87073E0000180800C0071EFE0F3FFF0FF8
S1234840BFFF0F1FFF0F1EFF0F00FE0F00FC03180800FC0300FE0F1EFF0F3FFF0FBFFF0FB0
S10C4860BFFF0F1EFE0F00C0078C
S12348694D554C544942414C4C00524541445900465245455A45003440327FBDBA21C628A4
S1234889F7108BC61CF7108C8E0072C608BD8689537639CE015EBDBA2130C4BD90C9BDBB21
S12348A99DC606BD8FF233421183017A26E8BDBA21C60CBDB9BFBDBA3FC6038E0CE2BDC19A
S12348C9545D1027006F8E5A409F148E40089F168E4869BD9A768E5A409F148E4A189F1682
S12348E98E4873BD9A76BD86895DE339BDB9CD8E0178BD90C9BD86895D7639BDBB9DC6033A
S12349098E0CE2BDC1545D2724F60EE2E7E45CF70EE2C601E4E4262FC628F7108BC61EF761
S1234929108C8E0437C602BD8689537639C63CBD8FF27E989E8E5A409F148E40089F168E87
S12349494879BD9A76209FC628F7108BC61EF7108C8E0438C602BD8689537639C63CBD8F58
S1234969F27E989E7C140EC6038E0CE2BDC1D07F140DBDD817C60FBDC23AC60FBDC24EC611
S12349890EBDC23AC60EBDC24EC60DBDC23AC60DBDC24EC60BBDC23AC60B7EC24EBDD817E1
S12349A9C60FBDC23AC60FBDC24EC60EBDC23AC60EBDC24EC60DBDC23AC60DBDC24EC60B8F
S12349C9BDC23AC60B7EC24E7F140D7F0EE27F140E7F0EE3C60FBDC23AC60FBDC24EC60E8E
S12349E9BDC23AC60EBDC24EC60DBDC23AC60DBDC24EC60BBDC23AC60B7EC24EF6140EC45F
S1234A09032712C1012715C102271BF6140DBD86894F643439F6140DBD5A3F39F6140DBDCD
S1234A29868946F83439F6140DBD62F139327FF6140EC403F1140D25257D18442614F61842
S1234A4945C10110270060C602E7E2C601BDB40A3261C623BDC4FCC63332617E96A0BDD80A
S1234A69A9C6038E0CE2BDC254F60EE2E7E45CF70EE2C601E4E42617C628F7108BC61EF74D
S1234A89108C8E0437C602BD868953763920AAC628F7108BC61EF7108C8E0438C602BD8678
S1234AA9895376397E4A42C602E7E2C603BDB40A32617E4A5BBDD817F6140EC403F1140D2C
S1234AC910250072C60FBDC23AC60FBDC24EC60EBDC23AC60EBDC24EC60DBDC23AC60DBDA8
S1234AE9C24EC60BBDC23AC60BBDC24EF6140DC1021027006D2309C1032749C104270F395F
S1234B09C10126FBC60FBDC23AC60F7EC2D9C60FBDC23AC60FBDC2D9C60EBDC23AC60EBD50
S1234B29C2D9C60DBDC23AC60DBDC2D9C60BBDC23AC60B7EC2D9BDD8A9C6038E0CE2BDC2A0
S1234B49547E4ACDC60FBDC23AC60FBDC2D9C60EBDC23AC60EBDC2D9C60DBDC23AC60D7E0E
S1234B69C2D9C60FBDC23AC60FBDC2D9C60EBDC23AC60E7EC2D9C60AF7108BC61BF7108C82
S1234B898E0201C608BD8689537639F6140DC10422085CF7140DC105231CBDE12DBDE6F2FC
S1234BA9BD868960CC345D270139BD868960DC345D26F67E4A364F58491F016E994BC84BD6
S1234BC9A34C724C4C4C1C4BD44BE3C60BBDC29BC60BBDC24EC61EBD8FF2C60FBDC23AC61B
S1234BE90FBDC2D9C60EBDC23AC60EBDC2D9C60DBDC23AC60DBDC2D9C60BBDC23AC60BBDB9
S1234C09C2D9BDE12DBDE6F2BD868960CC345D26982097C60DBDC29BC60DBDC24EC61EBD60
S1234C298FF2C60FBDC23AC60FBDC2D9C60EBDC23AC60EBDC2D9C60DBDC23AC60DBDC2D9BB
S1234C497E4BA3C60EBDC29BC60EBDC24EC61EBD8FF2C60FBDC23AC60FBDC2D9C60EBDC21C
S1234C693AC60EBDC2D97E4BA3C60FBDC29BC60FBDC24EC61EBD8FF2C60FBDC23AC60FBD82
S1234C89C2D97E4BA3C604F7140DBD4B7F390D1D27057D0C46260139C6038E0CE2BDC154C2
S1124CA95D27F4C6128E0006BD8689535F393924
S105140D0000D9
S1234CB839F60EFA2702C60139425245414B004F55540025642042414C4C20534156450008
S1234CD8256420534543204C454654002564204849540053484F4F54204556455259544887
S1234CF8494E4700327E6F61C601E7E4BDBA21BD868950F5398E5A409F148E01009F168E19
S1234D184CC1BD9A9A8E5A409F148E63099F168E4CC7BD9A66BD86894904385D1026006944
S1234D38E661C10110270083C1021027008F6D611027006A8E468B9F148E321C9F168E0C5F
S1234D5857BD9A768E0EE6BDAE438E468B9F148E321C9F168E0C57BD9A76BDBBC1C63CBD8A
S1234D788FF26CE4CC0005EDE3E6624F1F01BDF95A32621F105D1026FF726C61E661C10240
S1234D981023FF686F617E4D04BD8689495E3834048E4CCBAFE3BDAA4D32637E4D4C8E4C6A
S1234DB8EBAFE3BDAA4D32627E4D4CF60EE5E7E28E4CD8AFE3BDAA4D32637E4D4CF60EE4BD
S1234DD8E7E28E4CE4AFE3BDAA4D32637E4D4C346010AE663420ACE1221B3384BDB9CD303E
S1234DF8C4BD90C9BDBB9DC606BD8FF23342344010ACE124E735E03460327C3384E763E6CF
S1234E186A4FEDE410AE6BBDBA21C60CBDB9BFBDBA3F8E5A409F14AEE4E6631F985F34105E
S1234E38AAE0EAE0DD1630A4BD9A76BD86895DE339BDB9CD30C4BD90C9BD86895D7639BD47
S1234E58BB9DC606326435607E8FF2327EC607BD92D0F70EFBBDBA21C614F7108BC61CF76F
S1234E78108C8E009BC604BD8689537639F60EFBC106232C8E02D6AFE38E02CEBD4DE78ECF
S1234E980EE6BDAE438E0C57AFE3C608E7E2C6548E02D6BD4E0F3265C61EBD8FF27E989E33
S1234EB84FEDE458491F016E994EC34E8C4EFD4F294F554F814FAD4ED18E0336AFE38E03C7
S1234ED822BD4DE78E0EE6BDAE438E0C57AFE3C608E7E2C6548E0336BD4E0F3265C61EBD26
S1234EF88FF27E989E8E02B8AFE38E02A4BD4DE78E0EE6BDAE438E0C57AFE3C608E7E2C652
S1234F18548E02B8BD4E0F3265C61EBD8FF27E989E8E02CCAFE38E02BABD4DE78E0EE6BDEA
S1234F38AE438E0C57AFE3C608E7E2C6548E02CCBD4E0F3265C61EBD8FF27E989E8E02F6C7
S1234F58AFE38E02D8BD4DE78E0EE6BDAE438E0C57AFE3C608E7E2C6548E02F6BD4E0F3214
S1234F7865C61EBD8FF27E989E8E0308AFE38E02F6BD4DE78E0EE6BDAE438E0C57AFE3C6BF
S1234F9808E7E2C6548E0308BD4E0F3265C61EBD8FF27E989E8E0320AFE38E030ABD4DE71B
S1234FB88E0EE6BDAE438E0C57AFE3C608E7E2C6548E0320BD4E0F3265C61EBD8FF27E98D7
S1234FD89E342031848E5ABCBDBA0EBDB9CD30A4BD90C9BDBB9DC60635207E8FF2425245AA
S1234FF8414B4F555400505249534F4E00327FC602BD92D0E7E4BDBA39BDBA3FE6E4C101E1
S123501827488E02D6AFE38E02CEBD4DE78E02A4BD4FD98E02B8AFE38E02A4BD4DE78E0216
S1235038BABD4FD98E02CCAFE38E02BABD4DE78E4FF5AFE3C618E7E2CB288E02CCBD4E0F18
S12350583269C678BD8FF27E989E8E02CCAFE38E02BABD4DE78E02D8BD4FD98E02F6AFE3DB
S12350788E02D8BD4DE78E0308AFE38E02F6BD4DE78E02CEBD4FD98E02D6AFE38E02CEBDC3
S12350984DE732688E4FFEAFE3C608E7E2CB388E02D6BD4E0F8E4CC1AFE3C618E7E2CB28D8
S12350B88E02D6BD4E0F32667E505A34207C0EE4108E0EEB34208E0EE6BDAF0434208E0E05
S12350D8F5BDAF0430A4BDB0823264C63635207E96A00D1D27040D20270139BD86895831B9
S12350F8348E52537E94EE8E52537E94325D2706C601F70EFA397F0EFAC6038E52537E9498
S1235118328E52537E937E8E52537E937B8E5253BD937E5D2601398E52537E93770D1D26F7
S12351380139C6128E0CE2BDC1545D26F48E52537E93B98E5253BD937E5D2601398E52538E
S12351587E94DE0D1D2601398E52537E93DA7F0EE48E0EF5BDAEF57F0EFA397E5166C6047A
S1235178BD868967AE345D260AC62ABDC23AC62A7EC24EC62ABDC23AC62A7EC2D97E517653
S12351987F0EFABDB3C7C6028E0CF2BDC1D0BDBD82F6183CBD8689496438C604BD8689679F
S12351B8AE345D10270082C628F7108BC61DF7108C8E0340C602BD8689537639C62ABDC20F
S12351D89BC62ABDC24EC61EBD8FF2C62ABDC23AC62ABDC2D98E8050AFE38E0EEBBDAF0461
S12351F88E0EF0BDAEF5C604BD868967AE3432625D261BC617BDB0578E8087AFE38E0EE64C
S1235218BDAF043262C604BD868967963439C61BBDB057CC809BEDE38E0EE6BDAF0432628C
S1235238C604BD8689679634397F0EE48E0EE6BDAEF58E0EEBBDAEF57E51BF51984CB8920B
S1105258994CB934350025175E30020EE57F
S12352657F0F057F0F0639F60F052702C60139464F5254524553530025642042414C4C2036
S123528553415645003130204D494C4C494F4E004A41434B504F54204C4954002564204A39
S12352A541434B504F5453204D414445005355504552204A41434B504F54204C4954005382
S12352C5484F4F5420256420454E41424C452053555045520000327DBDBA3FBD868950F5F6
S12352E539BE0C91BDAE438E468B9F148E320D9F168E0C57BD9A768E5A409F148E64019FA4
S1235305168E5274BD9A66F60F06265CF60F03C40310270071F60F0410270077C1011027A9
S1235325008EC102102700A5BDBBC1C63CBD8FF2F60F035CE762C11D23137F0F03F60F0463
S12353455CC102102200EDF70F047E52DDF70F03CC0014EDE3E6644F1F01BDF95A32621F1A
S1235365105D1026FF7220D534048E527DAFE3BDAA4D8E468B9F148E321C9F168E0C57BDEF
S12353859A76326320A28E52DAAFE3BDAA4D32627E532D8E528AAFE3BDAA4D8E4F3F9F148C
S12353A58E55159F168E0C57BD9A6632627E532D8E5295AFE3BDAA4D8E4F3F9F148E5C156E
S12353C59F168E0C57BD9A6632627E532DF60F01E7E28E52A1AFE3BDAA4D8E468B9F148E99
S12353E555139F168E0C57BD9A66BD648D32635D271D8E52B2AFE3BDAA4D32628E468B9F8B
S1235405148E5F1A9F168E0C57BD9A667E532DF60F014FEDE4CC0005EDE3AE62BDF95A32EE
S1235425621F10C0055034048E52C4AFE3BDAA4D326320C87F0F047E52DD346010AE6634F3
S123544520ACE1221B3384BDB9CD30C4BD90C9BDBB9DC606BD8FF23342344010ACE124E7A5
S123546535E03440327FC603BD92D0E7E4C1011027008310250068C1022615C614F7108BB3
S1235485C61DF7108C8E014AE6E4BD8689537639C60AF7108B7F108C8E0378C602BD868902
S12354A5537639BDBA30CE01EEBDB9CD30C4BD90C9BDBB9DC606BD8FF23342118301FA26E7
S12354C5E8CE01F8BDB9CD30C4BD90C9BDBB9DC606BD8FF2335E118301EC26E87E989EC60E
S12354E514F7108BC61DF7108C8E02B3C602BD8689537639209AC614F7108BC61DF7108C12
S12355058E02D2C602BD86895376397E5495327DF6183FC10110270209F6183EC1011027DE
S1235525011EC603BD92D0E762C601F7108BC61DF7108C8E0098C608BD8689537639C60CAF
S1235545BD8FF2C601F7108BC61DF7108C8E0098C608BD8689537639C60CBD8FF2C601F7A5
S1235565108BC61DF7108C8E007CC608BD8689537639C61EBD8FF2E662C10722304FEDE4C7
S123558558491F016E99558D559D56C756DF56F7570F569756AF567FC614F7108BC61DF754
S12355A5108C8E02B3C602BD8689537639C601F7108BC61DF7108C8E0098C608BD8689538B
S12355C57639C60CBD8FF2C601F7108BC61DF7108C8E0098C608BD8689537639C60CBD8F54
S12355E5F2C601F7108BC61DF7108C8E0098C608BD8689537639C60CBD8FF2C602F7108BB5
S1235605C61DF7108C8E007CC608BD8689537639C60CBD8FF2F60F01C4012621E662C10139
S123562527402526C1022615C614F7108BC61DF7108C8E0375E662BD86895376397E8F4B5B
S1235645C605BD92D0E7627E552EC614F7108BC61DF7108C8E02D4C602BD86895376397EB3
S12356658F4BC614F7108BC61DF7108C8E0374C602BD86895376397E8F4BC614F7108BC640
S12356851DF7108C8E045AC602BD86895376397E55B2C614F7108BC61DF7108C8E046AC6A6
S12356A502BD86895376397E55B2C614F7108BC61DF7108C8E046CC602BD86895376397E98
S12356C555B2C614F7108BC61DF7108C8E0166C602BD86895376397E55B2C614F7108BC696
S12356E51DF7108C8E0292C602BD86895376397E55B2C614F7108BC61DF7108C8E0488C6F2
S123570502BD86895376397E55B2C614F7108BC61DF7108C8E0470C602BD86895376397E33
S123572555B2C60BBD92D0E762C1071023FDFACBFDE7627E552E327F6FE4C60AF7108BC6F0
S12357451DF7108C8E0088C608BD8689537639C61EBD8FF26CE4E6E4C10826DE7E8F4B324B
S12357657FF6183BE7E4270FF70F06C63CBD8FF27A0F066AE426F47F0F067E8F4B34603262
S123578578AF66E765E66E4FED62AE6FAFE4BDBA21C60CBDB9BFBDBA3F108E5A40CE001416
S12357A510AFC4CE40088E0016EF848E5274BD9A768E001410AF84AE62E6651F985F341075
S12357C5AAE0EAE0CE0016EDC4AEE4BD9A76BD86895DE339BDB9CDAE66BD90C9BD86895D9D
S12357E57639BDBB9DC61E326835607E8FF24A41434B504F54003440C605BD92D0F70F0258
S1235805BDBA218E5513C656BDB099F60F02C101275E2530C102102700818E01ECAFE38E16
S123582501E2BD543FCE01EC3262BDB9CD30C4BD90C9BDBB9DC606BD8FF2335E118301E06B
S123584526E820298E047CAFE38E046EBD543F8E0488AFE38E047EBD543F8E57F3AFE3C6BC
S123586518E7E2C6368E0488BD578232677E989E8E046CAFE38E0456BD543F8E047CAFE3DD
S12358858E046EBD543F8E57F3AFE3C618E7E2C6368E047CBD5782326720D28E0488AFE3C7
S12358A58E047EBD543F8E046CAFE38E0456BD543F8E57F3AFE3C618E7E2C6368E0490BDCB
S12358C55782326720A74D554C544942414C4C003420BDBA21108E045434208E0426BD54E1
S12358E53F8E58CBAFE3C618E7E2CB2830A4BD5782C63CBD8FF27E989E342031848E5ABC78
S1235905BDBA0EBDB9CD30A4BD90C9BDBB9DC60635207E8FF28E80A0AFE38E0EFCBDAF044F
S1235925C61CBDB05732627D18442612F61845C1012715C602E7E2C601BDB40A3261C63363
S1235945BDC4FCC63A7E96A0C602E7E2C603BDB40A3261C633BDC4FCC63A7E96A0327E7C4F
S12359650F018E8087AFE38E0EFCBDAF04C617BDB05732627D18442614F61845C10110274B
S123598500AAC602E7E2C601BDB40A3261F60F014FEDE4CC0005EDE3AE62BDF95A32621F54
S12359A510C102102700752240C10110270065C62EBDC4FCC638BD96A0F60F01C101234210
S12359C5C1032248C602BD8689695134F60F014FEDE4CC0005EDE3AE62BDF95A32621F1064
S12359E55D2603BD64B5326239C1032737C10426BEC632BDC4FCC638BD96A0F60F01C1017C
S1235A0522BEC603BD868969513420C0BD8689697E3420B8C62FBDC4FC7E59B9C630BDC402
S1235A25FC7E59B9C631BDC4FC7E59B9C602E7E2C603BDB40A32617E5992327FE7E4BD863D
S1235A4589521E37C601F70F058E573BC654BDB0997F0F037F0F04F6183BF70F068E5BE6B4
S1235A65BD92688E806EAFE38E0EFCBDAF04C612BDB05732620D20271BBD496DBDB1790D4A
S1235A85202720BD8689722A38C601BD868967B634326139C637BD96A0BD496DBDB1790DEF
S1235AA52026E0C628BDC4FCC601BDC29BC601BDC24EC678BD8FF2C601BDC23AC601BDC295
S1235AC5D9C60FBDC23AC60FBDC24EC60EBDC23AC60EBDC24EC60DBDC23AC60DBDC24EC694
S1235AE50BBDC23AC60BBDC24E0D201026FF94C602BD92D05D2748C628F7108BC61DF71028
S1235B058C8E0275C602BD8689537639C6B4BD8FF20D201026FF6CE6E4FB106BC104233671
S1235B25C605BD86895B5038BD868967EF348E5764C655BDB099BD868971B93B7E5A88C6CB
S1235B4528F7108BC61DF7108C8E029EC602BD868953763920B6BD86895B503820CA7D0F4D
S1235B65052715BD868967993B8E5BE6BD91CFBD8689693634BD64A37F0F057F0F0639BD68
S1235B85868967993B7D0F052601398E5BE6BD91CFBD64A3C6B4BD8FF27F0F05BD86896991
S1235BA53634BDE57EBD868956B137397D0F05260139C626E7E2C639BD96073261390D1D1A
S1235BC527057D0F05260139C6218E0004BD8689535F39398E0EFCBDAEF57F0F017F0F061B
S1125BE53900000537390026921A00001E00000F
S1235BF47F0F127F0F1139F60F122702C6013957415354450025642042414C4C2053415683
S1235C1445003135204D494C4C494F4E004A41434B504F54204C4954002564204A41434BB6
S1235C34504F5453204D414445005355504552204C49540053484F4F5420256420454E410D
S1235C54424C4520535550455200327D203AF60F1010270092C101102700B9C10210270017
S1235C74D0BDBBC1C63CBD8FF2F60F0F5CE762F70F0FCC0005EDE3E6644F1F01BDF95A3259
S1235C94621F105D1027007CBDBA3FBD868950F539BE0C91BDAE438E468B9F148E320D9FC4
S1235CB4168E0C57BD9A768E5A409F148E54019F168E5C03BD9A66BD86894904385D1027F6
S1235CD4FF8CBD8689495E3834048E5C09AFE3BDAA4D8E468B9F148E321C9F168E0C57BDB4
S1235CF49A7632637E5C758E5C16AFE3BDAA4D8E4F3F9F148E55159F168E0C57BD9A6632F6
S1235D14627E5C75F60F105CC1021022008AF70F107E5C9C8E5C21AFE3BDAA4D8E4F3F9F32
S1235D34148E5C159F168E0C57BD9A6632627E5C75F60F0CE7E28E5C2DAFE3BDAA4D8E46E7
S1235D548B9F148E55139F168E0C57BD9A66BD648D32635D271D8E5C3EAFE3BDAA4D3262AE
S1235D748E468B9F148E5F1A9F168E0C57BD9A667E5C75F60F0C4FEDE4CC0005EDE3AE625E
S1235D94BDF95A32621F10C0055034048E5C48AFE3BDAA4D326320C87F0F107E5C9C34602E
S1235DB410AE663420ACE1221B3384BDB9CD30C4BD90C9BDBB9DC606BD8FF233423440106D
S1235DD4ACE124E735E0327DF6183FC101102700DBC603BD92D0E7627C0F0CF60F0CC40190
S1235DF410260092E662C105102300A9C61EBD8FF2C60AF7108BC61CF7108C8E0212C60870
S1235E14BD8689537639C60CBD8FF2C60AF7108BC61CF7108C8E0212C608BD868953763977
S1235E34C60CBD8FF2C60AF7108BC61CF7108C8E0212C608BD8689537639C60CBD8FF2C64F
S1235E540AF7108BC61CF7108C8E0212C608BD8689537639C60CBD8FF2C614F7108BC61C7D
S1235E74F7108C8E0216C608BD8689537639C61EBD8FF27E8F4BE662C1051022FF6E4FEDD2
S1235E94E458491F016E995E9D5F945F7C5F645F045EEC5ED44FEDE458491F016E995EB4D9
S1235EB45F345F1C5F4C5F045EEC5ED4C609BD92D0E762C1051023FF1FCBFDE7627E5DEC0C
S1235ED4C628F7108BC61CF7108C8E046DC602BD86895376397E5E00C628F7108BC61CF7EB
S1235EF4108C8E0457C602BD86895376397E5E00C628F7108BC61CF7108C8E0454C602BD33
S1235F1486895376397E5E00C628F7108BC61CF7108C8E0374C602BD86895376397E5E0010
S1235F34C628F7108BC61CF7108C8E02D4C602BD86895376397E5E00C628F7108BC61CF725
S1235F54108C8E0375C602BD86895376397E5E00C628F7108BC61CF7108C8E0292C602BD79
S1235F7486895376397E5E00C628F7108BC61CF7108C8E0166C602BD86895376397E5E00C0
S1235F94C628F7108BC61CF7108C8E02B3C602BD86895376397E5E00327F6FE4C60AF71064
S1235FB48BC61CF7108C8E0072C60CBD8689537639C61EBD8FF26CE4E6E4C10626DE7E8F15
S1235FD44B3440C614F7108BC61CF7108C8E02B3C602BD8689537639CE01EEBDB9CD30C43C
S1235FF4BD90C9BDBB9DC606BD8FF23342118301FA26E8CE01F8BDB9CD30C4BD90C9BDBBB6
S12360149DC606BD8FF2335E118301EC26E8C60AF7108B7F108C8E0378C602BD86895376BE
S123603439C63CBD8FF27E989EF6183BC104220C863C3DBD8FF27F0F117E8F4BBD8FD72068
S1236054F5342031848E5ABCBDBA0EBDB9CD30A4BD90C9BDBB9DC60635207E8FF2574153B4
S123607454454C414E440034603278AF66E765E66E4FED62AE6FAFE4BDBA21C60CBDB9BF70
S1236094BDBA3F108E5A40CE001410AFC4CE40088E0016EF848E6071BD9A768E001410AFDB
S12360B484AE62E6651F985F3410AAE0EAE0CE0016EDC4AEE4BD9A76BD86895DE339BDB98C
S12360D4CDAE66BD90C9BD86895D7639BDBB9DC61E326835607E8FF24A41434B504F5400A6
S12360F43440C605BD92D0F70F0DBDBA218E5DDAC66BBDB099F60F0DC10127532530C1021D
S12361141027006B8E01ECAFE38E01E2BD5DB2CE01EC3262BDB9CD30C4BD90C9BDBB9DC604
S123613406BD8FF2335E118301E026E8201E8E052EAFE38E051CBD5DB28E60ECAFE3C61899
S1236154E7E2CB288E052EBD607B32657E989E8E053AAFE38E0530BD5DB28E60ECAFE3C6A7
S123617418E7E2CB288E053ABD607B326520DD8E051AAFE38E0506BD5DB28E60ECAFE3C664
S123619418E7E2CB288E051ABD607B326520BD4D554C544942414C4C003420BDBA218E0535
S12361B41AAFE38E0506BD5DB28E051CBD60558E052EAFE38E051CBD5DB28E0530BD605592
S12361D4108E053A34208E0530BD5DB28E61A3AFE3C618E7E2CB2830A4BD607B3269C63C20
S12361F4BD8FF27E989E8E80A5AFE38E0F07BDAF04C61DBDB05732627D18442612F618459D
S1236214C1012715C602E7E2C601BDB40A3261C633BDC4FCC63E7E96A0C602E7E2C603BDBD
S1236234B40A3261C633BDC4FCC63E7E96A0327E8E809BAFE38E0F07BDAF04C61BBDB05723
S12362547C0F0C32627D18442614F61845C1011027007CC602E7E2C601BDB40A3261F60FB5
S12362740C4FEDE4CC0005EDE3AE62BDF95A32621F10C10227522233C1012745C62EBDC422
S1236294FCC63CBD96A0C603BD8689695134F60F0C4FEDE4CC0005EDE3AE62BDF95A3262EC
S12362B41F105D2603BD64B5326239C103270BC10426C9C632BDC4FC20C7C631BDC4FC20D4
S12362D4C0C62FBDC4FC20B9C630BDC4FC20B2C602E7E2C603BDB40A32617E6272327FE704
S12362F4E4BD8689521E378E5FACC669BDB099C601F70F128E647FBD92688E8087AFE38EA5
S12363140F07BDAF04C617BDB0577F0F0F7F0F10C601F70F11BD496DC63BBD96A0BDB179D7
S1236334C628BDC4FCC604BDC29BC604BDC24EC678BD8FF2C604BDC23AC604BDC2D9C60F69
S1236354BDC23AC60FBDC24EC60EBDC23AC60EBDC24EC60DBDC23AC60DBDC24EC60BBDC220
S12363743AC60BBDC24EC602BD92D032625D2651C628F7108BC61CF7108C8E041BC602BDB7
S12363948689537639C6B4BD8FF27F0F0EE6E4FB106BC1042242BD86895B50388E603DC677
S12363B46ABDB099BD868967EF34BD868971B93BBD8689722A38C604BD868967B6343261B4
S12363D439C628F7108BC61CF7108C8E0182C602BD868953763920ADC605BD86895B503889
S12363F420BA7D0F122715BD868967993B8E647FBD91CFBD8689693634BD64A37F0F127FBA
S12364140F11397D0F122601398E647FBD91CFBD868967993BBD64A3C6B4BD8FF27F0F125C
S1236434BD8689693634BDE57EBD868956B137397D0F12260139C626E7E2C63DBD96073200
S123645461390D1D27057D0F12260139C6218E0003BD8689535F39398E0F07BDAEF57F0F3C
S11C64740C7F0F0E7F0F127F0F11390000053B3D0026921A00001E00007E
S123648DF60F14397F0F14C630BDC23AC630BDC24EC6687E8F097F0F14C630BDC23AC630FA
S12364ADBDC24EC6687E8F09C601F70F14C630BDC23AC630BDC2D98E64CCC6687EB09932F7
S12364CD7FF60F13E7E45CF70F13C628F7108BC61DF7108C8E02D6C602BD8689537639C61C
S10964ED0FBD8FD720DB78
S12364F345585452410042414C4C003440327FBDBA21F6183FC10110270125F6183EC101AF
S1236513102700E2C602BD92D0E7E4C614F7108B7F108C8E0221C608BD8689537639CE06F1
S12365331ABDB9CD30C4BD90C9BDBB9DC604BD8FF233421183063C26E8BDB9CD30C4BD90E3
S1236553C9BDBB9DC604BD8FF233421183066026E8E6E4C10110270097255BC102102700ED
S1236573A7C10310270067C60CBDB9BFBDBA3F8E5A409F148E31089F168E64F3BD9A768EA7
S12365935A409F148E31189F168E64F9BD9A76BD86895DE339BDB9CD30C4BD90C9BD8689F5
S12365B35D7639BDBB9DC604BD8FF233421183067E26B47E989EC628F7108BC603F7108CA4
S12365D38E02BCC602BD86895376397E657AC628F7108BC61DF7108C8E0465C602BD8689E4
S12365F35376397E657AC603BD92D0E7E47E651EC628F7108BC61DF7108C8E034AC602BD1B
S123661386895376397E657AC628F7108BC61DF7108C8E0484E6E4BD86895376397E657AF4
S1236633C605BD92D0E7E4C1041026FEDEC603E7E47E651EC61FBDD463C609BDC4FCC60A2D
S1236653BDC4FCC61FBDD429C63CBD8FD77EC431327F201AC628F7108BC61FF7108C8E03FB
S12366734DC602BD8689537639C60EBD8FD7F60F15E7E45CF70F15C601E4E427D7C628F75B
S1236693108BC61FF7108C8E02BFC602BD868953763920D5C6517E8F09C6028E0CE2BDC107
S12366B3D0BDD829C6517E8F09BD8689721D38C6028E0CE2BDC1D0BDD829C651BD8F09BDFC
S12366D3868940DE39C605BDC4FCC644BD96A0BD8689722A38390D1D260139C6028E0CE251
S11166F3BDC254BDD8B38E6663C6517EB09945
S12367014C415345520053484F54003440BDBA218E67AFC664BDB099CE06FCBDB9CD30C4D8
S1236721BD90C9BDBB9DC606BD8FF233421183070826E8BDB9CD8E0702BD90C9BDBB9DC62E
S123674106BD8FF2BDB9CD8E0704BD90C9BDBB9DC606BD8FF2BDB9CD8E0706BD90C9BDBB73
S12367619DC606BD8FF2C60CBDB9BFBDBA3F8E4F3F9F148E40089F168E6701BD9A768E4FB6
S12367813F9F148E40189F168E6707BD9A76BD86895DE339BDB9CD8E0706BD90C9BD868999
S12367A15D7639BDBB9DC61EBD8FF27E989EC60AF7108BC61CF7108C8E0212C608BD8689CA
S12367C1537639C606BD8FF2C60AF7108BC61CF7108C8E0212C608BD8689537639C606BD0A
S12367E18FF2C60AF7108BC61CF7108C8E0212C608BD8689537639C606BD8FF2C60AF7101D
S12368018BC61CF7108C8E0212C608BD8689537639C60CBD8FF2C60AF7108BC61CF7108C4E
S12368218E0212C608BD8689537639C60CBD8FF2C614F7108BC61CF7108C8E0216C608BDF3
S12368418689537639C61EBD8FF2C614F7108BC61CF7108C8E028AC602BD86895376397EF1
S12368618F4BC6118E0CE27EC1D0C6118E0CE2BDC1D0C610BDB057C6427E96A025642042F5
S1236881414C4C2053415645002564205345432C2020256420544F20474F414C00327DBDE0
S12368A1BA217E6933BD8689495E3834048E687DAFE3BDAA4D32638E468B9F148E62009F0C
S12368C1168E0C57BD9A66BD86895DE339BDB9CDF60F285CE762F70F28CC0003EDE3E6647E
S12368E14F1F01BDF95A32621F10C1011027009CF60F284FEDE4CC0003EDE3AE62BDF95AB0
S123690132621F10C10210270079F60F284FEDE4CC0003EDE3AE62BDF95A32621F105D27E9
S12369215ABD86895D7639BDBB9DC61EBD8FF2BDBA21C60CBDB9BFBDBA3FBD868950F5394A
S12369418E0F18BDAE438E468B9F148E62199F168E0C57BD9A66BD86894904385D1026FF6E
S123696144F60F27F00F163404F60F17E7E28E688AAFE3BDAA4D32647E68B88E0424BD9073
S1236981C9209E8E0422BD90C97E690B8E0420BD90C97E68F1C628F7108BC61DF7108C8E8C
S12369A10412C602BD8689537639C617BDB0578E8087AFE38E0F18BDAF04F60F273262C1B8
S12369C1632205CB0AF70F278E6B8F7E94DE8E6B8F7E937E8E6B8FBD937E5D2601398E6B8B
S12369E18F7E94DE0D1D27040D202701398E6B8FBD937E5D27F67C0F16C612BDC4FCC6089C
S1236A01BD868967AE345D263CC60EBDB057CC805AEDE38E0F18BDAF043262F60F16F10FBB
S1236A21272436C603BD92D05D2731C1012743C614F7108BC61CF7108C8E042BC602BD865E
S1236A418953763939C60FBDB0578E805FAFE38E0F18BDAF04326220C27E6996C614F710DC
S1236A618BC61CF7108C8E0429C602BD868953763939C614F7108BC61CF7108C8E042AC624
S1236A8102BD8689537639390D1D27040D20270139BD86895831348E6B8F7E94EE0D1D26A4
S1236AA10139C6128E0CE2BDC1545D26F48E6B8F7E93B90D1D2601398E6B8F7E93DAC608DD
S1236AC1BD868967963439C608BD868967AE345D260AC629BDC23AC6297EC24EC629BDC278
S1236AE13AC6297EC2D9BDB3C7C6028E0CF2BDC1D0BDBD82C628F7108BC61DF7108C8E04F2
S1236B0114C602BD8689537639F6183CBD8689496438C629BDC29BC629BDC24EC61EBD8FD6
S1236B21F2C629BDC23AC629BDC2D9C608BD868967AE345D262C7F0F168E0F18BDAEF58E96
S1236B410F1DBDAEF58E805AAFE38E0F1DBDAF04CC8073EDE38E0F18BDAF043264C6137EDF
S1236B61B0578E805FAFE38E0F1DBDAF04CC8091EDE38E0F18BDAF043264C6197EB0577F95
S1236B810F168E0F22BDAEF5C614F70F27396AE76ABF929992970043001014673A020F176E
S1236BA1F60F3A2702C601393460CE0F3C2032E6C45858EBC44F108E707030ABE642E7E2C7
S1236BC1E641BD9AA06A5FBD92A8E6C43261C10427415D2644C601E7C4334411830F6C2782
S1236BE1306D5F26CABD92A8C13F22EDC608BD92D0CB04E75FC678BD92D0CB04E741C6186A
S1236C01BD92D0CB02E7426FC4334411830F6C26D035E0C603E7C420C0BD92A8C1BF2204A5
S1236C216CC420B56AC420B1327EE7E427266F61BD86895D2239BD86895DEF39BD6BA9BD50
S1236C41BB9DC606BD8FF2C60CBDB9BF6C61E6E4E16122DC32627EBA2141434D4147002584
S1236C616420534543002564204849540025642042414C4C20534156450053484F4F542062
S1236C8143454E5445522052414D5000327D6F616F626FE420158E468B9F148E321C9F1663
S1236CA18E6C7BBD9A76C608BD6C29C60CBDB9BFBDBA39BDBA3FBD868950F539BE0C91BD9E
S1236CC1AE438E468B9F148E320D9F168E0C57BD9A768E5A409F148E32059F168E6C5ABD06
S1236CE19A766CE4CC0003EDE3E6624F1F01BDF95A32621F105D2606E661C801E761CC0059
S1236D0106EDE3E6624F1F01BDF95A32621F105D2606E662C801E762CC0014EDE3E6624FE4
S1236D211F01BDF95A32621F105D27256D611027006CF60F29E7E28E6C60AFE3BDAA4D8E1C
S1236D41468B9F148E32159F168E0C57BD9A763263BD86894904385D261F6D621026FF36A0
S1236D618E0F2FBDAE438E468B9F148E321C9F168E0C57BD9A767E6CA7BD8689495E3834C3
S1236D81048E6C6EAFE3BDAA4D8E468B9F148E321C9F168E0C57BD9A7632637E6CA7F60FB0
S1236DA139E7E28E6C677E6D3BC60CBDB9BFBDBA39BDBA3FBD868950F5398E0F2FBDAE4314
S1236DC18E4CA39F148E32109F168E0C57BD9A76C614BD6C297E989E43454E544552205228
S1236DE1414D5000327F6FE4200DC608BD6C296CE4E6E4C106275FC60CBDB9BFBDBA39BD84
S1236E01BA3FBD868950F5398E5A409F148E32059F168E6C5ABD9A768E56DC9F148E321170
S1236E219F168E6DD9BD9A76BD86894904385D27B9BD8689495E3834048E6C6EAFE3BDAA25
S1236E414D8E468B9F148E321C9F168E0C57BD9A7632637E6DEB7E989EC625BDC4FC7C0F6D
S1236E6139C614F7108BC61EF7108C8E009BC604BD8689537639C638BDC29BC638BDC24E4D
S1236E81C639BDC29BC639BDC24EC63ABDC29BC63ABDC24EC63CBD8FF2C638BDC23AC6382C
S1236EA1BDC24EC639BDC23AC639BDC24EC63ABDC23AC63ABDC24EC601BD868967AE345DBD
S1236EC12622C612BDB0578E806EAFE38E0F2ABDAF04CC806EEDE38E0F34BDAF043264C65D
S1236EE1417E96A0C615BDB0578E807DAFE38E0F2ABDAF04CC807DEDE38E0F34BDAF043299
S1236F0164C6417E96A00D1D27040D20270139BD86895831348E705E7E94EE8E705E7E9417
S1236F21325D2706C601F70F3A397F0F3AC6038E705E7E94328E705E7E937E8E705E7E93C7
S1236F417B8E705EBD937E5D2601398E705E7E93770D1D260139C6128E0CE2BDC1545D26B3
S1236F61F48E705E7E93B98E705EBD937E5D2601398E705E7E94DE0D1D2601398E705E7E5B
S1236F8193DA7EE50C7EE50C8E0F34BDAEF57F0F3A397F0F39C601BD868967AE345D260A3F
S1236FA1C62CBDC23AC62C7EC24EC62CBDC23AC62C7EC2D97E6F937F0F3AC601BD868967A9
S1236FC1AE345D10270084BDB3C7C6028E0CF2BDC1D0BDBD82F6183CBD8689496438BDE540
S1236FE10CC628F7108BC61FF7108C8E03E8C602BD8689537639C62CBDC29BC62CBDC24EAE
S1237001C61EBD8FF2C62CBDC23AC62CBDC2D9C609BDC4FCC601BD868967AE345D2616CCC7
S1237021806EEDE38E0F2FBDAF043262C601BD8689679634398E807DAFE38E0F2FBDAF0467
S12370413262C601BD8689679634397F0F398E0F2ABDAEF58E0F2FBDAEF57E6FC86FB86F35
S12370618692996BA13F400009133821020F29030300000003030002000303000200030304
S110708102050203030207020303020702D3
S9030000FC
