S123400035C601F70DED7F0DF5397F0DECC601F70DED7F0DF57F0DEE7F0DF4397F0DECC6D3
S123402001F70DED7F0DF57F0DEE7F0DF439C601F70DED7F0DF539F60DF52702C60139F74C
S12340400DF539C602F70DED39524554494E41005343414E003440BDBA39BDBA3F7C0DEEF6
S1234060F60DEEC401C10110270085CE0234BDB9CD30C4BD90C9BDBB9DC604BD8FF2334225
S12340801183025426E8CE0250BDB9CD30C4BD90C9BDBB9DC604BD8FF2335E118302382615
S12340A0E8C60CBDB9BFBDBA3F8E5A409F148E40089F168E4049BD9A768E5A409F148E4064
S12340C0189F168E4050BD9A76BD86895DE339BDB9CD30C4BD90C9BD86895D7639BDBB9DA5
S12340E0C604BD8FF2335E1183023426B47E989ECE01FABDB9CD30C4BD90C9BDBB9DC604D6
S1234100BD8FF233421183023026E8BDBA21C60CBDB9BFBDBA3F8E5A409F148E40089F1659
S12341208E4049BD9A768E5A409F148E40189F168E4050BD9A76BD86895DE339BDB9CD307E
S1234140C4BD90C9BD86895D7639BDBB9DC604BD8FF233421183023426B47E989EC637BD05
S1234160C29BC637BDC24EC606E7E2C6FFE7E2C61BBDC82DC606BD8FF2C606E7E2C6FFE713
S1234180E2C61BBDC82DC606BD8FF2C606E7E2C6FFE7E2C61BBDC82DC606BD8FF2C606E729
S12341A0E2C6FFE7E2C61BBDC82D3268C606BD8FF2C606E7E2C6FFE7E2C61BBDC82DC606D2
S12341C0BD8FF2C606E7E2C6FFE7E2C61BBDC82DC606BD8FF2C606E7E2C6FFE7E2C61BBD1C
S12341E0C82DC606BD8FF2C606E7E2C6FFE7E2C61BBDC82D3268C606BD8FF2C606E7E2C607
S1234200FFE7E2C61BBDC82DC606BD8FF2C606E7E2C6FFE7E2C61BBDC82DC637BDC23AC603
S123422037BDC24E7EC4317C0DF4C63CBD8FF2C60D7EC9B60D1D273ABD868960CC345D273B
S12342403B7D184027057D18412652C6078E0CE2BDC1545D27060D20102700847D0DF5269E
S12342603B0D20273FC60DBDC9B68E43E6C64C7EB099C60DBDC9B6C63C7E8FF2BD86896091
S1234280DC345D26BCC64DBD8F095D27B40D2026B0C601F70DF5BD86895F4634397D1842B3
S12342A026BA20A7C60EBDB0577D141D102600C1F60DEDC102102700DDC607BDC4FCC62817
S12342C0F7108BC61BF7108C8E021CC604BD8689537639C645BD96A0C612BD8FF27E426557
S12342E0BD868960CC345D1026FF71BD868960DC345D1026FF66BD8689526C365D1026FF05
S12343005BBD86894008345D1026FF50BD86894890345D1026FF45BD86895BFB365D10267A
S1234320FF3ABD86895116345D1026FF2FBD868949E73B5D1026FF24BD43FCC10110270036
S12343407E10250074C1022603BD51B6BDF1DFC607BDC4FCC61EBD8FF2C60DBDC9B68E43A9
S1234360E6C64CBDB099BD8689722A38C6127E8FF28E0DEFBDAEF58E803CAFE38E0DEFBDB7
S1234380AF04F6141D8E0DEFBDAFF38E0DEFBDB08232627E42B0C628F7108BC61EF7108CE2
S12343A08E043AC602BD8689537639C60EBDB0578E0DEFBDB0827E42B9BD48847E434CBDBA
S12343C05D487E434C0D1D27040D20270139C64CBD8F095D27F7BD86894904385D26EEBDE3
S11F43E086895B7A3839C678BD8FF27E8F4BC635BDD0135D260139C60D7EC9B66C
S12343FC327DBE18402637F61842E7622743F61840C1012758E662C10110270065F61841F4
S123441CC1012643F60DF64FEDE4C3FFFF1F894F5959C40158F70DF6F60DF63263398C0163
S123443C01271FF61842E762F61840C10126C6201CF60DF65CC10223DC7F0DF6F60DF63280
S123445C6339C602F70DF6F60DF6326339E662C10127C2F60DF65CC10223BAC601F70DF66E
S123447C20E5F61841C10127D0F60DF65CC10122C820A2C6078E0CE2BDC1D0C602F70DF6F3
S104449C39E2
S123449D7F0E21F6183DF7140A397D0E2127067F0E217F0E1F394B41424F4F4D004B4F4DA8
S12344BD504C4554450025642043415547485400434F4D504C4554454400BDBA30C60AF7F1
S12344DD108BC61DF7108C8E00AAC608BD86895376397D0E20102700BE8E5A409F148E408D
S12344FD089F168E44B3BD9A768E5A409F148E40189F168E44BABD9A76BDBAAABDBBC18ED5
S123451D3800BDB9EEC606E7E2C605BDBBD7BDBA30C60AF7108BC61DF7108C8E00AAC608AA
S123453DBD8689537639F60E1DE7E28E44C3AFE3BDAA4D8E5A409F148E40109F168E0C5768
S123455DBD9A768E5A2EBDBA0EBDBBC1C61EBD8FF232647D0E202652BDBA30C60AF7108BB5
S123457DC61DF7108C8E00AAC608BD86895376398E0E26BDAE438E4CA39F148E40109F169D
S123459D8E0C57BD9A768E5A2EBDBA0EBDBBC1C61EBD8FF27E989E8E5A409F148E40109F3A
S12345BD168E44B3BD9A767E4516BDBA308E5A409F148E40109F168E44CDBD9A768E5A2E02
S12345DDBDBA0EBDBBC1C61EBD8FF27E45755052455353205448554D425320544F204142BC
S12345FD4F525400330032003100327F6FE4BDBA30C60AF7108BC61DF7108C8E00AAC60886
S123461DBD86895376398E468B9F148E40029F168E45EBBD9A768E5A409F148E40109F161B
S123463D8E44B3BD9A76E6E4C1012752C1022732C1032713BDBBC1C61EBD8FF2E6E45CC1A6
S123465D03221CE7E420A78E5A409F148E40199F168E4605BD9A76BDBBC1C61EBD8FF27E70
S123467D989E8E5A409F148E40199F168E4603BD9A76BDBBC1C61EBD8FF2C60320C58E5AD7
S123469D409F148E40199F168E4601BD9A76BDBBC1C61EBD8FF2C60220A941424F52540064
S12346BD3460C60AF7108BC61DF7108C8E00AAC608BD8689537639BDBA30CE00148E5A40E8
S12346DDAFC4108E00168E4008AFA48E46B7BD9A768E0E26BDAE438E4CA3AFC48E4018AF1C
S12346FDA48E0C57BD9A76BDBAAABDBBC18E3800BDB9EEC606E7E2C603BDBBD77E989E252D
S123471D64003440327DBDBA218E3800BD868941CF39F60E1DE7E28E471CAFE3BDAA4D8ECF
S123473D4F3F9F148E0A0A9F168E0C57BD9A76F60DF7E7E2F60DF88E4C83BD99D032647DAE
S123475D0E222734CE0000200A1F305C3341F10E222425E6C90E2BE7615AC1FC22EBE66191
S123477D3404E6C90DF98E4C8BBD99D032611F305C3341F10E2225DBF60E1CFB0E24F10E81
S123479D232243F60E255A8E0DF93AE684E762C1182320C1642349C61EBD92D0CB466FE25A
S12347BD8E4C98BD99D03261BDBBC1C63CBD8FF27E989EC61EBD92D0CB146FE28E4C98BD1E
S12347DD99D0326120E2F60DF8CB04E7E4F60DF7CBFC3404E6618E4C92BD99D0326120C8D8
S12347FDC61EBD92D0E7E4E662CBF1E762E6E4EB62E7626FE2E6638E4C98BD99D032617EDA
S123481D47C5C6128E0CE2BDC1545D270F7D0E21270AF60DF8C10522047F0DF839CBFBF774
S123483D0DF839C6128E0CE2BDC1545D27117D0E21270CF60DF8C16A2306C670F70DF839C5
S123485DCB05F70DF8390D1D260139C6128E0CE2BDC1545D27F47D0E2127EFC6238E0003CE
S123487DBD8689535F393934403271BD8689721D38C6078E0CE2BDC1D0C6128E0CE2BDC213
S123489D54C601F70E21BD86896F36365D10260166BD86895119365D10260150BD868945B4
S12348BDAE365D1026013ABD86895FB1345D10260124BDBD87BD7924C640F70DF8C61AF729
S12348DD0DF7F6140AF70E1CC102102703692261C10110270351C623F70E22C601F70E1F4D
S12348FD7F0E207F0E257F0E1D8E00006F890E2B6F890DF930018C002326F18E0E26BDAEAD
S123491DF5C648BD96A0C606BD8FF26F652005C606BD8FF2BD9514C1482627C608BDD01349
S123493D5D27ECC609BDD0135D27E4C601E76520DEC103102702F8C104269BC621F70E2275
S123495D20996D6526060D20102700B6C60EBDB0578E805AAFE38E0E26BDAF04C647BD9641
S123497DA0C612BD8FF23262BD7027C60CBD8FF2BD86896F36365D2654BD86895119365D21
S123499D2642BD868945AE365D2630BD86895FB1345D261E0D202603BDBD82C6128E0CE28F
S12349BDBDC1D0C6078E0CE2BDC1D07F0E21326F35C05FBD86895F9D3420D95FBD868945E9
S12349DD9A3620C75FBD868951053620B55FBD86896F223620A3C601BD86895F9D347E4835
S12349FDCFC601BD8689459A367E48C4C601BD86895105367E48B9C601BD86896F22367E1F
S1234A1D48AEC603F70E237F0E247D0E1F1027019AC6018E0CF2BDC1545D1026018D7C0E91
S1234A3D23F60E22E764102700B38E0E2B5AE763E684E76A5AC1FC2206E66ACB02E78430BA
S1234A5D01E6634FEDE4C30E2C3406ACE126E1CE0000200B1F305C3341E1641024007EE60B
S1234A7DC90E2BE76C5AC1FC22EAE66CCB05F10DF725E1E6C90DF9E769F60DF8E768E669E2
S1234A9D5CE16823CFE669CB03E769E668CB10E768E669E16824BDC6FFE7C90E2BF60E232B
S1234ABDF70E247C0E1DC60CBDB0578E8050AFE38E0E26BDAF04C60AF7108BC61DF7108C75
S1234ADD8E0078C608BD86895376393262F60E22E7641F305C3341E1641025FF82F60E23CD
S1234AFD4FEDE4CC0005EDE3AE62BDF95A32621F105D265DF60E25E762E16424544F1F0371
S1234B1DC601E7C90E2B6D62102701416A62E6628E0DF93AE684E767C1181023013CC16474
S1234B3D1022011BC62DBD92D0E762E667CBE9E767E662EB67E7C90DF97C0E25C60AF71086
S1234B5D8BC61DF7108C8E007EC608BD8689537639C646BD96A0F60E225AE76E4F1F016CDC
S1234B7D6EE6890E2BC1FF1027008A6D6E2729F60E1FE76B6F66E6664F1F01E6890E2BCBDA
S1234B9DE4C1E12206E66EE7666F6B6C66E66EE16622E3E66BF70E1FF60E1CC1052327C6EE
S1234BBD02BD8FF27D0E1F1026FE66C6018E0CF2BDC1545D1026FDB00D201026FDAAC649D2
S1234BDDBD96F67E49854FEDE458491F016E994BEE4BBC4C0A4C024C024BFA4BFAC603BDF5
S1234BFD8FF27E4A27C604BD8FF27E4A27C606BD8FF27E4A277F0E1FC601F70E207C140A02
S1234C1D646E1027FF926F6DC60CBDB0578E8050AFE38E0E26BDAF046C6FF60E225432625C
S1234C3DE16D22E47E4BB5C614F70E227E48F8C61EF70E227E48F8C619F70E227E48F8C66F
S1234C5D32BD92D0CB46E7C90DF97E4B56C628BD92D0CB2CF70DF97E4B56C632BD92D0E7DE
S1234C7DC90DF97E4B561003FFFF0990FFFF0405020E0F0F06080418002B0310050000AA2F
S10A4C9DAA3CC3FFFF3CC366
S104140A00DD
S1234CA47F0E62397D0E6227087F0E62C601F70E5D3925642053484F5400434F4D504C45B0
S1234CC4544544003440327F6FE4CE06F2BDB9CD30C4BD90C9BDBB9DC60AF7108BC61DF713
S1234CE4108C8E0098C608BD8689537639C604BD8FF23342118306FC26D3E6E4C10310277D
S1234D0400896CE4E6E4C10426C0BDBA30F60E54E7E28E4CB6AFE3BDAA4D8E5A409F148E36
S1234D2440109F168E0C57BD9A768E5A2EBDBA0EBDBBC13263F60E54C12310230065C6287D
S1234D44F7108BC61DF7108C8E0140C602BD8689537639C61EBD8FF2F60E54C1271022004A
S1234D6465BDBA308E0E4EBDAE438E4CA39F148E40109F168E0C57BD9A768E5A2EBDBA0E6B
S1234D84BDBBC1C61EBD8FF27E989EC60AF7108BC61DF7108C8E0099C608BD868953763961
S1234DA47E4D0EC628F7108BC61DF7108C8E0165C602BD8689537639C61EBD8FF2F60E5418
S1234DC4C1271023FF9BBDBA308E5A409F148E40109F168E4CBEBD9A768E5A2EBDBA0EBD44
S1234DE4BBC1C61EBD8FF27E4D655052455353205448554D425320544F2041424F52540002
S1234E0453484F4F54455200330032003100327F6FE4BDBA30C60AF7108BC61DF7108C8EBF
S1234E2400AAC608BD86895376398E468B9F148E40029F168E4DEEBD9A768E5A409F148E8E
S1234E4440109F168E4E04BD9A76E6E4C1012752C1022732C1032713BDBBC1C61EBD8FF21E
S1234E64E6E45CC103221CE7E420A78E5A409F148E40199F168E4E10BD9A76BDBBC1C61E23
S1234E84BD8FF27E989E8E5A409F148E40199F168E4E0EBD9A76BDBBC1C61EBD8FF2C603C6
S1234EA420C58E5A409F148E40199F168E4E0CBD9A76BDBBC1C61EBD8FF2C60220A941426A
S1234EC44F5254003460C60AF7108BC61DF7108C8E00AAC608BD8689537639BDBA30CE0020
S1234EE4148E5A40AFC4108E00168E4008AFA48E4EC2BD9A768E0E4EBDAE438E4CA3AFC42B
S1234F048E4018AFA48E0C57BD9A76BDBAAABDBBC18E3800BDB9EEC606E7E2C603BDBBD761
S1234F247E989E2564004100420043004400450034603276BDBA21C60CBDB9BFBDBA3F8EBE
S1234F443800BD868941CF39F60E54E7E28E4F27AFE3BDAA4D8E468B9F148E02029F168EAA
S1234F640C57BD9A9A32637D0E5A272E6F64E66420096C64E664F10E5A241FC11F22F358BD
S1234F8458E762C61DE7E2E6638E5672BD99D032616C64E664F10E5A25E1CE00002046C6F1
S1234FA476E766E663C10410230083E668FB0E58C401C1011027012224218E57859F14E68A
S1234FC4661F985F1F02E6634F1F011F203410AAE0EAE0DD168E4F2CBD9A9A3341118300A8
S1234FE428102700741F30E768E6C90E63E7635AC1C622E7CC0006EDE3E66A4F1F01BDF9CD
S12350045A32621F10C1051022FF941F104F58491F016E99501A4FA350D750D050C950C2CC
S12350245026C619E766E663C1041022FF7D8E57859F14E6661F985F1F02E6634F1F011F93
S1235044203410AAE0EAE0DD168E4F2ABD9A9A3341118300281026FF8CCE00002024C67666
S1235064E762E667CB383404E6638E5676BD99D0C6FFE7C90E6332613341118300281027AE
S1235084009F1F30E769E6C90E63E767CB37C13522E6CC0006EDE3E66B4F1F01BDF95A32B8
S12350A4621F10C10522B71F104F58491F016E9950B65062511E5117511051095102C667A8
S12350C4E7667E4FA7C628E7667E4FA7C658E7667E4FA7C60AE7667E4FA78E57859F14E6E5
S12350E4661F985F1F02E6634F1F011F203410AAE0EAE0DD168E4F2EBD9A9A7E4FDFC61902
S1235104E7627E5066C667E7627E5066C628E7627E5066C658E7627E5066C60AE7627E5073
S123512466BD86895DE339BDBA21F60E5BC10127225D27178E06F0BD90C9BD86895D7639AD
S1235144BDBB9DC63CBD8FF27E989E8E06ECBD90C920E78E06EEBD90C920DFC6128E0CE2B6
S1235164BDC1545D270F7D0E62270A7D0E5A2705C601F70E5F39C6128E0CE2BDC1545D2785
S12351840F7D0E62270A7D0E5A2705C601F70E5E390D1D260139C6128E0CE2BDC1545D2732
S12351A4F47D0E6227EFC6238E0003BD8689535F393934403277BD8689721D38C6078E0C6F
S12351C4E2BDC1D0C6128E0CE2BDC254C601F70E62BD86896F36365D1026033ABD868951AE
S12351E419365D10260324BD868945AE365D1026030EBD86895FB1345D102602F8BDBD8767
S1235204BD79247F0E5F7F0E5EC601F70E537F0E547F0E557F0E56F70E577F0E587F0E5969
S12352248E0E4EBDAEF57F0E5C7F0E5D7F0E607F0E61C62AF70E5AC601F70E5B8E0E636F8A
S1235244808C0E8B26F9C64CBD96A0C606BD8FF26FE42005C606BD8FF2BD9514C14C261642
S1235264C608BDD0135D27ECC609BDD0135D27E4C601E7E420DE6DE426060D201027006E92
S1235284C60EBDB0578E805AAFE38E0E4EBDAF04C64BBD96A0C612BD8FF23262BD7027C652
S12352A40CBD8FF2BD86896F36365D10260218BD86895119365D1026021FBD868945AE3633
S12352C45D10260226BD86895FB1345D102601ED0D202603BDBD82C6128E0CE2BDC1D0C6C0
S12352E4078E0CE2BDC1D07F0E62326935C0C603F70E586F616F627D0E5D1026014AC6015F
S12353048E0CF2BDC1545D1026013D7C0E58C601F70E5B6C61E661C102102301546F617DA1
S12353240E5E270C7D0E6026077D0E5A102602207D0E5F270C7D0E6126077D0E5A1026031D
S1235344047D0E5E270C7D0E6027077D0E5A102602897D0E5F270C7D0E6127077D0E5A103A
S1235364260210CE0E632008334111830E8B272DE6C4CBE8C1AF22F0C601F70E5CF70E5D28
S1235384C60AF7108BC61DF7108C8E0427C602BD8689537639334111830E8B26D3F60E54EC
S12353A4E7688E0E63200DE667CB06E78430018C0E8B271CE684E7675AC1C622F0E668C18E
S12353C41322E4E667CB04E78430018C0E8B26E4E662C1021023008BF60E55E764C1271060
S12353E4220080C401102700B5E6644F1F01C601E7890E637D0E61102701487C0E556F62D5
S12354046D6110270063F60E54C1272323C601F70E5D6F63C60BBDB0578E804BAFE38E0E7F
S12354244EBDAF046C65F60E54543262E16322E4F60E54C10D2343C604F70E53C601BD8F8A
S1235444F27D0E5D1027FEB6C6018E0CF2BDC1545D1026FE470D201026FE41C64DBD96F684
S12354647E52A06C626D61269DC64ABD96A07E540A6D611026FF597E5323C108230DC60364
S1235484F70E53C602BD8FF27E52FBC10310230090C602F70E53C604BD8FF27E52FBE66417
S12354A44F1F01C601E7890E637D0E601026FF4BE664F70E56C601F70E607E53FF5FBD861F
S12354C4895F9D347E52D45FBD86896F2236BD86895119365D1027FDE15FBD8689510536E0
S12354E4BD868945AE365D1027FDDA5FBD8689459A367E52C9C601BD86895F9D347E5201D7
S1235504C601BD8689459A367E51F6C601BD86895105367E51EBC601BD86896F22367E5114
S1235524E0F60E53C10127131025013AC1021027FF64C1031026FF047E5487C606BD8FF203
S12355447E52FBE664F70E57C601F70E617E53FFC60AF7108BC61DF7108C8E0098C608BD4C
S123556486895376397F0E5E7A0E5AC602F70E5B7E5334C60AF7108BC61DF7108C8E00981A
S1235584C608BD86895376397F0E5F7C0E547A0E5AF60E574F1F01E6890E63CBC8E7890E00
S12355A4637F0E617F0E5BC60BBDB0578E804BAFE38E0E4EBDAF04F60E57CB02E7674F1FEC
S12355C401E6890E635A3262C1C61022FD95E665F70E57C601F70E617E5367C60AF7108B3B
S12355E4C61DF7108C8E0098C608BD86895376397F0E5E7C0E547A0E5AF60E564F1F01E611
S1235604890E63CBC8E7890E637F0E60C602F70E5BC60BBDB0578E804BAFE38E0E4EBDAF29
S123562404F60E56CB02E7684F1F01E6890E635A3262C1C61022FD1AE666F70E56C601F776
S12356440E607E5356C60AF7108BC61DF7108C8E0098C608BD86895376397F0E5F7A0E5A45
S11B56647F0E5B7E5345C608BD8FF27E52FB04020303080418002B03F7
S123567C7D0E9227067F0E927F0E913953494D4F4E205341595300256420434F52524543FD
S123569C54003460BDBA30CE5A408E0014EF84108E40108E001610AF848E5688BD9A76BD13
S12356BCBAAABDBBC18E3800BDB9EEC606E7E2C603BDBBD7BDBA30F60EBAE7E28E5693AF02
S12356DCE3BDAA4D8E0014EF84CE001610AFC48E0C57BD9A76BDBBC1C61EBD8FF2BDBA30D7
S12356FC8E0EBBBDAE43CE4CA38E0014EF848E001610AF848E0C57BD9A76BDBBC1C61EBD34
S123571C8FF27E989E57524F4E4700BDBA308E5A409F148E40109F168E5721BD9A76BDBA48
S123573CAABDBBC18E3800BDB9EEC606E7E2C605BDBBD77E989E5052455353205448554DEE
S123575C4253544F2041424F525400330032003100327F6FE4BDBA308E468B9F148E400335
S123577C9F168E5752BD9A768E5A409F148E40109F168E5688BD9A76E6E4C1011027008C5A
S123579CC102273BC10310270067BDBBC1C61EBD8FF26DE4261BC60AF7108BC61DF7108C9D
S12357BC8E029CC60CBD8689537639C601E7E420A4E6E4C10227205CC10323F17E989E8E5D
S12357DC5A409F148E40199F168E5769BD9A76BDBBC1C61EBD8FF2C60AF7108BC61DF710FE
S12357FC8C8E0154C60CBD8689537639E6E45C20BC8E5A409F148E40199F168E576BBD9A5A
S123581C76BDBBC1C61EBD8FF27E989E8E5A409F148E40199F168E5767BD9A76BDBBC1C654
S123583C1EBD8FF2E6E47E57D341424F5254003460C60AF7108BC61DF7108C8E00AAC60C8C
S123585CBD8689537639BDBA30CE00148E5A40AFC4108E00168E4008AFA48E5845BD9A7661
S123587C8E0EBBBDAE438E4CA3AFC48E4018AFA48E0C57BD9A76BDBAAABDBBC18E3800BD3F
S123589CB9EEC606E7E2C603BDBBD77E989E256400327B7D0EB9102701E68E0000AF637E2A
S12358BC5937C608BD8FF2BDBA21C60CBDB9BFBDBA3F8E3800BD868941CF39E66234048EEE
S12358DC58AAAFE3BDAA4D8E468B9F148E051B9F168E0C57BD9A76BDB9CD8E06EABD90C956
S12358FCBD86895D7639BDBB9D3263F60E8CC101102701101025010CC10210270126C10345
S123591C10270128C604BD8FF2EC63C30001ED636C62E662F10EB910240165EC63E762BDDF
S123593CBA21C60CBDB9BFBDBA3F8E3800BD868941CF39AE63E6890E95E7E28E58AAAFE3C6
S123595CBDAA4D8E4F3F9F148E08089F168E0C57BD9A76E66734048E58AAAFE3BDAA4D8EAA
S123597C468B9F148E051B9F168E0C57BD9A763266AE63E6890E95C101102700DD1024009D
S123599C90C60FE7E2C6268E600ABD99D0C60AF7108BC61DF7108C8E020DC60CBD86895349
S12359BC76393261BD86895DE339BDB9CD8E06EABD90C9BD86895D7639BDBB9DF60E8CC12B
S12359DC041022FEDD4FEDE458491F016E9959EC59F659F65A135A0659FEC61EBD8FF27E07
S12359FC58C3C60CBD8FF27E58C3C608BD8FF2C608BD8FF27E58C3C608BD8FF2C60CBD8FE8
S1235A1CF27E58C3C608BD8FF2C60CBD8FF27E5925C102271FC1031026FF89C605E7E2C6DE
S1235A3C677E59A3C60CBD8FF27E5925C608BD8FF27E5925C60FE7E2C6528E6011BD99D076
S1235A5CC60AF7108BC61DF7108C8E020FC60CBD868953763932617E59C0C605E7E2C60F7C
S1235A7C8E6011BD99D0C60AF7108BC61DF7108C8E020EC60CBD868953763932617E59C0A1
S1235A9C7E989EBDBA21C60CBDB9BFBDBA3F8E3800BD868941CF397D0E8D1026010C7D0E1C
S1235ABC8E102600F47D0E8F102600DC7D0E90102600C47D0E93102600A57D0E8D10260086
S1235ADC807D0E8E265D7D0E8F263C7D0E902620BD86895DE339BDB9CD8E06EABD90C9BDD4
S1235AFC86895D7639BDBB9DC60CBD8FF27E989EC60AF7108BC61DF7108C8E020DC60CBD8E
S1235B1C868953763920C9C60AF7108BC61DF7108C8E020FC60CBD86895376397D0E902712
S1235B3CAF20CDC60AF7108BC61DF7108C8E020EC60CBD86895376397D0E8F1027FF8C2097
S1235B5CC6C60AF7108BC61DF7108C8E020DC60CBD86895376397D0E8E1027FF6920C4C6E8
S1235B7C0AF7108BC61DF7108C8E00AAC60CBD86895376397E5AECC605E7E2C6678E600A9E
S1235B9CBD99D032617E5ACFC60FE7E2C6528E6011BD99D032617E5AC8C605E7E2C60F8E80
S1235BBC6011BD99D032617E5AC1C60FE7E2C6268E600ABD99D032617E5ABA474F00BDBA28
S1235BDC21C60CBDB9BFBDBA3F8E3800BD868941CF398E5A409F148E40189F168E5BD7BDF9
S1235BFC9A76BD86895DE339BDB9CD8E06EABD90C9BD86895D7639BDBB9DC612BD8FF27ED8
S1235C1C989E57415443482100C60AF7108BC61DF7108C8E02FFC60CBD8689537639BDBA18
S1235C3C21C60CBDB9BFBDBA3F8E3800BD868941CF398E5A409F148E40189F168E5C1EBD50
S1235C5C9A76BD86895DE339BDB9CD8E06EABD90C9BD86895D7639BDBB9DC612BD8FF27E77
S1235C7C989EBDBA21C60CBDB9BFBDBA3F8E3800BD868941CF39BDB9CD8E06EABD90C9BD0A
S1235C9C86895D7639BDBB9DC6F0BD8FF27E989EC6128E0CE2BDC1545D270A7D0E9227050F
S1235CBCC601F70E8E39C6128E0CE2BDC1545D270A7D0E922705C601F70E8D39C6128E0C30
S1235CDCE2BDC1545D270A7D0E922705C601F70E9039C6128E0CE2BDC1545D270A7D0E92B3
S1235CFC2705C601F70E8F397F0E928E0EBB7EAEF50D1D260139C6128E0CE2BDC1545D27F9
S1235D1CF47D0E9227EFC64E7E96A00D1D260139C6128E0CE2BDC1545D27F47D0E9227EF19
S1235D3CC6238E0003BD8689535F393934203277BD8689721D38C6078E0CE2BDC1D0C612DA
S1235D5C8E0CE2BDC254C601F70E92BD86896F36365D2708C601BD86896F2236BD868951CC
S1235D7C19365D2708C601BD8689510536BD868945AE365D2708C601BD8689459A36BD869D
S1235D9C895FB1345D2708C601BD86895F9D34BDBD87BD79247F0EBA7F0E8C8E0EBBBDAE4A
S1235DBCF57F0EB8C602F70EB97F0E93108E0E95C604BD92D0E7A0108C0EB826F3C64FBDE5
S1235DDC96A0C606BD8FF26FE42005C606BD8FF2BD9514C14F2616C608BDD0135D27ECC68B
S1235DFC09BDD0135D27E4C601E7E420DE6DE426060D201027007FC60EBDB057CC805AED57
S1235E1CE38E0EBBBDAF04C653BD96A0C612BD8FF23262BD7027C60CBD8FF2BD86896F362D
S1235E3C365D27075FBD86896F2236BD86895119365D27075FBD8689510536BD868945AE22
S1235E5C365D27075FBD8689459A36BD86895FB1345D27075FBD86895F9D340D202603BD18
S1235E7CBD82C6128E0CE2BDC1D0C6078E0CE2BDC1D0326935A0C601F70E91C6018E0CF26A
S1235E9CBDC1545D102600ACC654BD96F6C650BD96F6C651BD96F67F0EB87F0E8E7F0E8D35
S1235EBC7F0E907F0E8F6F617D0E90261E7D0E8D26207D0E8E102600D9C602BD8FF26C6101
S1235EDCE661C17927057D0E8F27DD7D0E8D102700A4F60EB84F1F016D890E951026009654
S1235EFC7D0E8E102600947D0E8F102600BF7D0E90102600CD7C0EB8C601E762C655BD96B2
S1235F1CF6F60EB8E763F60EB9E16323066D621026FF877D0E93102600C3C120102300ADD8
S1235F3C7F0E91E663F70EBAC63CBD8FF27D0E911026FF47316430A4BDAEF58E8055AFE385
S1235F5C30A4BDAF04F60EBA30A4BDAFF330A4BDB08234208E0EBBBDAF04C6018E0CF2BDFE
S1235F7CC15432645D26090D202605C656BD96F67F0E927E5E2F7D0E8E26177D0E8F262726
S1235F9C7D0E9026377F0E91C601F70E936F627E5F18F60EB84F1F01E6890E95C1011027F0
S1235FBCFF457D0E8F27D9F60EB84F1F01E6890E95C1021027FF377D0E9027C9F60EB84FE0
S1235FDC1F01E6890E95C10326BB7E5F11CB03F70EB97C0E8CE663F70EBA7E5F44C652BD3C
S11F5FFC96F6F60EB8F10EBA1023FF3C20E9080508FCFEFC080805103F7F3F10D0
S12360187F0EC17F0EC07F0EC239C601F70EC2397F0EC2394C4947485420414C4C204D20F4
S123603854204C00352054494D455320544F004C494748542045585452412042414C4C0093
S12360584F4E45004D494C4C494F4E0056494F4C4154494F4E00594F55004C4F4F4B004700
S12360785245415400544F44415900454E48414E434500594F55520043414C4D0034403253
S12360987CF60EC05CC103102200FAF70EC0BDBA21F60EC0E7E4C101102700FAC101102483
S12360B801CFC614F7108B7F108C8E008DC608BD8689537639CE01B8BDB9CD30C4BD90C9E2
S12360D8BDBB9DC606BD8FF2335E118301AC26E8C614F7108B7F108C8E008DC608BD868969
S12360F8537639C60CBDB9BFBDBA3F8E56DC9F148E40059F168E602CBD9A768E468B9F14D1
S12361188E400E9F168E603CBD9A768E4F3F9F148E40199F168E6047BD9A76BD86895DE362
S123613839BDB9CD8E01AEBD90C9BD86895D7639BDBB9DC63CBD8FF2C60CBDB9BFBDBA3F8A
S12361588E4CA39F148E540A9F168E6058BD9A768E4CA39F148E54199F168E605CBD9A7648
S1236178BD86895DE339BDB9CD8E01AEBD90C9BD86895D7639BDBB9DC63CBD8FF2C63CBD3C
S12361988FF27E989E7F0EC0BDBA21F60EC0E7E4C1011026FF06F6183EC1011027032AF6D5
S12361B8183FC10110270321C614F7108B7F108C8E008DC60CBD86895376396F617E6262FB
S12361D8C1051023032AC10710230370C10910230379C10B10230391C10D1023036DC10FC2
S12361F810230358C11110230306C113102203DF6FE2C65F8E68C6BD99D032618E4F3F9F59
S1236218148E36059F168E6064BD9A76E661C10823558E56DC9F148E2C0D9F168E6058BD37
S12362389A76E661C10C233F8E4CA39F148E2C199F168E605CBD9A76BDBBC1C606BD8FF2AA
S1236258E661C1161022037F6C61BDBA30E661C101102302AAC1031022FF656FE2C65F8E96
S123627868C6BD99D03261BDBBC1C606BD8FF220D7C102102700E1C1031026FF00F6183EC1
S1236298C1011027022BF6183FC10110270222C614F7108B7F108C8E008DC60CBD868953BF
S12362B876396F637E6349C10510230234C1071023027AC109102302A1C10B102302B9C156
S12362D80D10230295C10F10230262C11110230210C113102203076FE2C65F8E68C6BD99B5
S12362F8D032618E4F3F9F148E36059F168E6083BD9A76E663C10823558E4F3F9F148E2E7F
S1236318109F168E608BBD9A76E663C10C233F8E56DC9F148E2C199F168E6090BD9A76BDDB
S1236338BBC1C606BD8FF2E663C116102202586C63BDBA30E663C101102301DAC10310228A
S1236358FF656FE2C65F8E68C6BD99D03261BDBBC1C606BD8FF220D7C614F7108B7F108C11
S12363788E0416E6E4BD8689537639C614F7108B7F108C8E0081C60CBD86895376396F62BA
S12363982038C1052316C10810230103C10B1023010EC10E102300F7C1112227C604E7E2D5
S12363B8C6028E6B8EBD99D03261E662C1032227BDBBC1C604BD8FF26C62BDBA30E662C1A5
S12363D80222BFC604E7E2C6028E6B28BD99D03261E662C10323D98E4F3F9F148E40059F40
S12363F8168E606EBD9A76E662C10823C38E468B9F148E67059F168E6072BD9A76E662C154
S12364180C23AD8E4F3F9F148E520F9F168E6077BD9A76E662C10F1023FF958E56DC9F148D
S12364388E54199F168E607DBD9A76BDBBC1C604BD8FF2E662C1141023FF7DC63CBD8FF20B
S1236458C614F7108B7F108C8E008DC60CBD8689537639BDBA30C604E7E2C6028E6B28BDFE
S123647899D08E4CA39F148E540A9F168E6058BD9A768E4CA39F148E54199F168E605CBDCC
S12364989A76BDBBC1C63CBD8FF232617E6195C604E7E2C6028E6BF4BD99D032617E63C2AC
S12364B8C604E7E2C6028E6C5ABD99D032617E63C2C614F7108BC61DF7108C8E047EC602FB
S12364D8BD86895376397E62A7C614F7108BC61DF7108C8E047CC602BD86895376397E61E6
S12364F8C06FE2C65F8E6940BD99D032617E62FB6FE2C65F8E6940BD99D032617E62146FB6
S1236518E2C65F8E684CBD99D03261E661C1031023FD547E62146FE2C65F8E684CBD99D0FC
S12365383261E663C1031023FE247E62FB6FE2C65F8E69BABD99D032617E62FB6FE2C65F3E
S12365588E69BABD99D032617E62146FE2C65F8E6A34BD99D032617E62146FE2C65F8E6A04
S123657834BD99D032617E62FB6FE2C65F8E6AAEBD99D032617E62146FE2C65F8E6AAEBD95
S123659899D032617E62FBC63CBD8FF2C614F7108B7F108C8E008DC60CBD8689537639BDC9
S12365B8BA306FE2C65F8E684CBD99D08E4CA39F148E2C0A9F168E6058BD9A768E4CA39F1F
S12365D8148E2C197E6492C63CBD8FF27E61956FE2C65F8E684CBD99D032617E62146FE2DA
S12365F8C65F8E684CBD99D032617E62FB327F6FE4C606E7E2C6FFE7E2C616BDC82DC60405
S1236618BD8FF2C606E7E2C6FFE7E2C62EBDC82DC604BD8FF2C606E7E2C6FFE7E2C62FBD7A
S1236638C82DC614F7108BC61CF7108C8E0094C608BD8689537639C606BD8FF26C66326636
S1236658E6E4C1061026FFA97EC431C6028E0CE2BDC1545D10260107C6068E0CE2BDC15471
S12366785D102600E0BD868960CC345D102700A87D184027057D18412620C6078E0CE2BD00
S1236698C1545D2625BD868960CC345D102700DDC603BDC9F0C6067EC4FC7D184226E6C692
S12366B8078E0CE2BDC1545D27DBBD868960CC345D26D2BD868960DC345D26C9BD868952E3
S12366D86C365D26C0BD86894008345D26B7BD86894890345D26AEBD86895BFB365D26A5AE
S12366F8BD86895116345D269CBD8689721D38BD43FCC1011027012210240112BD4884BDC0
S1236718F1DFC606BDC4FCC61EBD8FF2C603BDC9F0BD8689722A3839BD868960DC345D1061
S123673826FF4DC6038E0CE2BDC1545D1027FF40BD8689721D38BD86894A0536BD868972BF
S12367582A387E6688BD8689721D38BD8689668634C63CBD8FF2BD8689722A387E667DBDD2
S1236778868966BC36C6B4BD8FF27E6670BD868960DC345D1026FF18BD8689526C365D1077
S123679826FF0DBD86894008345D1026FF02BD86894890345D1026FEF7BD86895BFB365DBA
S12367B81026FEECBD86895116345D1026FEE1BD86894009375D1026FED6BD8689460B37BD
S12367D85D1026FECBBD86896F36365D1026FEC0BD868945AE365D1026FEB5BD86895119D8
S12367F8365D1026FEAABD868969CF365D1026FE9FBD868949E73B5D1026FE94C60EBDB005
S123681857C657BD96F6C612BD8FF27E66A8C1021026FEEBBD51B67E6717BD5D487E6717FD
S1236838C606BDC4FCC6447E96A0018A030D0320014002F6201EFFFFFF3FFFFFFF3F030085
S12368580030F3FFFF33F3FFFF33F3FFFF33F3FFFF33F3FFFF33F3FFFF33F3FFFF330300ED
S12368780030F3C7F833F3C7F833F3C7F83333C6383233C6383233C63F3233C63F3233C68A
S12368983F3233C63F3233C6383233C6383233C6383233C6383233FE383233FE383203003C
S12368B8003003000030FFFFFF3FFFFFFF3F201EFFFFFF3FFFFFFF3F03000030F3FFFF33D4
S12368D833FEFF3333FEFF3333FEFF3333FEFF3333FEFF33F3FFFF330300003033FE3832BB
S12368F833FE383233C6383233C6383233C6383233C63F3233C63F3233C63F3233C6383217
S123691833C6383233C6383233C6383233C6383233C6F83333C6F833030000300300003021
S1236938FFFFFF3FFFFFFF3F201EFFFFFF3FFFFFFF3F03000030F3FFFF33F3F1FF33F3F1BC
S1236958FF33F3F1FF33F3F1FF33F3F1FF33F3FFFF3303000030F3C7F833F3C7F83333C68D
S1236978383233C6383233C6383233FE383233FE383233FE383233C6383233C6383233C63B
S1236998383233C6383233C63F3233C63F3233C63F320300003003000030FFFFFF3FFFFF30
S12369B8FF3F201EFFFFFF3FFFFFFF3F03000030F3FFFF33F38FFF33F38FFF33F38FFF3354
S12369D8F38FFF33F38FFF33F3FFFF330300003033C63F3233C6383233C6383233C6383249
S12369F833C6383233FE383233FE383233FE383233C6383233C6383233C6383233C63832BB
S1236A1833C6383233C6F83333C6FF330300003003000030FFFFFF3FFFFFFF3F201EFFFF8E
S1236A38FF3FFFFFFF3F03000030F3FFFF33F37FFC33F37FFC33F37FFC33F37FFC33F37F73
S1236A58FC33F3FFFF3303000030F3C7F833F3C7383233C6383233C6383233FE383233FEF9
S1236A78383233C6383233C6383233C6383233C6383233C6383233C6383233C63F3233FEA3
S1236A983F3233FEFF330300003003000030FFFFFF3FFFFFFF3F201EFFFFFF3FFFFFFF3F72
S1236AB803000030F3FFFF33F3FFC733F3FFC733F3FFC733F3FFC733F3FFC733F3FFFF33A3
S1236AD803000030F3FFF833F3C7F833F3C7F83333C6383233C6383233C6383233C63832F4
S1236AF833C6383233C6383233C6383233C6383233C6383233C63F3233C63F3233FE3F3215
S1236B180300003003000030FFFFFF3FFFFFFF3F2814000000008000410000C0000110109D
S1236B38E000210808F080B107067880FFFF073E80FFFFFF0FC0FFFFFF07E0CFFEFF03F0D0
S1236B58FE847F00F8FE840F00DCFCE41F00CC78E67F008681F3E00102FFF98103027EFC36
S1236B780300E1B31F0C00F0FF1F180004FE03000000F0000000281400000000800041001F
S1236B9800C000011010E000210808F080B107067880FFFF073E80FFFFFF0FC0FFFFFF072E
S1236BB8E0FFFFFF03F0FFFF7F00F8FE840F00DCFCE41F00CC78E67F008681F3E00102FF83
S1236BD8F98103027EFC0300E1B31F0C00F0FF1F180004FE03000000F00000002814000087
S1236BF800008000410000C000011010E000210808F080B107067880FFFF073E80FFFFFFE0
S1236C180FC0FFFFFF07E0FFFFFF03F0FFFF7F00F8FFFF0F00FCFFFF1F00FCFFFF7F00861B
S1236C3881F3E00102FFF98103027EFC0300E1B31F0C00F0FF1F180004FE03000000F0000C
S1236C5800002814000000008000410000C000011010E000210808F080B107067880FFFF05
S1236C78073E80FFFFFF0FC0FFFFFF07E0FFFFFF03F0FFFF7F00F8FFFF0F00FCFFFF1F00F8
S1236C98FCFFFF7F00F6FFFFE001F2FFFF8F03F2FFFF0300E1B31F0C00F0FF1F180004FE2E
S10B6CB803000000F0000000DD
S1236CC04558504C4F444520414E44204348415345004C45414420544F004855584C455970
S1236CE0004A45545300494E43524541534500524554494E41004558504C4F4445004154A7
S1236D000025642048495453004F48204D590045594500327FBDBA218E5A10BDBA0E7C0EFE
S1236D20C3F60EC3C403E7E4C1011027009A245DC60CBDB9BFBDBA3F8E56DC9F148E40041D
S1236D409F168E6CC0BD9A768E468B9F148E400D9F168E6CD2BD9A768E5A409F148E4018F7
S1236D609F168E6CDABD9A76BD86895DE339BDB9CD8E05E4BD90C9BD86895D7639BDBB9DB7
S1236D80C63CBD8FF2C61EBD8FF27E989EC10210270079C10326E98E5D7B9F148E59089FEC
S1236DA0168E6D09BD9A768E5D7B9F148E59189F168E6D0FBD9A76C602E7E28E6FC1BD999F
S1236DC0D0BDBBC1326120B88E56DC9F148E54049F168E6CE1BD9A768E468B9F148E540D84
S1236DE09F168E6CE6BD9A768E5A409F148E40189F168E6CEFBD9A76C602E7E2C60F8E6F9E
S1236E0087BD99D0BDBBC132617E6D808E56DC9F148E27049F168E6CF6BD9A768E56DC9F8D
S1236E20148E270D9F168E6CFEBD9A76F6140CF0140B34048E6D01AFE3BDAA4D8E5A409F98
S1236E40148E27189F168E0C57BD9A76E6633404C6568E6FC1BD99D0BDBBC132647E6D801F
S1236E60C678BD8FF27F0EC57E8F4BC6108E0CE2BDC254C614F7108BC61CF7108C8E0364ED
S1236E80C602BD8689537639BD868966E936397F140BC6108E0CE2BDC1D07F0EC5C602F77F
S1236EA0140CC60AF70EC4C6098E0CE2BDC1D0F61833F7140CF61832F70EC4397E6E8FC6A1
S1236EC0098E0CE2BDC1D07F140BF6140CC10A2205CB03F7140CBD8689496F37390D1D270B
S1236EE0160D2026127C0EC5F60EC5C10127098E6E60C6527EB09939BD86894964387C1454
S1236F000BC614F7108BC61BF7108C8E00CCC604BD8689537639C62DBDC4FCC60EBDB05788
S1236F20C6108E0CE2BDC1545D2608F6140BF10EC42448BD868960CC345D2611BD8689606E
S1236F40DC345D2608F6140BF1140C2434BD8689460B375D2709BD86894846377E6EEFC601
S1236F6058BD96A0F6140CF0140BC1011022FF7FC6098E0CE2BDC2547E6EEFBD6E6B7E6EB0
S1236F80EFBD6EBF7E6EEF200E40040010404010184002001CE0FF0F0FE0FFFF03F0FDFFE7
S1236FA001B82F3E00BC2F0E0036B73F0062D8E10080E70700717A0800F87F1000000E0071
S1236FC0002814000000008000410000C000011010E000210808F080B107067880FFFF0793
S1236FE03E80FFFFFF0FC0FFFFFF07E0CFFEFF03F0FE847F00F8FE840F00DCFCE41F00CC2F
S123700078E67F008681F3E00102FFF98103027EFC0300E1B31F0C00F0FF1F180004FE03CD
S10A7020000000F000000075
S105140B0000DB
S12370277F0EC639C61EBDC265C60CBD8FF2C61EBDC1E2C617BDC265C60CBD8FF2C617BD32
S1237047C1E2C615BDC265C60CBD8FF2C615BDC1E2C60CBD8FF2C60B8E0CE2BDC1545D26C6
S123706732C60C8E0CE2BDC1545D2637C60D8E0CE2BDC1545D263CC63CBD8FF2C61EBDC177
S1237087E2C617BDC1E2C615BDC1E2C60CBD8FF27E702BC61EBDC265C60C8E0CE2BDC1547A
S12370A75D27C9C617BDC265C60D8E0CE2BDC1545D27C4C615BDC26520BD327EC61FBDD48C
S12370C729C601BDA62F8EC1AEC613BDA3FDC606BD8FF28EC1AEC614BDA3FDC606BD8FF2A8
S12370E76FE48EC1AEC610BDA3FDC606BD8FF26CE4E6E4C10A26EB8EC1AEC611BDA3FDC60B
S123710706BD8FF28EC1AEC612BDA3FDC606BD8FF26F618EC1AEC610BDA3FDC606BD8FF2DA
S12371276C61E661C10A26EB7E70CD327F6FE48EC1AEC602BDA3FDC608BD8FF26CE4E6E44D
S1237147C10A26EB7EC431327F6FE48EC1AEC603BDA3FDC608BD8FF26CE4E6E4C10A26EBAC
S12371677EC431C601BDA62F8EC1AEC619BDA3FDC602BD8FF27EC431C601BDA62F8EC1AE30
S1237187C618BDA3FDC602BD8FF27EC431C601BDA62F8EC1AEC617BDA3FDC602BD8FF27E1C
S12371A7C431C601BDA62F8EC1AEC616BDA3FDC602BD8FF27EC431C601BDA62F8EC1AEC6AB
S12371C715BDA3FDC602BD8FF27EC431C601BDA62F8EC1AEC614BDA3FDC602BD8FF27EC4E4
S12371E731C601BDA62F8EC1AEC612BDA3FDC606BD8FF28EC1AEC611BDA3FDC606BD8FF283
S12372077EC431C601BDA62F8EC1AEC611BDA3FDC606BD8FF28EC1AEC612BDA3FDC606BDA1
S12372278FF27EC431C601BDA62F8EC1AEC614BDA3FDC606BD8FF28EC1AEC613BDA3FDC6BF
S123724706BD8FF27EC431C601BDA62F8EC1AEC613BDA3FDC606BD8FF28EC1AEC614BDA39F
S1237267FDC606BD8FF27EC431C606E7E2C6FFE7E2C62DBDC82DC602BD8FF2C606E7E2C660
S1237287FFE7E2C62CBDC82DC602BD8FF2C606E7E2C6FFE7E2C610BDC82DC606BD8FF2C6F6
S12372A706E7E2C6FFE7E2C610BDC82D3268C602BD8FF2C606E7E2C6FFE7E2C62CBDC82D77
S12372C7C602BD8FF2C606E7E2C6FFE7E2C62DBDC82DC606BD8FF2C606E7E2C6FFE7E2C6E2
S12372E72DBDC82DC602BD8FF2C606E7E2C6FFE7E2C610BDC82D3268C602BD8FF2C606E7A0
S1237307E2C6FFE7E2C62CBDC82DC606BD8FF2C606E7E2C6FFE7E2C616BDC82DC602BD8F7F
S1237327F2C606E7E2C6FFE7E2C62EBDC82DC602BD8FF2C606E7E2C6FFE7E2C62FBDC82DB7
S12373473268C606BD8FF2C606E7E2C6FFE7E2C616BDC82DC602BD8FF2C606E7E2C6FFE786
S1237367E2C62EBDC82DC602BD8FF2C606E7E2C6FFE7E2C62FBDC82DC606BD8FF2C606E7ED
S1237387E2C6FFE7E2C616BDC82D3268C602BD8FF2C606E7E2C6FFE7E2C62EBDC82DC602B3
S12373A7BD8FF2C606E7E2C6FFE7E2C62FBDC82D7EC431327F6FE4C637BDC1AEC606E7E285
S12373C7C6FFE7E2C62ABDC82DC606BD8FF26C623262E6E4C10A26DF7EC431C606E7E2C69E
S12373E7FFE7E2C62EBDC82DC606E7E2C6FFE7E2C616BDC82DC606BD8FF2C606E7E2C6FFFF
S1237407E7E2C62FBDC82DC606E7E2C6FFE7E2C62EBDC82D3268C606BD8FF2C606E7E2C629
S1237427FFE7E2C616BDC82DC606E7E2C6FFE7E2C62FBDC82DC606BD8FF2C606E7E2C6FFBD
S1237447E7E2C62EBDC82DC606E7E2C6FFE7E2C616BDC82D3268C606BD8FF2C606E7E2C602
S1237467FFE7E2C62FBDC82DC606E7E2C6FFE7E2C62EBDC82DC606BD8FF2C606E7E2C6FF65
S1237487E7E2C616BDC82DC606E7E2C6FFE7E2C62FBDC82D3268C606BD8FF27EC431C606DD
S12374A7E7E2C6FFE7E2C629BDC82DC606BD8FF2C606E7E2C6FFE7E2C629BDC82DC606BD72
S12374C78FF2C606E7E2C6FFE7E2C629BDC82DC606BD8FF2C606E7E2C6FFE7E2C629BDC8BB
S12374E72D32687EC431C606E7E2C6FFE7E2C616BDC82DC602BD8FF2C606E7E2C6FFE7E26D
S1237507C62EBDC82DC602BD8FF2C606E7E2C6FFE7E2C62FBDC82DC606BD8FF2C606E7E24B
S1237527C6FFE7E2C616BDC82D3268C602BD8FF2C606E7E2C6FFE7E2C62EBDC82DC602BD36
S12375478FF2C606E7E2C6FFE7E2C62FBDC82DC606BD8FF2C606E7E2C6FFE7E2C616BDC847
S12375672DC602BD8FF2C606E7E2C6FFE7E2C62EBDC82D3268C602BD8FF2C606E7E2C6FF0A
S1237587E7E2C62FBDC82D7EC431327F6FE4C606E7E2C6FFE7E2C615BDC82DC606E7E2C6EE
S12375A7FFE7E2C62EBDC82DC606BD8FF26C643264E6E4C10926D77EC431327F6FE4C638DC
S12375C7BDC1AEC639BDC1AEC63ABDC1AEC606E7E2C6FFE7E2C62BBDC82DC606E7E2C6FFFD
S12375E7E7E2C62EBDC82DC606BD8FF26C643264E6E4C10926C87EC431327F6FE4C606E7F5
S1237607E2C6FFE7E2C62FBDC82DC606E7E2C6FFE7E2C61ABDC82DC606BD8FF26C64326423
S1237627E6E4C10526D77EC431327F6FE4C606E7E2C6FFE7E2C616BDC82DC606E7E2C6FF30
S1237647E7E2C617BDC82DC606BD8FF26C643264E6E4C10526D77EC431327DC61FBDD463CF
S1237667C601E761F73FF7F63FF7E7626FE4E662BDD429C602BD8FF2E662BDD463C602BD32
S12376878FF26CE4E6E4C10426E46C61E661C10526D2C61FBDD4297EC431327DC61FBDD46C
S12376A763C602E761F73FF7F63FF7E7626FE4E662BDD429C602BD8FF2E662BDD463C6024B
S12376C7BD8FF26CE4E6E4C10426E46C61E661C10426D2C61FBDD4297EC431327DC61FBD44
S12376E7D463C601E761F73FF7F63FF7E7626FE4E662BDD429C602BD8FF2E662BDD463C63A
S123770702BD8FF26CE4E6E4C10426E4E661CB02E761C10526D0C61FBDD4297EC431327D5C
S1237727C61FBDD463C602E761F73FF7F63FF7E7626FE4E662BDD429C602BD8FF2E662BD53
S1237747D463C602BD8FF26CE4E6E4C10426E4E661CB02E761C10626D0C61FBDD4297EC4FE
S123776731327DC61FBDD463C603E761F73FF7F63FF7E7626FE4E662BDD429C602BD8FF237
S1237787E662BDD463C602BD8FF26CE4E6E4C10426E46C61E661C10526D2C61FBDD4297EC4
S12377A7C431327DC61FBDD463C601E761F73FF7F63FF7E7626FE4E662BDD429C602BD8F27
S12377C7F2E662BDD463C602BD8FF26CE4E6E4C10426E46C61E661C10326D2C61FBDD42912
S12377E77EC431327EC61FBDD4636FE4C610BDD429C604BD8FF2C610BDD463C604BD8FF2C5
S12378076CE4E6E4C10426E4C610BDD4296F61C604BDD429C608BDD463C604BD8FF2C604FC
S1237827BDD463C608BDD429C604BD8FF26C61E661C10426DABDD429C61FBDD4297EC43114
S1237847327FC61FBDD4636FE2C610BDA4856F6132618EC1AEC610BDA3FDC602BD8FF26C81
S1237867E4E6E4C12226EB8EC265C610BDA3FDC61FBDD4297EC431327F6FE2C610BDA485A3
S12378876F6132618EC1AEC610BDA3FDC604BD8FF26CE4E6E4C12226EB8EC265C610BDA349
S12378A7FDC63CBD8FF27EC431327FC61FBDD4636FE2C610BDA4856F6132618EC1AEC61040
S12378C7BDA3FDC604BD8FF26CE4E6E4C12226EB8EC265C610BDA3FDC61FBDD429C63CBDE4
S12378E78FD77EC431C61FBDD463C609BDC4FCC604BD8FF2C60ABDC4FCC61FBDD4297EC449
S123790731C61FBDD463C60CBDC4FCC60BBDC4FCC61FBDD429C63CBD8FD77EC431C601F7C0
S12379270EC6C60F7EC4FCC61CBDC265C606BD8FF2C61CBDC1E2C61DBDC265C606BD8FF272
S1237947C61DBDC1E2C61FBDC265C606BD8FF2C61FBDC1E2C614BDC265C606BD8FF2C6141F
S1237967BDC1E2C626BDC265C606BD8FF2C626BDC1E2C606BD8FF2C6028E0CE2BDC1545DF9
S12379872654C6038E0CE2BDC1545D2659BD8689460B375D265EC610BD868967E7345D10A9
S12379A7260068C61B8E0CE2BDC1545D1026006DC678BD8FF2C61CBDC1E2C61DBDC1E2C638
S12379C71FBDC1E2C614BDC1E2C626BDC1E2C606BD8FF27E792EC61CBDC265C6038E0CE25D
S12379E7BDC1545D27A7C61DBDC265BD8689460B375D27A2C61FBDC29BC61FBDC24EC610B7
S1237A07BD868967E7345D1027FF98C614BDC265C61B8E0CE2BDC1545D1027FF93C626BD26
S1237A27C2657E79B7C60CBDC265C606BD8FF2C60CBDC1E2C619BDC265C606BD8FF2C619C8
S1237A47BDC1E2C618BDC265C606BD8FF2C618BDC1E2C608BDC265C606BD8FF2C608BDC1A9
S1237A67E2C612BDC265C606BD8FF2C612BDC1E2C606BD8FF2C6048E0CE2BDC1545D264E28
S1237A87BD86894009375D2653BD8689460B375D2658C602BD868967E7345D265DC6208E20
S1237AA70CE2BDC1545D2662C63CBD8FF2C60CBDC1E2C619BDC1E2C618BDC1E2C608BDC1DB
S1237AC7E2C612BDC1E2C60CBD8FF27E7A2CC60CBDC265BD86894009375D27ADC619BDC2BC
S1237AE765BD8689460B375D27A8C609BDC265C602BD868967E7345D27A3C608BDC265C62E
S1237B07208E0CE2BDC1545D279EC612BDC2657E7AAFC61ABDC265C606BD8FF2C61ABDC13B
S1237B27E2C61BBDC265C606BD8FF2C61BBDC1E2C607BDC265C606BD8FF2C607BDC1E2C69A
S1237B4713BDC265C606BD8FF2C613BDC1E2C623BDC265C606BD8FF2C623BDC1E2C606BD37
S1237B678FF2C6008E0CE2BDC1545D264EBD86894009375D2653BD8689460B375D2658C67D
S1237B8701BD868967E7345D265DC61D8E0CE2BDC1545D2662C63CBD8FF2C61ABDC1E2C64F
S1237BA71BBDC1E2C607BDC1E2C613BDC1E2C623BDC1E2C60CBD8FF27E7B19C61ABDC265AA
S1237BC7BD86894009375D27ADC61BBDC265BD8689460B375D27A8C61FBDC265C601BD8605
S1237BE78967E7345D27A3C613BDC265C61D8E0CE2BDC1545D279EC623BDC2657E7B9CC610
S1237C0701BDA62F8EC1AEC611BDA360C63CBD8FF27EC431C61FBDD3A5C608BDD429C60611
S1237C27BD8FF2C608BDD463C606BD8FF2C608BDD429C606BD8FF2C608BDD463C606BD8FC3
S1237C47F2C608BDD429C606BD8FF2C608BDD463C606BD8FF2C61FBDD429C61FBDD3E37E54
S1237C67C431C61FBDD3A5C602BDD429C606BD8FF2C602BDD463C606BD8FF2C602BDD42916
S1237C87C606BD8FF2C602BDD463C606BD8FF2C602BDD429C606BD8FF2C602BDD463C606F5
S1237CA7BD8FF2C61FBDD429C61FBDD3E37EC431C61FBDD3A5C604BDD429C606BD8FF2C6A3
S1237CC704BDD463C606BD8FF2C604BDD429C606BD8FF2C604BDD463C606BD8FF2C604BDBA
S1237CE7D429C606BD8FF2C604BDD463C606BD8FF2C61FBDD429C61FBDD3E37EC431C61F5B
S1237D07BDD3A5C610BDD429C606BD8FF2C610BDD463C606BD8FF2C610BDD429C606BD8F0D
S1237D27F2C610BDD463C606BD8FF2C610BDD429C606BD8FF2C610BDD463C606BD8FF2C63E
S1237D471FBDD429C61FBDD3E37EC431C61FBDD3A5C61FBDD463C612BD8FF2C61FBDD429CC
S1237D67C612BD8FF2C61FBDD463C612BD8FF2C61FBDD429C612BD8FF2C61FBDD463C6128D
S1237D87BD8FF2C61FBDD429C612BD8FF2C61FBDD429C61FBDD3E37EC431C61FBDD3A57DE4
S1237DA70EC6270FC61FBDD463C63CBD8FF27D0EC626F1C61FBDD3E37EC431C61FBDD3A548
S1237DC7C61FBDD463C678BD8FF2C61FBDD429C61FBDD3E37EC431C61FBDD3A5C61FBDD449
S1167DE763C63CBD8FF2C61FBDD429C61FBDD3E37EC43178
S1237DFA3440327FC603BD92D0E7E4BDBA21F6183EC1012707F6183FC101264DE6E4C101AB
S1237E1A1027009310240073C628F7108BC61DF7108C8E047FC602BD8689537639CE00D890
S1237E3ABDB9CD30C4BD90C9BDBB9DC606BD8FF233421183015E26E8F6183EC1012721F6F6
S1237E5A183FC101271A7E989EC628F7108BC61DF7108C8E041DC602BD868953763920BDDE
S1237E7A6DE427E2C628F7108BC61DF7108C8E041DC602BD868953763920CBC102269EC617
S1237E9A28F7108BC61DF7108C8E045EE6E4BD86895376397E7E37C628F7108BC61DF7106F
S1237EBA8C8E0480C602BD86895376397E7E37F6183EC101271DF6183FC1012716C60AF7D8
S1237EDA108BC61DF7108C8E01FBC608BD868953763939C628F7108BC61DF7108C8E048A02
S1237EFAC608BD8689537639390D1D27090D2026057D0C46270139C628F7108BC61DF71043
S1237F1A8C8E009BC60CBD8689537639397D0021270139C616BDD0135D26177D002126F2EA
S1237F3AC635BDD0135D27EAC60DBDC9B6C6127E8FF2BD86895C153820E1C601D71E8E7FF5
S1237F5A60C6667EB099C614BD8FD7C614BD8FD70F1E7E8F4B0D1D27190D2026310D1F26F1
S1237F7A217D0C462734C6078E0002BD8689535F39390D1E260CC64A8E0000BD8689535FD2
S1237F9A3939C64A8E0024BD8689535F3939C64A8E001FBD8689535F3939C6068E0001BDDA
S1107FBA8689535F39390F1EC6597E96A083
S9030000FC
